{
  "contractName": "delivery_a",
  "abi": [
    {
      "inputs": [],
      "stateMutability": "nonpayable",
      "type": "constructor"
    },
    {
      "inputs": [],
      "name": "orderNum",
      "outputs": [
        {
          "internalType": "uint256",
          "name": "",
          "type": "uint256"
        }
      ],
      "stateMutability": "view",
      "type": "function"
    },
    {
      "inputs": [],
      "name": "owner",
      "outputs": [
        {
          "internalType": "address",
          "name": "",
          "type": "address"
        }
      ],
      "stateMutability": "view",
      "type": "function"
    },
    {
      "inputs": [
        {
          "internalType": "string",
          "name": "_storeName",
          "type": "string"
        },
        {
          "internalType": "string",
          "name": "_storeAddress",
          "type": "string"
        }
      ],
      "name": "storeRegist",
      "outputs": [],
      "stateMutability": "nonpayable",
      "type": "function"
    },
    {
      "inputs": [
        {
          "internalType": "string",
          "name": "_menuName",
          "type": "string"
        },
        {
          "internalType": "uint256",
          "name": "_price",
          "type": "uint256"
        }
      ],
      "name": "storeMenuRegist",
      "outputs": [],
      "stateMutability": "nonpayable",
      "type": "function"
    },
    {
      "inputs": [
        {
          "internalType": "uint256",
          "name": "_orderId",
          "type": "uint256"
        }
      ],
      "name": "storeAccept",
      "outputs": [],
      "stateMutability": "nonpayable",
      "type": "function"
    },
    {
      "inputs": [
        {
          "internalType": "uint256",
          "name": "_orderId",
          "type": "uint256"
        }
      ],
      "name": "storeDecline",
      "outputs": [],
      "stateMutability": "nonpayable",
      "type": "function"
    },
    {
      "inputs": [
        {
          "internalType": "uint256",
          "name": "_orderId",
          "type": "uint256"
        }
      ],
      "name": "cookFinish",
      "outputs": [],
      "stateMutability": "payable",
      "type": "function"
    },
    {
      "inputs": [],
      "name": "myStoreOrder",
      "outputs": [
        {
          "components": [
            {
              "internalType": "uint256",
              "name": "orderID",
              "type": "uint256"
            },
            {
              "internalType": "address",
              "name": "customerAddr",
              "type": "address"
            },
            {
              "internalType": "address",
              "name": "storeAddr",
              "type": "address"
            },
            {
              "internalType": "address",
              "name": "riderAddr",
              "type": "address"
            },
            {
              "internalType": "string",
              "name": "customerAddress",
              "type": "string"
            },
            {
              "internalType": "string",
              "name": "storeAddress",
              "type": "string"
            },
            {
              "components": [
                {
                  "internalType": "string",
                  "name": "name",
                  "type": "string"
                },
                {
                  "internalType": "uint256",
                  "name": "price",
                  "type": "uint256"
                },
                {
                  "internalType": "uint256",
                  "name": "count",
                  "type": "uint256"
                }
              ],
              "internalType": "struct delivery_a.Menu[]",
              "name": "menuName",
              "type": "tuple[]"
            },
            {
              "internalType": "uint256",
              "name": "foodPrice",
              "type": "uint256"
            },
            {
              "internalType": "uint256",
              "name": "deliveryFee",
              "type": "uint256"
            },
            {
              "internalType": "uint256",
              "name": "deliveryTip",
              "type": "uint256"
            },
            {
              "internalType": "enum delivery_a.storeState",
              "name": "storeStatus",
              "type": "uint8"
            },
            {
              "internalType": "enum delivery_a.riderState",
              "name": "riderStatus",
              "type": "uint8"
            }
          ],
          "internalType": "struct delivery_a.Order[]",
          "name": "",
          "type": "tuple[]"
        }
      ],
      "stateMutability": "view",
      "type": "function"
    },
    {
      "inputs": [
        {
          "internalType": "string",
          "name": "_customerNick",
          "type": "string"
        },
        {
          "internalType": "string",
          "name": "_customerAddress",
          "type": "string"
        }
      ],
      "name": "customerRegist",
      "outputs": [],
      "stateMutability": "nonpayable",
      "type": "function"
    },
    {
      "inputs": [
        {
          "internalType": "string",
          "name": "_storeName",
          "type": "string"
        },
        {
          "internalType": "string",
          "name": "_foodName",
          "type": "string"
        },
        {
          "internalType": "uint256",
          "name": "_count",
          "type": "uint256"
        }
      ],
      "name": "addMenuToBusket",
      "outputs": [],
      "stateMutability": "nonpayable",
      "type": "function"
    },
    {
      "inputs": [],
      "name": "menuTotalPriceForBasket",
      "outputs": [
        {
          "internalType": "uint256",
          "name": "",
          "type": "uint256"
        }
      ],
      "stateMutability": "view",
      "type": "function"
    },
    {
      "inputs": [
        {
          "internalType": "uint256",
          "name": "_deliveryTip",
          "type": "uint256"
        }
      ],
      "name": "ordering",
      "outputs": [],
      "stateMutability": "nonpayable",
      "type": "function"
    },
    {
      "inputs": [],
      "name": "menuTotalPriceForOrder",
      "outputs": [
        {
          "internalType": "uint256",
          "name": "",
          "type": "uint256"
        }
      ],
      "stateMutability": "view",
      "type": "function"
    },
    {
      "inputs": [],
      "name": "payment",
      "outputs": [],
      "stateMutability": "payable",
      "type": "function"
    },
    {
      "inputs": [],
      "name": "myCustomerGoingOrder",
      "outputs": [
        {
          "components": [
            {
              "internalType": "uint256",
              "name": "orderID",
              "type": "uint256"
            },
            {
              "internalType": "address",
              "name": "customerAddr",
              "type": "address"
            },
            {
              "internalType": "address",
              "name": "storeAddr",
              "type": "address"
            },
            {
              "internalType": "address",
              "name": "riderAddr",
              "type": "address"
            },
            {
              "internalType": "string",
              "name": "customerAddress",
              "type": "string"
            },
            {
              "internalType": "string",
              "name": "storeAddress",
              "type": "string"
            },
            {
              "components": [
                {
                  "internalType": "string",
                  "name": "name",
                  "type": "string"
                },
                {
                  "internalType": "uint256",
                  "name": "price",
                  "type": "uint256"
                },
                {
                  "internalType": "uint256",
                  "name": "count",
                  "type": "uint256"
                }
              ],
              "internalType": "struct delivery_a.Menu[]",
              "name": "menuName",
              "type": "tuple[]"
            },
            {
              "internalType": "uint256",
              "name": "foodPrice",
              "type": "uint256"
            },
            {
              "internalType": "uint256",
              "name": "deliveryFee",
              "type": "uint256"
            },
            {
              "internalType": "uint256",
              "name": "deliveryTip",
              "type": "uint256"
            },
            {
              "internalType": "enum delivery_a.storeState",
              "name": "storeStatus",
              "type": "uint8"
            },
            {
              "internalType": "enum delivery_a.riderState",
              "name": "riderStatus",
              "type": "uint8"
            }
          ],
          "internalType": "struct delivery_a.Order",
          "name": "",
          "type": "tuple"
        }
      ],
      "stateMutability": "view",
      "type": "function"
    },
    {
      "inputs": [],
      "name": "myCustomerPastOrder",
      "outputs": [
        {
          "components": [
            {
              "internalType": "uint256",
              "name": "orderID",
              "type": "uint256"
            },
            {
              "internalType": "address",
              "name": "customerAddr",
              "type": "address"
            },
            {
              "internalType": "address",
              "name": "storeAddr",
              "type": "address"
            },
            {
              "internalType": "address",
              "name": "riderAddr",
              "type": "address"
            },
            {
              "internalType": "string",
              "name": "customerAddress",
              "type": "string"
            },
            {
              "internalType": "string",
              "name": "storeAddress",
              "type": "string"
            },
            {
              "components": [
                {
                  "internalType": "string",
                  "name": "name",
                  "type": "string"
                },
                {
                  "internalType": "uint256",
                  "name": "price",
                  "type": "uint256"
                },
                {
                  "internalType": "uint256",
                  "name": "count",
                  "type": "uint256"
                }
              ],
              "internalType": "struct delivery_a.Menu[]",
              "name": "menuName",
              "type": "tuple[]"
            },
            {
              "internalType": "uint256",
              "name": "foodPrice",
              "type": "uint256"
            },
            {
              "internalType": "uint256",
              "name": "deliveryFee",
              "type": "uint256"
            },
            {
              "internalType": "uint256",
              "name": "deliveryTip",
              "type": "uint256"
            },
            {
              "internalType": "enum delivery_a.storeState",
              "name": "storeStatus",
              "type": "uint8"
            },
            {
              "internalType": "enum delivery_a.riderState",
              "name": "riderStatus",
              "type": "uint8"
            }
          ],
          "internalType": "struct delivery_a.Order[]",
          "name": "",
          "type": "tuple[]"
        }
      ],
      "stateMutability": "view",
      "type": "function"
    },
    {
      "inputs": [],
      "name": "myCustomerBasket",
      "outputs": [
        {
          "components": [
            {
              "internalType": "address",
              "name": "customerAddr",
              "type": "address"
            },
            {
              "internalType": "address",
              "name": "storeAddr",
              "type": "address"
            },
            {
              "internalType": "string",
              "name": "customerAddress",
              "type": "string"
            },
            {
              "internalType": "string",
              "name": "storeAddress",
              "type": "string"
            },
            {
              "components": [
                {
                  "internalType": "string",
                  "name": "name",
                  "type": "string"
                },
                {
                  "internalType": "uint256",
                  "name": "price",
                  "type": "uint256"
                },
                {
                  "internalType": "uint256",
                  "name": "count",
                  "type": "uint256"
                }
              ],
              "internalType": "struct delivery_a.Menu[]",
              "name": "menuNames",
              "type": "tuple[]"
            },
            {
              "internalType": "uint256",
              "name": "foodPrice",
              "type": "uint256"
            },
            {
              "internalType": "uint256",
              "name": "deliveryFee",
              "type": "uint256"
            }
          ],
          "internalType": "struct delivery_a.Basket",
          "name": "",
          "type": "tuple"
        }
      ],
      "stateMutability": "view",
      "type": "function"
    },
    {
      "inputs": [
        {
          "internalType": "string",
          "name": "_deliveryType",
          "type": "string"
        },
        {
          "internalType": "string",
          "name": "_deliveryZone",
          "type": "string"
        }
      ],
      "name": "riderRegist",
      "outputs": [],
      "stateMutability": "nonpayable",
      "type": "function"
    },
    {
      "inputs": [
        {
          "internalType": "uint256",
          "name": "_orderId",
          "type": "uint256"
        }
      ],
      "name": "riderPickOrder",
      "outputs": [],
      "stateMutability": "nonpayable",
      "type": "function"
    },
    {
      "inputs": [
        {
          "internalType": "uint256",
          "name": "_orderId",
          "type": "uint256"
        }
      ],
      "name": "riderStartDelivery",
      "outputs": [],
      "stateMutability": "nonpayable",
      "type": "function"
    },
    {
      "inputs": [
        {
          "internalType": "uint256",
          "name": "_orderId",
          "type": "uint256"
        }
      ],
      "name": "riderFinishDelivery",
      "outputs": [],
      "stateMutability": "nonpayable",
      "type": "function"
    },
    {
      "inputs": [],
      "name": "myRiderOrder",
      "outputs": [
        {
          "components": [
            {
              "internalType": "uint256",
              "name": "orderID",
              "type": "uint256"
            },
            {
              "internalType": "address",
              "name": "customerAddr",
              "type": "address"
            },
            {
              "internalType": "address",
              "name": "storeAddr",
              "type": "address"
            },
            {
              "internalType": "address",
              "name": "riderAddr",
              "type": "address"
            },
            {
              "internalType": "string",
              "name": "customerAddress",
              "type": "string"
            },
            {
              "internalType": "string",
              "name": "storeAddress",
              "type": "string"
            },
            {
              "components": [
                {
                  "internalType": "string",
                  "name": "name",
                  "type": "string"
                },
                {
                  "internalType": "uint256",
                  "name": "price",
                  "type": "uint256"
                },
                {
                  "internalType": "uint256",
                  "name": "count",
                  "type": "uint256"
                }
              ],
              "internalType": "struct delivery_a.Menu[]",
              "name": "menuName",
              "type": "tuple[]"
            },
            {
              "internalType": "uint256",
              "name": "foodPrice",
              "type": "uint256"
            },
            {
              "internalType": "uint256",
              "name": "deliveryFee",
              "type": "uint256"
            },
            {
              "internalType": "uint256",
              "name": "deliveryTip",
              "type": "uint256"
            },
            {
              "internalType": "enum delivery_a.storeState",
              "name": "storeStatus",
              "type": "uint8"
            },
            {
              "internalType": "enum delivery_a.riderState",
              "name": "riderStatus",
              "type": "uint8"
            }
          ],
          "internalType": "struct delivery_a.Order[]",
          "name": "",
          "type": "tuple[]"
        }
      ],
      "stateMutability": "view",
      "type": "function"
    },
    {
      "inputs": [
        {
          "internalType": "uint256",
          "name": "_amount",
          "type": "uint256"
        }
      ],
      "name": "withdraw",
      "outputs": [],
      "stateMutability": "nonpayable",
      "type": "function"
    },
    {
      "inputs": [],
      "name": "deliverylistOrder",
      "outputs": [
        {
          "components": [
            {
              "internalType": "uint256",
              "name": "orderID",
              "type": "uint256"
            },
            {
              "internalType": "address",
              "name": "customerAddr",
              "type": "address"
            },
            {
              "internalType": "address",
              "name": "storeAddr",
              "type": "address"
            },
            {
              "internalType": "address",
              "name": "riderAddr",
              "type": "address"
            },
            {
              "internalType": "string",
              "name": "customerAddress",
              "type": "string"
            },
            {
              "internalType": "string",
              "name": "storeAddress",
              "type": "string"
            },
            {
              "components": [
                {
                  "internalType": "string",
                  "name": "name",
                  "type": "string"
                },
                {
                  "internalType": "uint256",
                  "name": "price",
                  "type": "uint256"
                },
                {
                  "internalType": "uint256",
                  "name": "count",
                  "type": "uint256"
                }
              ],
              "internalType": "struct delivery_a.Menu[]",
              "name": "menuName",
              "type": "tuple[]"
            },
            {
              "internalType": "uint256",
              "name": "foodPrice",
              "type": "uint256"
            },
            {
              "internalType": "uint256",
              "name": "deliveryFee",
              "type": "uint256"
            },
            {
              "internalType": "uint256",
              "name": "deliveryTip",
              "type": "uint256"
            },
            {
              "internalType": "enum delivery_a.storeState",
              "name": "storeStatus",
              "type": "uint8"
            },
            {
              "internalType": "enum delivery_a.riderState",
              "name": "riderStatus",
              "type": "uint8"
            }
          ],
          "internalType": "struct delivery_a.Order[]",
          "name": "",
          "type": "tuple[]"
        }
      ],
      "stateMutability": "view",
      "type": "function"
    }
  ],
  "bytecode": "0x60806040523480156200001157600080fd5b50336000806101000a81548173ffffffffffffffffffffffffffffffffffffffff021916908373ffffffffffffffffffffffffffffffffffffffff16021790555061b52180620000626000396000f3fe60806040526004361061014b5760003560e01c806378300648116100b6578063aea77a271161006f578063aea77a2714610416578063b3233ff51461043f578063c0eb2bbd1461046a578063cffe018114610495578063d8bd176e146104be578063de85c45c146104e75761014b565b806378300648146103185780637d1c803c1461034157806380589aaa1461036c578063853db03e146103975780638da5cb5b146103c05780639d78c834146103eb5761014b565b80632e1a7d4d116101085780632e1a7d4d1461023d57806342f6487a1461026657806344fa764b14610270578063496e20ad1461029b5780634e557cc1146102c45780636360486d146102ef5761014b565b806303f6fb9c1461015057806306f9c4a91461017957806308fff03d146101a2578063225de094146101cd5780632bc4acea146101f65780632c8165a014610212575b600080fd5b34801561015c57600080fd5b506101776004803603810190610172919061a408565b610510565b005b34801561018557600080fd5b506101a0600480360381019061019b919061a57b565b613015565b005b3480156101ae57600080fd5b506101b761315e565b6040516101c4919061aa67565b60405180910390f35b3480156101d957600080fd5b506101f460048036038101906101ef919061a408565b613661565b005b610210600480360381019061020b919061a408565b613da8565b005b34801561021e57600080fd5b506102276144e0565b604051610234919061aa67565b60405180910390f35b34801561024957600080fd5b50610264600480360381019061025f919061a408565b6149e3565b005b61026e614a98565b005b34801561027c57600080fd5b5061028561549a565b604051610292919061aa67565b60405180910390f35b3480156102a757600080fd5b506102c260048036038101906102bd919061a57b565b61599d565b005b3480156102d057600080fd5b506102d9615ae6565b6040516102e6919061ab9b565b60405180910390f35b3480156102fb57600080fd5b506103166004803603810190610311919061a408565b615fa4565b005b34801561032457600080fd5b5061033f600480360381019061033a919061abbd565b616292565b005b34801561034d57600080fd5b50610356616516565b604051610363919061ac28565b60405180910390f35b34801561037857600080fd5b50610381616710565b60405161038e919061aced565b60405180910390f35b3480156103a357600080fd5b506103be60048036038101906103b9919061a408565b616aed565b005b3480156103cc57600080fd5b506103d5617727565b6040516103e2919061ad1e565b60405180910390f35b3480156103f757600080fd5b5061040061774b565b60405161040d919061ac28565b60405180910390f35b34801561042257600080fd5b5061043d6004803603810190610438919061a408565b617751565b005b34801561044b57600080fd5b50610454618453565b604051610461919061ac28565b60405180910390f35b34801561047657600080fd5b5061047f61864d565b60405161048c919061aa67565b60405180910390f35b3480156104a157600080fd5b506104bc60048036038101906104b7919061a408565b618a76565b005b3480156104ca57600080fd5b506104e560048036038101906104e0919061ad39565b61918f565b005b3480156104f357600080fd5b5061050e6004803603810190610509919061a57b565b619fe0565b005b600460003373ffffffffffffffffffffffffffffffffffffffff1673ffffffffffffffffffffffffffffffffffffffff16815260200190815260200160002060000160009054906101000a900473ffffffffffffffffffffffffffffffffffffffff1673ffffffffffffffffffffffffffffffffffffffff163373ffffffffffffffffffffffffffffffffffffffff16146105aa57600080fd5b60005b600460003373ffffffffffffffffffffffffffffffffffffffff1673ffffffffffffffffffffffffffffffffffffffff168152602001908152602001600020600301805490508110156130115781600460003373ffffffffffffffffffffffffffffffffffffffff1673ffffffffffffffffffffffffffffffffffffffff168152602001908152602001600020600301828154811061064f5761064e61adc4565b5b90600052602060002090600b02016000015403612ffe576001600481111561067a5761067961a800565b5b600460003373ffffffffffffffffffffffffffffffffffffffff1673ffffffffffffffffffffffffffffffffffffffff16815260200190815260200160002060030182815481106106ce576106cd61adc4565b5b90600052602060002090600b0201600a0160019054906101000a900460ff1660048111156106ff576106fe61a800565b5b03612ffd576003600460003373ffffffffffffffffffffffffffffffffffffffff1673ffffffffffffffffffffffffffffffffffffffff168152602001908152602001600020600301828154811061075a5761075961adc4565b5b90600052602060002090600b0201600a0160016101000a81548160ff0219169083600481111561078d5761078c61a800565b5b021790555060005b6005805490508110156108305782600582815481106107b7576107b661adc4565b5b90600052602060002090600b0201600001540361081d576003600582815481106107e4576107e361adc4565b5b90600052602060002090600b0201600a0160016101000a81548160ff021916908360048111156108175761081661a800565b5b02179055505b80806108289061ae22565b915050610795565b50600360016000600460003373ffffffffffffffffffffffffffffffffffffffff1673ffffffffffffffffffffffffffffffffffffffff168152602001908152602001600020600301848154811061088b5761088a61adc4565b5b90600052602060002090600b020160010160009054906101000a900473ffffffffffffffffffffffffffffffffffffffff1673ffffffffffffffffffffffffffffffffffffffff1673ffffffffffffffffffffffffffffffffffffffff168152602001908152602001600020600a01600a0160016101000a81548160ff0219169083600481111561091f5761091e61a800565b5b021790555060005b60036000600460003373ffffffffffffffffffffffffffffffffffffffff1673ffffffffffffffffffffffffffffffffffffffff168152602001908152602001600020600301848154811061097f5761097e61adc4565b5b90600052602060002090600b020160020160009054906101000a900473ffffffffffffffffffffffffffffffffffffffff1673ffffffffffffffffffffffffffffffffffffffff1673ffffffffffffffffffffffffffffffffffffffff16815260200190815260200160002060060180549050811015610c10578260036000600460003373ffffffffffffffffffffffffffffffffffffffff1673ffffffffffffffffffffffffffffffffffffffff1681526020019081526020016000206003018581548110610a5257610a5161adc4565b5b90600052602060002090600b020160020160009054906101000a900473ffffffffffffffffffffffffffffffffffffffff1673ffffffffffffffffffffffffffffffffffffffff1673ffffffffffffffffffffffffffffffffffffffff1681526020019081526020016000206006018281548110610ad357610ad261adc4565b5b90600052602060002090600b02016000015403610bfd576003806000600460003373ffffffffffffffffffffffffffffffffffffffff1673ffffffffffffffffffffffffffffffffffffffff1681526020019081526020016000206003018581548110610b4357610b4261adc4565b5b90600052602060002090600b020160020160009054906101000a900473ffffffffffffffffffffffffffffffffffffffff1673ffffffffffffffffffffffffffffffffffffffff1673ffffffffffffffffffffffffffffffffffffffff1681526020019081526020016000206006018281548110610bc457610bc361adc4565b5b90600052602060002090600b0201600a0160016101000a81548160ff02191690836004811115610bf757610bf661a800565b5b02179055505b8080610c089061ae22565b915050610927565b50600460003373ffffffffffffffffffffffffffffffffffffffff1673ffffffffffffffffffffffffffffffffffffffff16815260200190815260200160002060000160009054906101000a900473ffffffffffffffffffffffffffffffffffffffff1673ffffffffffffffffffffffffffffffffffffffff166108fc670de0b6b3a7640000600460003373ffffffffffffffffffffffffffffffffffffffff1673ffffffffffffffffffffffffffffffffffffffff1681526020019081526020016000206003018481548110610cea57610ce961adc4565b5b90600052602060002090600b020160090154600460003373ffffffffffffffffffffffffffffffffffffffff1673ffffffffffffffffffffffffffffffffffffffff1681526020019081526020016000206003018581548110610d5057610d4f61adc4565b5b90600052602060002090600b020160080154610d6c919061ae6a565b610d76919061ae9e565b9081150290604051600060405180830381858888f19350505050158015610da1573d6000803e3d6000fd5b50600460003373ffffffffffffffffffffffffffffffffffffffff1673ffffffffffffffffffffffffffffffffffffffff16815260200190815260200160002060000160009054906101000a900473ffffffffffffffffffffffffffffffffffffffff1673ffffffffffffffffffffffffffffffffffffffff166108fc670de0b6b3a7640000600460003373ffffffffffffffffffffffffffffffffffffffff1673ffffffffffffffffffffffffffffffffffffffff1681526020019081526020016000206003018481548110610e7b57610e7a61adc4565b5b90600052602060002090600b020160080154610e97919061ae9e565b9081150290604051600060405180830381858888f19350505050158015610ec2573d6000803e3d6000fd5b50600060016000600460003373ffffffffffffffffffffffffffffffffffffffff1673ffffffffffffffffffffffffffffffffffffffff1681526020019081526020016000206003018481548110610f1d57610f1c61adc4565b5b90600052602060002090600b020160010160009054906101000a900473ffffffffffffffffffffffffffffffffffffffff1673ffffffffffffffffffffffffffffffffffffffff1673ffffffffffffffffffffffffffffffffffffffff1681526020019081526020016000206015016001816001815401808255809150500390600052602060002090600b0201905060016000600460003373ffffffffffffffffffffffffffffffffffffffff1673ffffffffffffffffffffffffffffffffffffffff16815260200190815260200160002060030184815481106110045761100361adc4565b5b90600052602060002090600b020160010160009054906101000a900473ffffffffffffffffffffffffffffffffffffffff1673ffffffffffffffffffffffffffffffffffffffff1673ffffffffffffffffffffffffffffffffffffffff168152602001908152602001600020600a0160000154816000018190555060016000600460003373ffffffffffffffffffffffffffffffffffffffff1673ffffffffffffffffffffffffffffffffffffffff16815260200190815260200160002060030184815481106110d7576110d661adc4565b5b90600052602060002090600b020160010160009054906101000a900473ffffffffffffffffffffffffffffffffffffffff1673ffffffffffffffffffffffffffffffffffffffff1673ffffffffffffffffffffffffffffffffffffffff168152602001908152602001600020600a0160010160009054906101000a900473ffffffffffffffffffffffffffffffffffffffff168160010160006101000a81548173ffffffffffffffffffffffffffffffffffffffff021916908373ffffffffffffffffffffffffffffffffffffffff16021790555060016000600460003373ffffffffffffffffffffffffffffffffffffffff1673ffffffffffffffffffffffffffffffffffffffff16815260200190815260200160002060030184815481106112045761120361adc4565b5b90600052602060002090600b020160010160009054906101000a900473ffffffffffffffffffffffffffffffffffffffff1673ffffffffffffffffffffffffffffffffffffffff1673ffffffffffffffffffffffffffffffffffffffff168152602001908152602001600020600a0160020160009054906101000a900473ffffffffffffffffffffffffffffffffffffffff168160020160006101000a81548173ffffffffffffffffffffffffffffffffffffffff021916908373ffffffffffffffffffffffffffffffffffffffff16021790555060016000600460003373ffffffffffffffffffffffffffffffffffffffff1673ffffffffffffffffffffffffffffffffffffffff16815260200190815260200160002060030184815481106113315761133061adc4565b5b90600052602060002090600b020160010160009054906101000a900473ffffffffffffffffffffffffffffffffffffffff1673ffffffffffffffffffffffffffffffffffffffff1673ffffffffffffffffffffffffffffffffffffffff168152602001908152602001600020600a0160030160009054906101000a900473ffffffffffffffffffffffffffffffffffffffff168160030160006101000a81548173ffffffffffffffffffffffffffffffffffffffff021916908373ffffffffffffffffffffffffffffffffffffffff16021790555060016000600460003373ffffffffffffffffffffffffffffffffffffffff1673ffffffffffffffffffffffffffffffffffffffff168152602001908152602001600020600301848154811061145e5761145d61adc4565b5b90600052602060002090600b020160010160009054906101000a900473ffffffffffffffffffffffffffffffffffffffff1673ffffffffffffffffffffffffffffffffffffffff1673ffffffffffffffffffffffffffffffffffffffff168152602001908152602001600020600a016004018160040190816114e0919061b117565b5060016000600460003373ffffffffffffffffffffffffffffffffffffffff1673ffffffffffffffffffffffffffffffffffffffff16815260200190815260200160002060030184815481106115395761153861adc4565b5b90600052602060002090600b020160010160009054906101000a900473ffffffffffffffffffffffffffffffffffffffff1673ffffffffffffffffffffffffffffffffffffffff1673ffffffffffffffffffffffffffffffffffffffff168152602001908152602001600020600a016005018160050190816115bb919061b117565b5060005b60016000600460003373ffffffffffffffffffffffffffffffffffffffff1673ffffffffffffffffffffffffffffffffffffffff16815260200190815260200160002060030185815481106116175761161661adc4565b5b90600052602060002090600b020160010160009054906101000a900473ffffffffffffffffffffffffffffffffffffffff1673ffffffffffffffffffffffffffffffffffffffff1673ffffffffffffffffffffffffffffffffffffffff168152602001908152602001600020600a01600601805490508110156117e9578160060160016000600460003373ffffffffffffffffffffffffffffffffffffffff1673ffffffffffffffffffffffffffffffffffffffff16815260200190815260200160002060030186815481106116f0576116ef61adc4565b5b90600052602060002090600b020160010160009054906101000a900473ffffffffffffffffffffffffffffffffffffffff1673ffffffffffffffffffffffffffffffffffffffff1673ffffffffffffffffffffffffffffffffffffffff168152602001908152602001600020600a0160060182815481106117745761177361adc4565b5b90600052602060002090600302019080600181540180825580915050600190039060005260206000209060030201600090919091909150600082018160000190816117bf919061b215565b506001820154816001015560028201548160020155505080806117e19061ae22565b9150506115bf565b5060016000600460003373ffffffffffffffffffffffffffffffffffffffff1673ffffffffffffffffffffffffffffffffffffffff16815260200190815260200160002060030184815481106118425761184161adc4565b5b90600052602060002090600b020160010160009054906101000a900473ffffffffffffffffffffffffffffffffffffffff1673ffffffffffffffffffffffffffffffffffffffff1673ffffffffffffffffffffffffffffffffffffffff168152602001908152602001600020600a0160070154816007018190555060016000600460003373ffffffffffffffffffffffffffffffffffffffff1673ffffffffffffffffffffffffffffffffffffffff16815260200190815260200160002060030184815481106119155761191461adc4565b5b90600052602060002090600b020160010160009054906101000a900473ffffffffffffffffffffffffffffffffffffffff1673ffffffffffffffffffffffffffffffffffffffff1673ffffffffffffffffffffffffffffffffffffffff168152602001908152602001600020600a0160080154816008018190555060016000600460003373ffffffffffffffffffffffffffffffffffffffff1673ffffffffffffffffffffffffffffffffffffffff16815260200190815260200160002060030184815481106119e8576119e761adc4565b5b90600052602060002090600b020160010160009054906101000a900473ffffffffffffffffffffffffffffffffffffffff1673ffffffffffffffffffffffffffffffffffffffff1673ffffffffffffffffffffffffffffffffffffffff168152602001908152602001600020600a0160090154816009018190555060016000600460003373ffffffffffffffffffffffffffffffffffffffff1673ffffffffffffffffffffffffffffffffffffffff1681526020019081526020016000206003018481548110611abb57611aba61adc4565b5b90600052602060002090600b020160010160009054906101000a900473ffffffffffffffffffffffffffffffffffffffff1673ffffffffffffffffffffffffffffffffffffffff1673ffffffffffffffffffffffffffffffffffffffff168152602001908152602001600020600a01600a0160009054906101000a900460ff1681600a0160006101000a81548160ff02191690836005811115611b6157611b6061a800565b5b021790555060016000600460003373ffffffffffffffffffffffffffffffffffffffff1673ffffffffffffffffffffffffffffffffffffffff1681526020019081526020016000206003018481548110611bbe57611bbd61adc4565b5b90600052602060002090600b020160010160009054906101000a900473ffffffffffffffffffffffffffffffffffffffff1673ffffffffffffffffffffffffffffffffffffffff1673ffffffffffffffffffffffffffffffffffffffff168152602001908152602001600020600a01600a0160019054906101000a900460ff1681600a0160016101000a81548160ff02191690836004811115611c6457611c6361a800565b5b0217905550600060016000600460003373ffffffffffffffffffffffffffffffffffffffff1673ffffffffffffffffffffffffffffffffffffffff1681526020019081526020016000206003018581548110611cc357611cc261adc4565b5b90600052602060002090600b020160010160009054906101000a900473ffffffffffffffffffffffffffffffffffffffff1673ffffffffffffffffffffffffffffffffffffffff1673ffffffffffffffffffffffffffffffffffffffff168152602001908152602001600020600a0160000181905550600060016000600460003373ffffffffffffffffffffffffffffffffffffffff1673ffffffffffffffffffffffffffffffffffffffff1681526020019081526020016000206003018581548110611d9357611d9261adc4565b5b90600052602060002090600b020160010160009054906101000a900473ffffffffffffffffffffffffffffffffffffffff1673ffffffffffffffffffffffffffffffffffffffff1673ffffffffffffffffffffffffffffffffffffffff168152602001908152602001600020600a0160010160006101000a81548173ffffffffffffffffffffffffffffffffffffffff021916908373ffffffffffffffffffffffffffffffffffffffff160217905550600060016000600460003373ffffffffffffffffffffffffffffffffffffffff1673ffffffffffffffffffffffffffffffffffffffff1681526020019081526020016000206003018581548110611e9d57611e9c61adc4565b5b90600052602060002090600b020160010160009054906101000a900473ffffffffffffffffffffffffffffffffffffffff1673ffffffffffffffffffffffffffffffffffffffff1673ffffffffffffffffffffffffffffffffffffffff168152602001908152602001600020600a0160020160006101000a81548173ffffffffffffffffffffffffffffffffffffffff021916908373ffffffffffffffffffffffffffffffffffffffff160217905550600060016000600460003373ffffffffffffffffffffffffffffffffffffffff1673ffffffffffffffffffffffffffffffffffffffff1681526020019081526020016000206003018581548110611fa757611fa661adc4565b5b90600052602060002090600b020160010160009054906101000a900473ffffffffffffffffffffffffffffffffffffffff1673ffffffffffffffffffffffffffffffffffffffff1673ffffffffffffffffffffffffffffffffffffffff168152602001908152602001600020600a0160030160006101000a81548173ffffffffffffffffffffffffffffffffffffffff021916908373ffffffffffffffffffffffffffffffffffffffff1602179055506040518060200160405280600081525060016000600460003373ffffffffffffffffffffffffffffffffffffffff1673ffffffffffffffffffffffffffffffffffffffff16815260200190815260200160002060030185815481106120bf576120be61adc4565b5b90600052602060002090600b020160010160009054906101000a900473ffffffffffffffffffffffffffffffffffffffff1673ffffffffffffffffffffffffffffffffffffffff1673ffffffffffffffffffffffffffffffffffffffff168152602001908152602001600020600a01600401908161213d919061b2fd565b506040518060200160405280600081525060016000600460003373ffffffffffffffffffffffffffffffffffffffff1673ffffffffffffffffffffffffffffffffffffffff16815260200190815260200160002060030185815481106121a6576121a561adc4565b5b90600052602060002090600b020160010160009054906101000a900473ffffffffffffffffffffffffffffffffffffffff1673ffffffffffffffffffffffffffffffffffffffff1673ffffffffffffffffffffffffffffffffffffffff168152602001908152602001600020600a016005019081612224919061b2fd565b5060005b60016000600460003373ffffffffffffffffffffffffffffffffffffffff1673ffffffffffffffffffffffffffffffffffffffff16815260200190815260200160002060030185815481106122805761227f61adc4565b5b90600052602060002090600b020160010160009054906101000a900473ffffffffffffffffffffffffffffffffffffffff1673ffffffffffffffffffffffffffffffffffffffff1673ffffffffffffffffffffffffffffffffffffffff168152602001908152602001600020600a01600601805490508110156124235760016000600460003373ffffffffffffffffffffffffffffffffffffffff1673ffffffffffffffffffffffffffffffffffffffff16815260200190815260200160002060030185815481106123555761235461adc4565b5b90600052602060002090600b020160010160009054906101000a900473ffffffffffffffffffffffffffffffffffffffff1673ffffffffffffffffffffffffffffffffffffffff1673ffffffffffffffffffffffffffffffffffffffff168152602001908152602001600020600a016006018054806123d7576123d661b3cf565b5b6001900381819060005260206000209060030201600080820160006123fc919061a1d6565b6001820160009055600282016000905550509055808061241b9061ae22565b915050612228565b50600060016000600460003373ffffffffffffffffffffffffffffffffffffffff1673ffffffffffffffffffffffffffffffffffffffff168152602001908152602001600020600301858154811061247e5761247d61adc4565b5b90600052602060002090600b020160010160009054906101000a900473ffffffffffffffffffffffffffffffffffffffff1673ffffffffffffffffffffffffffffffffffffffff1673ffffffffffffffffffffffffffffffffffffffff168152602001908152602001600020600a0160070181905550600060016000600460003373ffffffffffffffffffffffffffffffffffffffff1673ffffffffffffffffffffffffffffffffffffffff168152602001908152602001600020600301858154811061254e5761254d61adc4565b5b90600052602060002090600b020160010160009054906101000a900473ffffffffffffffffffffffffffffffffffffffff1673ffffffffffffffffffffffffffffffffffffffff1673ffffffffffffffffffffffffffffffffffffffff168152602001908152602001600020600a0160080181905550600060016000600460003373ffffffffffffffffffffffffffffffffffffffff1673ffffffffffffffffffffffffffffffffffffffff168152602001908152602001600020600301858154811061261e5761261d61adc4565b5b90600052602060002090600b020160010160009054906101000a900473ffffffffffffffffffffffffffffffffffffffff1673ffffffffffffffffffffffffffffffffffffffff1673ffffffffffffffffffffffffffffffffffffffff168152602001908152602001600020600a0160090181905550600460016000600460003373ffffffffffffffffffffffffffffffffffffffff1673ffffffffffffffffffffffffffffffffffffffff16815260200190815260200160002060030185815481106126ee576126ed61adc4565b5b90600052602060002090600b020160010160009054906101000a900473ffffffffffffffffffffffffffffffffffffffff1673ffffffffffffffffffffffffffffffffffffffff1673ffffffffffffffffffffffffffffffffffffffff168152602001908152602001600020600a01600a0160006101000a81548160ff021916908360058111156127825761278161a800565b5b0217905550600060016000600460003373ffffffffffffffffffffffffffffffffffffffff1673ffffffffffffffffffffffffffffffffffffffff16815260200190815260200160002060030185815481106127e1576127e061adc4565b5b90600052602060002090600b020160010160009054906101000a900473ffffffffffffffffffffffffffffffffffffffff1673ffffffffffffffffffffffffffffffffffffffff1673ffffffffffffffffffffffffffffffffffffffff168152602001908152602001600020600a01600a0160016101000a81548160ff021916908360048111156128755761287461a800565b5b0217905550600060016000600460003373ffffffffffffffffffffffffffffffffffffffff1673ffffffffffffffffffffffffffffffffffffffff16815260200190815260200160002060030185815481106128d4576128d361adc4565b5b90600052602060002090600b020160010160009054906101000a900473ffffffffffffffffffffffffffffffffffffffff1673ffffffffffffffffffffffffffffffffffffffff1673ffffffffffffffffffffffffffffffffffffffff16815260200190815260200160002060030160000160006101000a81548173ffffffffffffffffffffffffffffffffffffffff021916908373ffffffffffffffffffffffffffffffffffffffff160217905550600060016000600460003373ffffffffffffffffffffffffffffffffffffffff1673ffffffffffffffffffffffffffffffffffffffff16815260200190815260200160002060030185815481106129de576129dd61adc4565b5b90600052602060002090600b020160010160009054906101000a900473ffffffffffffffffffffffffffffffffffffffff1673ffffffffffffffffffffffffffffffffffffffff1673ffffffffffffffffffffffffffffffffffffffff16815260200190815260200160002060030160010160006101000a81548173ffffffffffffffffffffffffffffffffffffffff021916908373ffffffffffffffffffffffffffffffffffffffff1602179055506040518060200160405280600081525060016000600460003373ffffffffffffffffffffffffffffffffffffffff1673ffffffffffffffffffffffffffffffffffffffff1681526020019081526020016000206003018581548110612af657612af561adc4565b5b90600052602060002090600b020160010160009054906101000a900473ffffffffffffffffffffffffffffffffffffffff1673ffffffffffffffffffffffffffffffffffffffff1673ffffffffffffffffffffffffffffffffffffffff1681526020019081526020016000206003016002019081612b74919061b2fd565b506040518060200160405280600081525060016000600460003373ffffffffffffffffffffffffffffffffffffffff1673ffffffffffffffffffffffffffffffffffffffff1681526020019081526020016000206003018581548110612bdd57612bdc61adc4565b5b90600052602060002090600b020160010160009054906101000a900473ffffffffffffffffffffffffffffffffffffffff1673ffffffffffffffffffffffffffffffffffffffff1673ffffffffffffffffffffffffffffffffffffffff1681526020019081526020016000206003016003019081612c5b919061b2fd565b5060005b60016000600460003373ffffffffffffffffffffffffffffffffffffffff1673ffffffffffffffffffffffffffffffffffffffff1681526020019081526020016000206003018581548110612cb757612cb661adc4565b5b90600052602060002090600b020160010160009054906101000a900473ffffffffffffffffffffffffffffffffffffffff1673ffffffffffffffffffffffffffffffffffffffff1673ffffffffffffffffffffffffffffffffffffffff16815260200190815260200160002060030160040180549050811015612e5a5760016000600460003373ffffffffffffffffffffffffffffffffffffffff1673ffffffffffffffffffffffffffffffffffffffff1681526020019081526020016000206003018581548110612d8c57612d8b61adc4565b5b90600052602060002090600b020160010160009054906101000a900473ffffffffffffffffffffffffffffffffffffffff1673ffffffffffffffffffffffffffffffffffffffff1673ffffffffffffffffffffffffffffffffffffffff168152602001908152602001600020600301600401805480612e0e57612e0d61b3cf565b5b600190038181906000526020600020906003020160008082016000612e33919061a1d6565b60018201600090556002820160009055505090558080612e529061ae22565b915050612c5f565b50600060016000600460003373ffffffffffffffffffffffffffffffffffffffff1673ffffffffffffffffffffffffffffffffffffffff1681526020019081526020016000206003018581548110612eb557612eb461adc4565b5b90600052602060002090600b020160010160009054906101000a900473ffffffffffffffffffffffffffffffffffffffff1673ffffffffffffffffffffffffffffffffffffffff1673ffffffffffffffffffffffffffffffffffffffff16815260200190815260200160002060030160050181905550600060016000600460003373ffffffffffffffffffffffffffffffffffffffff1673ffffffffffffffffffffffffffffffffffffffff1681526020019081526020016000206003018581548110612f8557612f8461adc4565b5b90600052602060002090600b020160010160009054906101000a900473ffffffffffffffffffffffffffffffffffffffff1673ffffffffffffffffffffffffffffffffffffffff1673ffffffffffffffffffffffffffffffffffffffff16815260200190815260200160002060030160060181905550505b5b80806130099061ae22565b9150506105ad565b5050565b600160003373ffffffffffffffffffffffffffffffffffffffff1673ffffffffffffffffffffffffffffffffffffffff16815260200190815260200160002060000160009054906101000a900473ffffffffffffffffffffffffffffffffffffffff1673ffffffffffffffffffffffffffffffffffffffff163373ffffffffffffffffffffffffffffffffffffffff16146130af57600080fd5b6000600160003373ffffffffffffffffffffffffffffffffffffffff1673ffffffffffffffffffffffffffffffffffffffff1681526020019081526020016000209050338160000160006101000a81548173ffffffffffffffffffffffffffffffffffffffff021916908373ffffffffffffffffffffffffffffffffffffffff16021790555082816001019081613146919061b2fd565b5081816002019081613158919061b2fd565b50505050565b6060600360003373ffffffffffffffffffffffffffffffffffffffff1673ffffffffffffffffffffffffffffffffffffffff16815260200190815260200160002060000160009054906101000a900473ffffffffffffffffffffffffffffffffffffffff1673ffffffffffffffffffffffffffffffffffffffff163373ffffffffffffffffffffffffffffffffffffffff16146131fa57600080fd5b600360003373ffffffffffffffffffffffffffffffffffffffff1673ffffffffffffffffffffffffffffffffffffffff168152602001908152602001600020600601805480602002602001604051908101604052809291908181526020016000905b8282101561365857838290600052602060002090600b020160405180610180016040529081600082015481526020016001820160009054906101000a900473ffffffffffffffffffffffffffffffffffffffff1673ffffffffffffffffffffffffffffffffffffffff1673ffffffffffffffffffffffffffffffffffffffff1681526020016002820160009054906101000a900473ffffffffffffffffffffffffffffffffffffffff1673ffffffffffffffffffffffffffffffffffffffff1673ffffffffffffffffffffffffffffffffffffffff1681526020016003820160009054906101000a900473ffffffffffffffffffffffffffffffffffffffff1673ffffffffffffffffffffffffffffffffffffffff1673ffffffffffffffffffffffffffffffffffffffff16815260200160048201805461339c9061af0f565b80601f01602080910402602001604051908101604052809291908181526020018280546133c89061af0f565b80156134155780601f106133ea57610100808354040283529160200191613415565b820191906000526020600020905b8154815290600101906020018083116133f857829003601f168201915b5050505050815260200160058201805461342e9061af0f565b80601f016020809104026020016040519081016040528092919081815260200182805461345a9061af0f565b80156134a75780601f1061347c576101008083540402835291602001916134a7565b820191906000526020600020905b81548152906001019060200180831161348a57829003601f168201915b5050505050815260200160068201805480602002602001604051908101604052809291908181526020016000905b828210156135ad57838290600052602060002090600302016040518060600160405290816000820180546135089061af0f565b80601f01602080910402602001604051908101604052809291908181526020018280546135349061af0f565b80156135815780601f1061355657610100808354040283529160200191613581565b820191906000526020600020905b81548152906001019060200180831161356457829003601f168201915b5050505050815260200160018201548152602001600282015481525050815260200190600101906134d5565b505050508152602001600782015481526020016008820154815260200160098201548152602001600a820160009054906101000a900460ff1660058111156135f8576135f761a800565b5b600581111561360a5761360961a800565b5b8152602001600a820160019054906101000a900460ff1660048111156136335761363261a800565b5b60048111156136455761364461a800565b5b815250508152602001906001019061325c565b50505050905090565b600360003373ffffffffffffffffffffffffffffffffffffffff1673ffffffffffffffffffffffffffffffffffffffff16815260200190815260200160002060000160009054906101000a900473ffffffffffffffffffffffffffffffffffffffff1673ffffffffffffffffffffffffffffffffffffffff163373ffffffffffffffffffffffffffffffffffffffff16146136fb57600080fd5b60005b600360003373ffffffffffffffffffffffffffffffffffffffff1673ffffffffffffffffffffffffffffffffffffffff16815260200190815260200160002060060180549050811015613a1e578160016000600360003373ffffffffffffffffffffffffffffffffffffffff1673ffffffffffffffffffffffffffffffffffffffff16815260200190815260200160002060060184815481106137a4576137a361adc4565b5b90600052602060002090600b020160010160009054906101000a900473ffffffffffffffffffffffffffffffffffffffff1673ffffffffffffffffffffffffffffffffffffffff1673ffffffffffffffffffffffffffffffffffffffff168152602001908152602001600020600a01600001540361391057600060016000600360003373ffffffffffffffffffffffffffffffffffffffff1673ffffffffffffffffffffffffffffffffffffffff16815260200190815260200160002060060184815481106138765761387561adc4565b5b90600052602060002090600b020160010160009054906101000a900473ffffffffffffffffffffffffffffffffffffffff1673ffffffffffffffffffffffffffffffffffffffff1673ffffffffffffffffffffffffffffffffffffffff168152602001908152602001600020600a01600a0160006101000a81548160ff0219169083600581111561390a5761390961a800565b5b02179055505b81600360003373ffffffffffffffffffffffffffffffffffffffff1673ffffffffffffffffffffffffffffffffffffffff16815260200190815260200160002060060182815481106139655761396461adc4565b5b90600052602060002090600b02016000015403613a0b576000600360003373ffffffffffffffffffffffffffffffffffffffff1673ffffffffffffffffffffffffffffffffffffffff16815260200190815260200160002060060182815481106139d2576139d161adc4565b5b90600052602060002090600b0201600a0160006101000a81548160ff02191690836005811115613a0557613a0461a800565b5b02179055505b8080613a169061ae22565b9150506136fe565b5060005b600580549050811015613b81578160058281548110613a4457613a4361adc4565b5b90600052602060002090600b02016000015403613b6e5760058181548110613a6f57613a6e61adc4565b5b90600052602060002090600b02016000808201600090556001820160006101000a81549073ffffffffffffffffffffffffffffffffffffffff02191690556002820160006101000a81549073ffffffffffffffffffffffffffffffffffffffff02191690556003820160006101000a81549073ffffffffffffffffffffffffffffffffffffffff0219169055600482016000613b0b919061a1d6565b600582016000613b1b919061a1d6565b600682016000613b2b919061a216565b600782016000905560088201600090556009820160009055600a820160006101000a81549060ff0219169055600a820160016101000a81549060ff021916905550505b8080613b799061ae22565b915050613a22565b5060005b600360003373ffffffffffffffffffffffffffffffffffffffff1673ffffffffffffffffffffffffffffffffffffffff16815260200190815260200160002060060180549050811015613da45781600360003373ffffffffffffffffffffffffffffffffffffffff1673ffffffffffffffffffffffffffffffffffffffff1681526020019081526020016000206006018281548110613c2757613c2661adc4565b5b90600052602060002090600b02016000015403613d9157600360003373ffffffffffffffffffffffffffffffffffffffff1673ffffffffffffffffffffffffffffffffffffffff1681526020019081526020016000206006018181548110613c9257613c9161adc4565b5b90600052602060002090600b02016000808201600090556001820160006101000a81549073ffffffffffffffffffffffffffffffffffffffff02191690556002820160006101000a81549073ffffffffffffffffffffffffffffffffffffffff02191690556003820160006101000a81549073ffffffffffffffffffffffffffffffffffffffff0219169055600482016000613d2e919061a1d6565b600582016000613d3e919061a1d6565b600682016000613d4e919061a216565b600782016000905560088201600090556009820160009055600a820160006101000a81549060ff0219169055600a820160016101000a81549060ff021916905550505b8080613d9c9061ae22565b915050613b85565b5050565b600360003373ffffffffffffffffffffffffffffffffffffffff1673ffffffffffffffffffffffffffffffffffffffff16815260200190815260200160002060000160009054906101000a900473ffffffffffffffffffffffffffffffffffffffff1673ffffffffffffffffffffffffffffffffffffffff163373ffffffffffffffffffffffffffffffffffffffff1614613e4257600080fd5b60005b600360003373ffffffffffffffffffffffffffffffffffffffff1673ffffffffffffffffffffffffffffffffffffffff168152602001908152602001600020600601805490508110156144dc5781600360003373ffffffffffffffffffffffffffffffffffffffff1673ffffffffffffffffffffffffffffffffffffffff1681526020019081526020016000206006018281548110613ee757613ee661adc4565b5b90600052602060002090600b020160000154036144c957670de0b6b3a7640000600360003373ffffffffffffffffffffffffffffffffffffffff1673ffffffffffffffffffffffffffffffffffffffff1681526020019081526020016000206006018281548110613f5b57613f5a61adc4565b5b90600052602060002090600b020160080154613f77919061ae9e565b3414613f8257600080fd5b6002600360003373ffffffffffffffffffffffffffffffffffffffff1673ffffffffffffffffffffffffffffffffffffffff1681526020019081526020016000206006018281548110613fd857613fd761adc4565b5b90600052602060002090600b0201600a0160006101000a81548160ff0219169083600581111561400b5761400a61a800565b5b0217905550600260016000600360003373ffffffffffffffffffffffffffffffffffffffff1673ffffffffffffffffffffffffffffffffffffffff168152602001908152602001600020600601848154811061406a5761406961adc4565b5b90600052602060002090600b020160010160009054906101000a900473ffffffffffffffffffffffffffffffffffffffff1673ffffffffffffffffffffffffffffffffffffffff1673ffffffffffffffffffffffffffffffffffffffff168152602001908152602001600020600a01600a0160006101000a81548160ff021916908360058111156140fe576140fd61a800565b5b02179055506001600360003373ffffffffffffffffffffffffffffffffffffffff1673ffffffffffffffffffffffffffffffffffffffff1681526020019081526020016000206003016000828254614156919061ae6a565b9250508190555042600360003373ffffffffffffffffffffffffffffffffffffffff1673ffffffffffffffffffffffffffffffffffffffff1681526020019081526020016000206004015410156141f0576000600360003373ffffffffffffffffffffffffffffffffffffffff1673ffffffffffffffffffffffffffffffffffffffff168152602001908152602001600020600301819055505b60038060003373ffffffffffffffffffffffffffffffffffffffff1673ffffffffffffffffffffffffffffffffffffffff16815260200190815260200160002060030154111561438357600360003373ffffffffffffffffffffffffffffffffffffffff1673ffffffffffffffffffffffffffffffffffffffff168152602001908152602001600020600601818154811061428e5761428d61adc4565b5b90600052602060002090600b020160020160009054906101000a900473ffffffffffffffffffffffffffffffffffffffff1673ffffffffffffffffffffffffffffffffffffffff166108fc670d99a8cec7e20000600360003373ffffffffffffffffffffffffffffffffffffffff1673ffffffffffffffffffffffffffffffffffffffff16815260200190815260200160002060060184815481106143365761433561adc4565b5b90600052602060002090600b020160070154614352919061ae9e565b9081150290604051600060405180830381858888f1935050505015801561437d573d6000803e3d6000fd5b506144c8565b600360003373ffffffffffffffffffffffffffffffffffffffff1673ffffffffffffffffffffffffffffffffffffffff16815260200190815260200160002060060181815481106143d7576143d661adc4565b5b90600052602060002090600b020160020160009054906101000a900473ffffffffffffffffffffffffffffffffffffffff1673ffffffffffffffffffffffffffffffffffffffff166108fc670de0b6b3a7640000600360003373ffffffffffffffffffffffffffffffffffffffff1673ffffffffffffffffffffffffffffffffffffffff168152602001908152602001600020600601848154811061447f5761447e61adc4565b5b90600052602060002090600b02016007015461449b919061ae9e565b9081150290604051600060405180830381858888f193505050501580156144c6573d6000803e3d6000fd5b505b5b80806144d49061ae22565b915050613e45565b5050565b6060600160003373ffffffffffffffffffffffffffffffffffffffff1673ffffffffffffffffffffffffffffffffffffffff16815260200190815260200160002060000160009054906101000a900473ffffffffffffffffffffffffffffffffffffffff1673ffffffffffffffffffffffffffffffffffffffff163373ffffffffffffffffffffffffffffffffffffffff161461457c57600080fd5b600160003373ffffffffffffffffffffffffffffffffffffffff1673ffffffffffffffffffffffffffffffffffffffff168152602001908152602001600020601501805480602002602001604051908101604052809291908181526020016000905b828210156149da57838290600052602060002090600b020160405180610180016040529081600082015481526020016001820160009054906101000a900473ffffffffffffffffffffffffffffffffffffffff1673ffffffffffffffffffffffffffffffffffffffff1673ffffffffffffffffffffffffffffffffffffffff1681526020016002820160009054906101000a900473ffffffffffffffffffffffffffffffffffffffff1673ffffffffffffffffffffffffffffffffffffffff1673ffffffffffffffffffffffffffffffffffffffff1681526020016003820160009054906101000a900473ffffffffffffffffffffffffffffffffffffffff1673ffffffffffffffffffffffffffffffffffffffff1673ffffffffffffffffffffffffffffffffffffffff16815260200160048201805461471e9061af0f565b80601f016020809104026020016040519081016040528092919081815260200182805461474a9061af0f565b80156147975780601f1061476c57610100808354040283529160200191614797565b820191906000526020600020905b81548152906001019060200180831161477a57829003601f168201915b505050505081526020016005820180546147b09061af0f565b80601f01602080910402602001604051908101604052809291908181526020018280546147dc9061af0f565b80156148295780601f106147fe57610100808354040283529160200191614829565b820191906000526020600020905b81548152906001019060200180831161480c57829003601f168201915b5050505050815260200160068201805480602002602001604051908101604052809291908181526020016000905b8282101561492f578382906000526020600020906003020160405180606001604052908160008201805461488a9061af0f565b80601f01602080910402602001604051908101604052809291908181526020018280546148b69061af0f565b80156149035780601f106148d857610100808354040283529160200191614903565b820191906000526020600020905b8154815290600101906020018083116148e657829003601f168201915b505050505081526020016001820154815260200160028201548152505081526020019060010190614857565b505050508152602001600782015481526020016008820154815260200160098201548152602001600a820160009054906101000a900460ff16600581111561497a5761497961a800565b5b600581111561498c5761498b61a800565b5b8152602001600a820160019054906101000a900460ff1660048111156149b5576149b461a800565b5b60048111156149c7576149c661a800565b5b81525050815260200190600101906145de565b50505050905090565b60008054906101000a900473ffffffffffffffffffffffffffffffffffffffff1673ffffffffffffffffffffffffffffffffffffffff163373ffffffffffffffffffffffffffffffffffffffff1614614a3b57600080fd5b3373ffffffffffffffffffffffffffffffffffffffff166108fc670de0b6b3a764000083614a69919061ae9e565b9081150290604051600060405180830381858888f19350505050158015614a94573d6000803e3d6000fd5b5050565b600160003373ffffffffffffffffffffffffffffffffffffffff1673ffffffffffffffffffffffffffffffffffffffff16815260200190815260200160002060000160009054906101000a900473ffffffffffffffffffffffffffffffffffffffff1673ffffffffffffffffffffffffffffffffffffffff163373ffffffffffffffffffffffffffffffffffffffff1614614b3257600080fd5b60016005811115614b4657614b4561a800565b5b600160003373ffffffffffffffffffffffffffffffffffffffff1673ffffffffffffffffffffffffffffffffffffffff168152602001908152602001600020600a01600a0160009054906101000a900460ff166005811115614bab57614baa61a800565b5b148015614c2e575060026004811115614bc757614bc661a800565b5b600160003373ffffffffffffffffffffffffffffffffffffffff1673ffffffffffffffffffffffffffffffffffffffff168152602001908152602001600020600a01600a0160019054906101000a900460ff166004811115614c2c57614c2b61a800565b5b145b614c3757600080fd5b670de0b6b3a7640000600160003373ffffffffffffffffffffffffffffffffffffffff1673ffffffffffffffffffffffffffffffffffffffff168152602001908152602001600020600a0160090154600160003373ffffffffffffffffffffffffffffffffffffffff1673ffffffffffffffffffffffffffffffffffffffff168152602001908152602001600020600a0160080154600160003373ffffffffffffffffffffffffffffffffffffffff1673ffffffffffffffffffffffffffffffffffffffff168152602001908152602001600020600a0160070154614d1c919061ae6a565b614d26919061ae6a565b614d30919061ae9e565b3414614d3b57600080fd5b60005b60036000600160003373ffffffffffffffffffffffffffffffffffffffff1673ffffffffffffffffffffffffffffffffffffffff168152602001908152602001600020600a0160020160009054906101000a900473ffffffffffffffffffffffffffffffffffffffff1673ffffffffffffffffffffffffffffffffffffffff1673ffffffffffffffffffffffffffffffffffffffff1681526020019081526020016000206006018054905081101561500d57600160003373ffffffffffffffffffffffffffffffffffffffff1673ffffffffffffffffffffffffffffffffffffffff168152602001908152602001600020600a016000015460036000600160003373ffffffffffffffffffffffffffffffffffffffff1673ffffffffffffffffffffffffffffffffffffffff168152602001908152602001600020600a0160020160009054906101000a900473ffffffffffffffffffffffffffffffffffffffff1673ffffffffffffffffffffffffffffffffffffffff1673ffffffffffffffffffffffffffffffffffffffff1681526020019081526020016000206006018281548110614eef57614eee61adc4565b5b90600052602060002090600b02016000015403614ffa57600460036000600160003373ffffffffffffffffffffffffffffffffffffffff1673ffffffffffffffffffffffffffffffffffffffff168152602001908152602001600020600a0160020160009054906101000a900473ffffffffffffffffffffffffffffffffffffffff1673ffffffffffffffffffffffffffffffffffffffff1673ffffffffffffffffffffffffffffffffffffffff1681526020019081526020016000206006018281548110614fc157614fc061adc4565b5b90600052602060002090600b0201600a0160016101000a81548160ff02191690836004811115614ff457614ff361a800565b5b02179055505b80806150059061ae22565b915050614d3e565b506005808111156150215761502061a800565b5b600160003373ffffffffffffffffffffffffffffffffffffffff1673ffffffffffffffffffffffffffffffffffffffff168152602001908152602001600020600a01600a0160009054906101000a900460ff1660058111156150865761508561a800565b5b505060005b60046000600160003373ffffffffffffffffffffffffffffffffffffffff1673ffffffffffffffffffffffffffffffffffffffff168152602001908152602001600020600a0160030160009054906101000a900473ffffffffffffffffffffffffffffffffffffffff1673ffffffffffffffffffffffffffffffffffffffff1673ffffffffffffffffffffffffffffffffffffffff1681526020019081526020016000206003018054905081101561535957600160003373ffffffffffffffffffffffffffffffffffffffff1673ffffffffffffffffffffffffffffffffffffffff168152602001908152602001600020600a016000015460046000600160003373ffffffffffffffffffffffffffffffffffffffff1673ffffffffffffffffffffffffffffffffffffffff168152602001908152602001600020600a0160030160009054906101000a900473ffffffffffffffffffffffffffffffffffffffff1673ffffffffffffffffffffffffffffffffffffffff1673ffffffffffffffffffffffffffffffffffffffff168152602001908152602001600020600301828154811061523c5761523b61adc4565b5b90600052602060002090600b02016000015403615346576004806000600160003373ffffffffffffffffffffffffffffffffffffffff1673ffffffffffffffffffffffffffffffffffffffff168152602001908152602001600020600a0160030160009054906101000a900473ffffffffffffffffffffffffffffffffffffffff1673ffffffffffffffffffffffffffffffffffffffff1673ffffffffffffffffffffffffffffffffffffffff168152602001908152602001600020600301828154811061530d5761530c61adc4565b5b90600052602060002090600b0201600a0160016101000a81548160ff021916908360048111156153405761533f61a800565b5b02179055505b80806153519061ae22565b91505061508b565b5060005b60058054905081101561549757600160003373ffffffffffffffffffffffffffffffffffffffff1673ffffffffffffffffffffffffffffffffffffffff168152602001908152602001600020600a0160000154600582815481106153c4576153c361adc4565b5b90600052602060002090600b02016000015403615484576005808111156153ee576153ed61a800565b5b600582815481106154025761540161adc4565b5b90600052602060002090600b0201600a0160009054906101000a900460ff1660058111156154335761543261a800565b5b505060046005828154811061544b5761544a61adc4565b5b90600052602060002090600b0201600a0160016101000a81548160ff0219169083600481111561547e5761547d61a800565b5b02179055505b808061548f9061ae22565b91505061535d565b50565b6060600460003373ffffffffffffffffffffffffffffffffffffffff1673ffffffffffffffffffffffffffffffffffffffff16815260200190815260200160002060000160009054906101000a900473ffffffffffffffffffffffffffffffffffffffff1673ffffffffffffffffffffffffffffffffffffffff163373ffffffffffffffffffffffffffffffffffffffff161461553657600080fd5b600460003373ffffffffffffffffffffffffffffffffffffffff1673ffffffffffffffffffffffffffffffffffffffff168152602001908152602001600020600301805480602002602001604051908101604052809291908181526020016000905b8282101561599457838290600052602060002090600b020160405180610180016040529081600082015481526020016001820160009054906101000a900473ffffffffffffffffffffffffffffffffffffffff1673ffffffffffffffffffffffffffffffffffffffff1673ffffffffffffffffffffffffffffffffffffffff1681526020016002820160009054906101000a900473ffffffffffffffffffffffffffffffffffffffff1673ffffffffffffffffffffffffffffffffffffffff1673ffffffffffffffffffffffffffffffffffffffff1681526020016003820160009054906101000a900473ffffffffffffffffffffffffffffffffffffffff1673ffffffffffffffffffffffffffffffffffffffff1673ffffffffffffffffffffffffffffffffffffffff1681526020016004820180546156d89061af0f565b80601f01602080910402602001604051908101604052809291908181526020018280546157049061af0f565b80156157515780601f1061572657610100808354040283529160200191615751565b820191906000526020600020905b81548152906001019060200180831161573457829003601f168201915b5050505050815260200160058201805461576a9061af0f565b80601f01602080910402602001604051908101604052809291908181526020018280546157969061af0f565b80156157e35780601f106157b8576101008083540402835291602001916157e3565b820191906000526020600020905b8154815290600101906020018083116157c657829003601f168201915b5050505050815260200160068201805480602002602001604051908101604052809291908181526020016000905b828210156158e957838290600052602060002090600302016040518060600160405290816000820180546158449061af0f565b80601f01602080910402602001604051908101604052809291908181526020018280546158709061af0f565b80156158bd5780601f10615892576101008083540402835291602001916158bd565b820191906000526020600020905b8154815290600101906020018083116158a057829003601f168201915b505050505081526020016001820154815260200160028201548152505081526020019060010190615811565b505050508152602001600782015481526020016008820154815260200160098201548152602001600a820160009054906101000a900460ff1660058111156159345761593361a800565b5b60058111156159465761594561a800565b5b8152602001600a820160019054906101000a900460ff16600481111561596f5761596e61a800565b5b60048111156159815761598061a800565b5b8152505081526020019060010190615598565b50505050905090565b600460003373ffffffffffffffffffffffffffffffffffffffff1673ffffffffffffffffffffffffffffffffffffffff16815260200190815260200160002060000160009054906101000a900473ffffffffffffffffffffffffffffffffffffffff1673ffffffffffffffffffffffffffffffffffffffff163373ffffffffffffffffffffffffffffffffffffffff1614615a3757600080fd5b6000600460003373ffffffffffffffffffffffffffffffffffffffff1673ffffffffffffffffffffffffffffffffffffffff1681526020019081526020016000209050338160000160006101000a81548173ffffffffffffffffffffffffffffffffffffffff021916908373ffffffffffffffffffffffffffffffffffffffff16021790555082816001019081615ace919061b2fd565b5081816002019081615ae0919061b2fd565b50505050565b615aee61a23a565b600160003373ffffffffffffffffffffffffffffffffffffffff1673ffffffffffffffffffffffffffffffffffffffff16815260200190815260200160002060000160009054906101000a900473ffffffffffffffffffffffffffffffffffffffff1673ffffffffffffffffffffffffffffffffffffffff163373ffffffffffffffffffffffffffffffffffffffff1614615b8857600080fd5b600160003373ffffffffffffffffffffffffffffffffffffffff1673ffffffffffffffffffffffffffffffffffffffff168152602001908152602001600020600a0160405180610180016040529081600082015481526020016001820160009054906101000a900473ffffffffffffffffffffffffffffffffffffffff1673ffffffffffffffffffffffffffffffffffffffff1673ffffffffffffffffffffffffffffffffffffffff1681526020016002820160009054906101000a900473ffffffffffffffffffffffffffffffffffffffff1673ffffffffffffffffffffffffffffffffffffffff1673ffffffffffffffffffffffffffffffffffffffff1681526020016003820160009054906101000a900473ffffffffffffffffffffffffffffffffffffffff1673ffffffffffffffffffffffffffffffffffffffff1673ffffffffffffffffffffffffffffffffffffffff168152602001600482018054615cf29061af0f565b80601f0160208091040260200160405190810160405280929190818152602001828054615d1e9061af0f565b8015615d6b5780601f10615d4057610100808354040283529160200191615d6b565b820191906000526020600020905b815481529060010190602001808311615d4e57829003601f168201915b50505050508152602001600582018054615d849061af0f565b80601f0160208091040260200160405190810160405280929190818152602001828054615db09061af0f565b8015615dfd5780601f10615dd257610100808354040283529160200191615dfd565b820191906000526020600020905b815481529060010190602001808311615de057829003601f168201915b5050505050815260200160068201805480602002602001604051908101604052809291908181526020016000905b82821015615f035783829060005260206000209060030201604051806060016040529081600082018054615e5e9061af0f565b80601f0160208091040260200160405190810160405280929190818152602001828054615e8a9061af0f565b8015615ed75780601f10615eac57610100808354040283529160200191615ed7565b820191906000526020600020905b815481529060010190602001808311615eba57829003601f168201915b505050505081526020016001820154815260200160028201548152505081526020019060010190615e2b565b505050508152602001600782015481526020016008820154815260200160098201548152602001600a820160009054906101000a900460ff166005811115615f4e57615f4d61a800565b5b6005811115615f6057615f5f61a800565b5b8152602001600a820160019054906101000a900460ff166004811115615f8957615f8861a800565b5b6004811115615f9b57615f9a61a800565b5b81525050905090565b600360003373ffffffffffffffffffffffffffffffffffffffff1673ffffffffffffffffffffffffffffffffffffffff16815260200190815260200160002060000160009054906101000a900473ffffffffffffffffffffffffffffffffffffffff1673ffffffffffffffffffffffffffffffffffffffff163373ffffffffffffffffffffffffffffffffffffffff161461603e57600080fd5b60005b600360003373ffffffffffffffffffffffffffffffffffffffff1673ffffffffffffffffffffffffffffffffffffffff1681526020019081526020016000206006018054905081101561628e5781600360003373ffffffffffffffffffffffffffffffffffffffff1673ffffffffffffffffffffffffffffffffffffffff16815260200190815260200160002060060182815481106160e3576160e261adc4565b5b90600052602060002090600b0201600001540361627b576001806000600360003373ffffffffffffffffffffffffffffffffffffffff1673ffffffffffffffffffffffffffffffffffffffff16815260200190815260200160002060060184815481106161535761615261adc4565b5b90600052602060002090600b020160010160009054906101000a900473ffffffffffffffffffffffffffffffffffffffff1673ffffffffffffffffffffffffffffffffffffffff1673ffffffffffffffffffffffffffffffffffffffff168152602001908152602001600020600a01600a0160006101000a81548160ff021916908360058111156161e7576161e661a800565b5b02179055506001600360003373ffffffffffffffffffffffffffffffffffffffff1673ffffffffffffffffffffffffffffffffffffffff16815260200190815260200160002060060182815481106162425761624161adc4565b5b90600052602060002090600b0201600a0160006101000a81548160ff021916908360058111156162755761627461a800565b5b02179055505b80806162869061ae22565b915050616041565b5050565b600360003373ffffffffffffffffffffffffffffffffffffffff1673ffffffffffffffffffffffffffffffffffffffff16815260200190815260200160002060000160009054906101000a900473ffffffffffffffffffffffffffffffffffffffff1673ffffffffffffffffffffffffffffffffffffffff163373ffffffffffffffffffffffffffffffffffffffff161461632c57600080fd5b60005b60028054905081101561645e573373ffffffffffffffffffffffffffffffffffffffff16600282815481106163675761636661adc4565b5b906000526020600020906004020160000160009054906101000a900473ffffffffffffffffffffffffffffffffffffffff1673ffffffffffffffffffffffffffffffffffffffff160361644b57600281815481106163c8576163c761adc4565b5b90600052602060002090600402016003016040518060600160405280858152602001848152602001600081525090806001815401808255809150506001900390600052602060002090600302016000909190919091506000820151816000019081616433919061b2fd565b50602082015181600101556040820151816002015550505b80806164569061ae22565b91505061632f565b50600360003373ffffffffffffffffffffffffffffffffffffffff1673ffffffffffffffffffffffffffffffffffffffff16815260200190815260200160002060050160405180606001604052808481526020018381526020016000815250908060018154018082558091505060019003906000526020600020906003020160009091909190915060008201518160000190816164fb919061b2fd565b50602082015181600101556040820151816002015550505050565b6000600160003373ffffffffffffffffffffffffffffffffffffffff1673ffffffffffffffffffffffffffffffffffffffff16815260200190815260200160002060000160009054906101000a900473ffffffffffffffffffffffffffffffffffffffff1673ffffffffffffffffffffffffffffffffffffffff163373ffffffffffffffffffffffffffffffffffffffff16146165b257600080fd5b600080600160003373ffffffffffffffffffffffffffffffffffffffff1673ffffffffffffffffffffffffffffffffffffffff168152602001908152602001600020600a0160060180549050905060005b8181101561670757600160003373ffffffffffffffffffffffffffffffffffffffff1673ffffffffffffffffffffffffffffffffffffffff168152602001908152602001600020600a0160060181815481106166625761666161adc4565b5b906000526020600020906003020160020154600160003373ffffffffffffffffffffffffffffffffffffffff1673ffffffffffffffffffffffffffffffffffffffff168152602001908152602001600020600a0160060182815481106166cb576166ca61adc4565b5b9060005260206000209060030201600101546166e7919061ae9e565b836166f2919061ae6a565b925080806166ff9061ae22565b915050616603565b50819250505090565b61671861a301565b600160003373ffffffffffffffffffffffffffffffffffffffff1673ffffffffffffffffffffffffffffffffffffffff16815260200190815260200160002060000160009054906101000a900473ffffffffffffffffffffffffffffffffffffffff1673ffffffffffffffffffffffffffffffffffffffff163373ffffffffffffffffffffffffffffffffffffffff16146167b257600080fd5b600160003373ffffffffffffffffffffffffffffffffffffffff1673ffffffffffffffffffffffffffffffffffffffff1681526020019081526020016000206003016040518060e00160405290816000820160009054906101000a900473ffffffffffffffffffffffffffffffffffffffff1673ffffffffffffffffffffffffffffffffffffffff1673ffffffffffffffffffffffffffffffffffffffff1681526020016001820160009054906101000a900473ffffffffffffffffffffffffffffffffffffffff1673ffffffffffffffffffffffffffffffffffffffff1673ffffffffffffffffffffffffffffffffffffffff1681526020016002820180546168bb9061af0f565b80601f01602080910402602001604051908101604052809291908181526020018280546168e79061af0f565b80156169345780601f1061690957610100808354040283529160200191616934565b820191906000526020600020905b81548152906001019060200180831161691757829003601f168201915b5050505050815260200160038201805461694d9061af0f565b80601f01602080910402602001604051908101604052809291908181526020018280546169799061af0f565b80156169c65780601f1061699b576101008083540402835291602001916169c6565b820191906000526020600020905b8154815290600101906020018083116169a957829003601f168201915b5050505050815260200160048201805480602002602001604051908101604052809291908181526020016000905b82821015616acc5783829060005260206000209060030201604051806060016040529081600082018054616a279061af0f565b80601f0160208091040260200160405190810160405280929190818152602001828054616a539061af0f565b8015616aa05780601f10616a7557610100808354040283529160200191616aa0565b820191906000526020600020905b815481529060010190602001808311616a8357829003601f168201915b5050505050815260200160018201548152602001600282015481525050815260200190600101906169f4565b50505050815260200160058201548152602001600682015481525050905090565b600160003373ffffffffffffffffffffffffffffffffffffffff1673ffffffffffffffffffffffffffffffffffffffff16815260200190815260200160002060000160009054906101000a900473ffffffffffffffffffffffffffffffffffffffff1673ffffffffffffffffffffffffffffffffffffffff163373ffffffffffffffffffffffffffffffffffffffff1614616b8757600080fd5b60066000815480929190616b9a9061ae22565b91905055506000600160003373ffffffffffffffffffffffffffffffffffffffff1673ffffffffffffffffffffffffffffffffffffffff168152602001908152602001600020600a0190506006548160000181905550338160010160006101000a81548173ffffffffffffffffffffffffffffffffffffffff021916908373ffffffffffffffffffffffffffffffffffffffff160217905550600160003373ffffffffffffffffffffffffffffffffffffffff1673ffffffffffffffffffffffffffffffffffffffff16815260200190815260200160002060030160010160009054906101000a900473ffffffffffffffffffffffffffffffffffffffff168160020160006101000a81548173ffffffffffffffffffffffffffffffffffffffff021916908373ffffffffffffffffffffffffffffffffffffffff160217905550600160003373ffffffffffffffffffffffffffffffffffffffff1673ffffffffffffffffffffffffffffffffffffffff168152602001908152602001600020600301600201816004019081616d30919061b117565b50600160003373ffffffffffffffffffffffffffffffffffffffff1673ffffffffffffffffffffffffffffffffffffffff168152602001908152602001600020600301600301816005019081616d86919061b117565b5060005b600160003373ffffffffffffffffffffffffffffffffffffffff1673ffffffffffffffffffffffffffffffffffffffff16815260200190815260200160002060030160040180549050811015616eaa5781600601600160003373ffffffffffffffffffffffffffffffffffffffff1673ffffffffffffffffffffffffffffffffffffffff1681526020019081526020016000206003016004018281548110616e3557616e3461adc4565b5b9060005260206000209060030201908060018154018082558091505060019003906000526020600020906003020160009091909190915060008201816000019081616e80919061b215565b50600182015481600101556002820154816002015550508080616ea29061ae22565b915050616d8a565b50616eb3618453565b816007018190555060008160080181905550818160090181905550600481600a0160006101000a81548160ff02191690836005811115616ef657616ef561a800565b5b0217905550600081600a0160016101000a81548160ff02191690836004811115616f2357616f2261a800565b5b0217905550600060036000600160003373ffffffffffffffffffffffffffffffffffffffff1673ffffffffffffffffffffffffffffffffffffffff16815260200190815260200160002060030160010160009054906101000a900473ffffffffffffffffffffffffffffffffffffffff1673ffffffffffffffffffffffffffffffffffffffff1673ffffffffffffffffffffffffffffffffffffffff1681526020019081526020016000206006016001816001815401808255809150500390600052602060002090600b02019050600160003373ffffffffffffffffffffffffffffffffffffffff1673ffffffffffffffffffffffffffffffffffffffff168152602001908152602001600020600a01600001548160000181905550338160010160006101000a81548173ffffffffffffffffffffffffffffffffffffffff021916908373ffffffffffffffffffffffffffffffffffffffff160217905550600160003373ffffffffffffffffffffffffffffffffffffffff1673ffffffffffffffffffffffffffffffffffffffff168152602001908152602001600020600a0160020160009054906101000a900473ffffffffffffffffffffffffffffffffffffffff168160020160006101000a81548173ffffffffffffffffffffffffffffffffffffffff021916908373ffffffffffffffffffffffffffffffffffffffff160217905550600160003373ffffffffffffffffffffffffffffffffffffffff1673ffffffffffffffffffffffffffffffffffffffff168152602001908152602001600020600a0160040181600401908161717f919061b117565b50600160003373ffffffffffffffffffffffffffffffffffffffff1673ffffffffffffffffffffffffffffffffffffffff168152602001908152602001600020600a016005018160050190816171d5919061b117565b5060005b600160003373ffffffffffffffffffffffffffffffffffffffff1673ffffffffffffffffffffffffffffffffffffffff168152602001908152602001600020600a01600601805490508110156172f95781600601600160003373ffffffffffffffffffffffffffffffffffffffff1673ffffffffffffffffffffffffffffffffffffffff168152602001908152602001600020600a0160060182815481106172845761728361adc4565b5b90600052602060002090600302019080600181540180825580915050600190039060005260206000209060030201600090919091909150600082018160000190816172cf919061b215565b506001820154816001015560028201548160020155505080806172f19061ae22565b9150506171d9565b50617302618453565b816007018190555060008160080181905550828160090181905550600481600a0160006101000a81548160ff021916908360058111156173455761734461a800565b5b0217905550600081600a0160016101000a81548160ff021916908360048111156173725761737161a800565b5b0217905550600060056001816001815401808255809150500390600052602060002090600b02019050600160003373ffffffffffffffffffffffffffffffffffffffff1673ffffffffffffffffffffffffffffffffffffffff168152602001908152602001600020600a01600001548160000181905550338160010160006101000a81548173ffffffffffffffffffffffffffffffffffffffff021916908373ffffffffffffffffffffffffffffffffffffffff160217905550600160003373ffffffffffffffffffffffffffffffffffffffff1673ffffffffffffffffffffffffffffffffffffffff168152602001908152602001600020600a0160020160009054906101000a900473ffffffffffffffffffffffffffffffffffffffff168160020160006101000a81548173ffffffffffffffffffffffffffffffffffffffff021916908373ffffffffffffffffffffffffffffffffffffffff160217905550600160003373ffffffffffffffffffffffffffffffffffffffff1673ffffffffffffffffffffffffffffffffffffffff168152602001908152602001600020600a01600401816004019081617529919061b117565b50600160003373ffffffffffffffffffffffffffffffffffffffff1673ffffffffffffffffffffffffffffffffffffffff168152602001908152602001600020600a0160050181600501908161757f919061b117565b5060005b600160003373ffffffffffffffffffffffffffffffffffffffff1673ffffffffffffffffffffffffffffffffffffffff168152602001908152602001600020600a01600601805490508110156176a35781600601600160003373ffffffffffffffffffffffffffffffffffffffff1673ffffffffffffffffffffffffffffffffffffffff168152602001908152602001600020600a01600601828154811061762e5761762d61adc4565b5b9060005260206000209060030201908060018154018082558091505060019003906000526020600020906003020160009091909190915060008201816000019081617679919061b215565b5060018201548160010155600282015481600201555050808061769b9061ae22565b915050617583565b506176ac618453565b816007018190555060008160080181905550838160090181905550600481600a0160006101000a81548160ff021916908360058111156176ef576176ee61a800565b5b0217905550600081600a0160016101000a81548160ff0219169083600481111561771c5761771b61a800565b5b021790555050505050565b60008054906101000a900473ffffffffffffffffffffffffffffffffffffffff1681565b60065481565b600460003373ffffffffffffffffffffffffffffffffffffffff1673ffffffffffffffffffffffffffffffffffffffff16815260200190815260200160002060000160009054906101000a900473ffffffffffffffffffffffffffffffffffffffff1673ffffffffffffffffffffffffffffffffffffffff163373ffffffffffffffffffffffffffffffffffffffff16146177eb57600080fd5b60005b600580549050811015617bac5781600582815481106178105761780f61adc4565b5b90600052602060002090600b02016000015403617b99573360016000600584815481106178405761783f61adc4565b5b90600052602060002090600b020160010160009054906101000a900473ffffffffffffffffffffffffffffffffffffffff1673ffffffffffffffffffffffffffffffffffffffff1673ffffffffffffffffffffffffffffffffffffffff168152602001908152602001600020600a0160030160006101000a81548173ffffffffffffffffffffffffffffffffffffffff021916908373ffffffffffffffffffffffffffffffffffffffff16021790555060005b600360006005848154811061790b5761790a61adc4565b5b90600052602060002090600b020160020160009054906101000a900473ffffffffffffffffffffffffffffffffffffffff1673ffffffffffffffffffffffffffffffffffffffff1673ffffffffffffffffffffffffffffffffffffffff16815260200190815260200160002060060180549050811015617b335782600360006005858154811061799e5761799d61adc4565b5b90600052602060002090600b020160020160009054906101000a900473ffffffffffffffffffffffffffffffffffffffff1673ffffffffffffffffffffffffffffffffffffffff1673ffffffffffffffffffffffffffffffffffffffff1681526020019081526020016000206006018281548110617a1f57617a1e61adc4565b5b90600052602060002090600b02016000015403617b2057336003600060058581548110617a4f57617a4e61adc4565b5b90600052602060002090600b020160020160009054906101000a900473ffffffffffffffffffffffffffffffffffffffff1673ffffffffffffffffffffffffffffffffffffffff1673ffffffffffffffffffffffffffffffffffffffff1681526020019081526020016000206006018281548110617ad057617acf61adc4565b5b90600052602060002090600b020160030160006101000a81548173ffffffffffffffffffffffffffffffffffffffff021916908373ffffffffffffffffffffffffffffffffffffffff1602179055505b8080617b2b9061ae22565b9150506178f3565b503360058281548110617b4957617b4861adc4565b5b90600052602060002090600b020160030160006101000a81548173ffffffffffffffffffffffffffffffffffffffff021916908373ffffffffffffffffffffffffffffffffffffffff1602179055505b8080617ba49061ae22565b9150506177ee565b5060005b60058054905081101561844f578160058281548110617bd257617bd161adc4565b5b90600052602060002090600b0201600001540361843c576000600460003373ffffffffffffffffffffffffffffffffffffffff1673ffffffffffffffffffffffffffffffffffffffff1681526020019081526020016000206003016001816001815401808255809150500390600052602060002090600b0201905060058281548110617c6157617c6061adc4565b5b90600052602060002090600b020160000154816000018190555060058281548110617c8f57617c8e61adc4565b5b90600052602060002090600b020160010160009054906101000a900473ffffffffffffffffffffffffffffffffffffffff168160010160006101000a81548173ffffffffffffffffffffffffffffffffffffffff021916908373ffffffffffffffffffffffffffffffffffffffff16021790555060058281548110617d1757617d1661adc4565b5b90600052602060002090600b020160020160009054906101000a900473ffffffffffffffffffffffffffffffffffffffff168160020160006101000a81548173ffffffffffffffffffffffffffffffffffffffff021916908373ffffffffffffffffffffffffffffffffffffffff16021790555060058281548110617d9f57617d9e61adc4565b5b90600052602060002090600b020160030160009054906101000a900473ffffffffffffffffffffffffffffffffffffffff168160030160006101000a81548173ffffffffffffffffffffffffffffffffffffffff021916908373ffffffffffffffffffffffffffffffffffffffff16021790555060058281548110617e2757617e2661adc4565b5b90600052602060002090600b0201600401816004019081617e48919061b117565b5060058281548110617e5d57617e5c61adc4565b5b90600052602060002090600b0201600501816005019081617e7e919061b117565b5060005b6001600060058581548110617e9a57617e9961adc4565b5b90600052602060002090600b020160010160009054906101000a900473ffffffffffffffffffffffffffffffffffffffff1673ffffffffffffffffffffffffffffffffffffffff1673ffffffffffffffffffffffffffffffffffffffff168152602001908152602001600020600a016006018054905081101561802c57816006016001600060058681548110617f3357617f3261adc4565b5b90600052602060002090600b020160010160009054906101000a900473ffffffffffffffffffffffffffffffffffffffff1673ffffffffffffffffffffffffffffffffffffffff1673ffffffffffffffffffffffffffffffffffffffff168152602001908152602001600020600a016006018281548110617fb757617fb661adc4565b5b9060005260206000209060030201908060018154018082558091505060019003906000526020600020906003020160009091909190915060008201816000019081618002919061b215565b506001820154816001015560028201548160020155505080806180249061ae22565b915050617e82565b50600582815481106180415761804061adc4565b5b90600052602060002090600b02016007015481600701819055506005828154811061806f5761806e61adc4565b5b90600052602060002090600b02016008015481600801819055506005828154811061809d5761809c61adc4565b5b90600052602060002090600b0201600901548160090181905550600582815481106180cb576180ca61adc4565b5b90600052602060002090600b0201600a0160009054906101000a900460ff1681600a0160006101000a81548160ff021916908360058111156181105761810f61a800565b5b0217905550600281600a0160016101000a81548160ff0219169083600481111561813d5761813c61a800565b5b02179055506003600583815481106181585761815761adc4565b5b90600052602060002090600b0201600a0160006101000a81548160ff0219169083600581111561818b5761818a61a800565b5b02179055506002600583815481106181a6576181a561adc4565b5b90600052602060002090600b0201600a0160016101000a81548160ff021916908360048111156181d9576181d861a800565b5b0217905550600260016000600585815481106181f8576181f761adc4565b5b90600052602060002090600b020160010160009054906101000a900473ffffffffffffffffffffffffffffffffffffffff1673ffffffffffffffffffffffffffffffffffffffff1673ffffffffffffffffffffffffffffffffffffffff168152602001908152602001600020600a01600a0160016101000a81548160ff0219169083600481111561828c5761828b61a800565b5b021790555060005b600580549050811015618439578360036000600586815481106182ba576182b961adc4565b5b90600052602060002090600b020160020160009054906101000a900473ffffffffffffffffffffffffffffffffffffffff1673ffffffffffffffffffffffffffffffffffffffff1673ffffffffffffffffffffffffffffffffffffffff168152602001908152602001600020600601828154811061833b5761833a61adc4565b5b90600052602060002090600b02016000015403618426576002600360006005868154811061836c5761836b61adc4565b5b90600052602060002090600b020160020160009054906101000a900473ffffffffffffffffffffffffffffffffffffffff1673ffffffffffffffffffffffffffffffffffffffff1673ffffffffffffffffffffffffffffffffffffffff16815260200190815260200160002060060182815481106183ed576183ec61adc4565b5b90600052602060002090600b0201600a0160016101000a81548160ff021916908360048111156184205761841f61a800565b5b02179055505b80806184319061ae22565b915050618294565b50505b80806184479061ae22565b915050617bb0565b5050565b6000600160003373ffffffffffffffffffffffffffffffffffffffff1673ffffffffffffffffffffffffffffffffffffffff16815260200190815260200160002060000160009054906101000a900473ffffffffffffffffffffffffffffffffffffffff1673ffffffffffffffffffffffffffffffffffffffff163373ffffffffffffffffffffffffffffffffffffffff16146184ef57600080fd5b600080600160003373ffffffffffffffffffffffffffffffffffffffff1673ffffffffffffffffffffffffffffffffffffffff16815260200190815260200160002060030160040180549050905060005b8181101561864457600160003373ffffffffffffffffffffffffffffffffffffffff1673ffffffffffffffffffffffffffffffffffffffff168152602001908152602001600020600301600401818154811061859f5761859e61adc4565b5b906000526020600020906003020160020154600160003373ffffffffffffffffffffffffffffffffffffffff1673ffffffffffffffffffffffffffffffffffffffff16815260200190815260200160002060030160040182815481106186085761860761adc4565b5b906000526020600020906003020160010154618624919061ae9e565b8361862f919061ae6a565b9250808061863c9061ae22565b915050618540565b50819250505090565b60606005805480602002602001604051908101604052809291908181526020016000905b82821015618a6d57838290600052602060002090600b020160405180610180016040529081600082015481526020016001820160009054906101000a900473ffffffffffffffffffffffffffffffffffffffff1673ffffffffffffffffffffffffffffffffffffffff1673ffffffffffffffffffffffffffffffffffffffff1681526020016002820160009054906101000a900473ffffffffffffffffffffffffffffffffffffffff1673ffffffffffffffffffffffffffffffffffffffff1673ffffffffffffffffffffffffffffffffffffffff1681526020016003820160009054906101000a900473ffffffffffffffffffffffffffffffffffffffff1673ffffffffffffffffffffffffffffffffffffffff1673ffffffffffffffffffffffffffffffffffffffff1681526020016004820180546187b19061af0f565b80601f01602080910402602001604051908101604052809291908181526020018280546187dd9061af0f565b801561882a5780601f106187ff5761010080835404028352916020019161882a565b820191906000526020600020905b81548152906001019060200180831161880d57829003601f168201915b505050505081526020016005820180546188439061af0f565b80601f016020809104026020016040519081016040528092919081815260200182805461886f9061af0f565b80156188bc5780601f10618891576101008083540402835291602001916188bc565b820191906000526020600020905b81548152906001019060200180831161889f57829003601f168201915b5050505050815260200160068201805480602002602001604051908101604052809291908181526020016000905b828210156189c2578382906000526020600020906003020160405180606001604052908160008201805461891d9061af0f565b80601f01602080910402602001604051908101604052809291908181526020018280546189499061af0f565b80156189965780601f1061896b57610100808354040283529160200191618996565b820191906000526020600020905b81548152906001019060200180831161897957829003601f168201915b5050505050815260200160018201548152602001600282015481525050815260200190600101906188ea565b505050508152602001600782015481526020016008820154815260200160098201548152602001600a820160009054906101000a900460ff166005811115618a0d57618a0c61a800565b5b6005811115618a1f57618a1e61a800565b5b8152602001600a820160019054906101000a900460ff166004811115618a4857618a4761a800565b5b6004811115618a5a57618a5961a800565b5b8152505081526020019060010190618671565b50505050905090565b600460003373ffffffffffffffffffffffffffffffffffffffff1673ffffffffffffffffffffffffffffffffffffffff16815260200190815260200160002060000160009054906101000a900473ffffffffffffffffffffffffffffffffffffffff1673ffffffffffffffffffffffffffffffffffffffff163373ffffffffffffffffffffffffffffffffffffffff1614618b1057600080fd5b60005b600460003373ffffffffffffffffffffffffffffffffffffffff1673ffffffffffffffffffffffffffffffffffffffff1681526020019081526020016000206003018054905081101561918b5781600460003373ffffffffffffffffffffffffffffffffffffffff1673ffffffffffffffffffffffffffffffffffffffff1681526020019081526020016000206003018281548110618bb557618bb461adc4565b5b90600052602060002090600b0201600001540361917857600480811115618bdf57618bde61a800565b5b600460003373ffffffffffffffffffffffffffffffffffffffff1673ffffffffffffffffffffffffffffffffffffffff1681526020019081526020016000206003018281548110618c3357618c3261adc4565b5b90600052602060002090600b0201600a0160019054906101000a900460ff166004811115618c6457618c6361a800565b5b03619177576001600460003373ffffffffffffffffffffffffffffffffffffffff1673ffffffffffffffffffffffffffffffffffffffff1681526020019081526020016000206003018281548110618cbf57618cbe61adc4565b5b90600052602060002090600b0201600a0160016101000a81548160ff02191690836004811115618cf257618cf161a800565b5b021790555060005b600580549050811015618d95578260058281548110618d1c57618d1b61adc4565b5b90600052602060002090600b02016000015403618d8257600160058281548110618d4957618d4861adc4565b5b90600052602060002090600b0201600a0160016101000a81548160ff02191690836004811115618d7c57618d7b61a800565b5b02179055505b8080618d8d9061ae22565b915050618cfa565b506001806000600460003373ffffffffffffffffffffffffffffffffffffffff1673ffffffffffffffffffffffffffffffffffffffff1681526020019081526020016000206003018481548110618def57618dee61adc4565b5b90600052602060002090600b020160010160009054906101000a900473ffffffffffffffffffffffffffffffffffffffff1673ffffffffffffffffffffffffffffffffffffffff1673ffffffffffffffffffffffffffffffffffffffff168152602001908152602001600020600a01600a0160016101000a81548160ff02191690836004811115618e8357618e8261a800565b5b021790555060005b60036000600460003373ffffffffffffffffffffffffffffffffffffffff1673ffffffffffffffffffffffffffffffffffffffff1681526020019081526020016000206003018481548110618ee357618ee261adc4565b5b90600052602060002090600b020160020160009054906101000a900473ffffffffffffffffffffffffffffffffffffffff1673ffffffffffffffffffffffffffffffffffffffff1673ffffffffffffffffffffffffffffffffffffffff16815260200190815260200160002060060180549050811015619175578260036000600460003373ffffffffffffffffffffffffffffffffffffffff1673ffffffffffffffffffffffffffffffffffffffff1681526020019081526020016000206003018581548110618fb657618fb561adc4565b5b90600052602060002090600b020160020160009054906101000a900473ffffffffffffffffffffffffffffffffffffffff1673ffffffffffffffffffffffffffffffffffffffff1673ffffffffffffffffffffffffffffffffffffffff16815260200190815260200160002060060182815481106190375761903661adc4565b5b90600052602060002090600b0201600001540361916257600160036000600460003373ffffffffffffffffffffffffffffffffffffffff1673ffffffffffffffffffffffffffffffffffffffff16815260200190815260200160002060030185815481106190a8576190a761adc4565b5b90600052602060002090600b020160020160009054906101000a900473ffffffffffffffffffffffffffffffffffffffff1673ffffffffffffffffffffffffffffffffffffffff1673ffffffffffffffffffffffffffffffffffffffff16815260200190815260200160002060060182815481106191295761912861adc4565b5b90600052602060002090600b0201600a0160016101000a81548160ff0219169083600481111561915c5761915b61a800565b5b02179055505b808061916d9061ae22565b915050618e8b565b505b5b80806191839061ae22565b915050618b13565b5050565b600160003373ffffffffffffffffffffffffffffffffffffffff1673ffffffffffffffffffffffffffffffffffffffff16815260200190815260200160002060000160009054906101000a900473ffffffffffffffffffffffffffffffffffffffff1673ffffffffffffffffffffffffffffffffffffffff163373ffffffffffffffffffffffffffffffffffffffff161461922957600080fd5b6000600160003373ffffffffffffffffffffffffffffffffffffffff1673ffffffffffffffffffffffffffffffffffffffff16815260200190815260200160002060030160040180549050036198bd5733600160003373ffffffffffffffffffffffffffffffffffffffff1673ffffffffffffffffffffffffffffffffffffffff16815260200190815260200160002060030160000160006101000a81548173ffffffffffffffffffffffffffffffffffffffff021916908373ffffffffffffffffffffffffffffffffffffffff160217905550600160003373ffffffffffffffffffffffffffffffffffffffff1673ffffffffffffffffffffffffffffffffffffffff168152602001908152602001600020600201600160003373ffffffffffffffffffffffffffffffffffffffff1673ffffffffffffffffffffffffffffffffffffffff1681526020019081526020016000206003016002019081619390919061b117565b5060005b60028054905081101561981b57836040516020016193b2919061b43a565b60405160208183030381529060405280519060200120600282815481106193dc576193db61adc4565b5b90600052602060002090600402016001016040516020016193fd919061b4d4565b6040516020818303038152906040528051906020012003619808576002818154811061942c5761942b61adc4565b5b906000526020600020906004020160000160009054906101000a900473ffffffffffffffffffffffffffffffffffffffff16600160003373ffffffffffffffffffffffffffffffffffffffff1673ffffffffffffffffffffffffffffffffffffffff16815260200190815260200160002060030160010160006101000a81548173ffffffffffffffffffffffffffffffffffffffff021916908373ffffffffffffffffffffffffffffffffffffffff160217905550600281815481106194f5576194f461adc4565b5b9060005260206000209060040201600201600160003373ffffffffffffffffffffffffffffffffffffffff1673ffffffffffffffffffffffffffffffffffffffff1681526020019081526020016000206003016003019081619557919061b117565b5060005b6002828154811061956f5761956e61adc4565b5b906000526020600020906004020160030180549050811015619806578360405160200161959c919061b43a565b60405160208183030381529060405280519060200120600283815481106195c6576195c561adc4565b5b906000526020600020906004020160030182815481106195e9576195e861adc4565b5b906000526020600020906003020160000160405160200161960a919061b4d4565b60405160208183030381529060405280519060200120036197f357600160003373ffffffffffffffffffffffffffffffffffffffff1673ffffffffffffffffffffffffffffffffffffffff1681526020019081526020016000206003016004016040518060600160405280600285815481106196895761968861adc4565b5b906000526020600020906004020160030184815481106196ac576196ab61adc4565b5b906000526020600020906003020160000180546196c89061af0f565b80601f01602080910402602001604051908101604052809291908181526020018280546196f49061af0f565b80156197415780601f1061971657610100808354040283529160200191619741565b820191906000526020600020905b81548152906001019060200180831161972457829003601f168201915b505050505081526020016002858154811061975f5761975e61adc4565b5b906000526020600020906004020160030184815481106197825761978161adc4565b5b906000526020600020906003020160010154815260200185815250908060018154018082558091505060019003906000526020600020906003020160009091909190915060008201518160000190816197db919061b2fd565b50602082015181600101556040820151816002015550505b80806197fe9061ae22565b91505061955b565b505b80806198139061ae22565b915050619394565b50619824618453565b600160003373ffffffffffffffffffffffffffffffffffffffff1673ffffffffffffffffffffffffffffffffffffffff168152602001908152602001600020600301600501819055506000600160003373ffffffffffffffffffffffffffffffffffffffff1673ffffffffffffffffffffffffffffffffffffffff16815260200190815260200160002060030160060181905550619fdb565b60005b600280549050811015619fd957600281815481106198e1576198e061adc4565b5b906000526020600020906004020160000160009054906101000a900473ffffffffffffffffffffffffffffffffffffffff1673ffffffffffffffffffffffffffffffffffffffff16600160003373ffffffffffffffffffffffffffffffffffffffff1673ffffffffffffffffffffffffffffffffffffffff16815260200190815260200160002060030160010160009054906101000a900473ffffffffffffffffffffffffffffffffffffffff1673ffffffffffffffffffffffffffffffffffffffff1603619fc657836040516020016199bb919061b43a565b60405160208183030381529060405280519060200120600282815481106199e5576199e461adc4565b5b9060005260206000209060040201600101604051602001619a06919061b4d4565b6040516020818303038152906040528051906020012003619fc55733600160003373ffffffffffffffffffffffffffffffffffffffff1673ffffffffffffffffffffffffffffffffffffffff16815260200190815260200160002060030160000160006101000a81548173ffffffffffffffffffffffffffffffffffffffff021916908373ffffffffffffffffffffffffffffffffffffffff160217905550600160003373ffffffffffffffffffffffffffffffffffffffff1673ffffffffffffffffffffffffffffffffffffffff168152602001908152602001600020600201600160003373ffffffffffffffffffffffffffffffffffffffff1673ffffffffffffffffffffffffffffffffffffffff1681526020019081526020016000206003016002019081619b38919061b117565b5060005b600280549050811015619fc35784604051602001619b5a919061b43a565b6040516020818303038152906040528051906020012060028281548110619b8457619b8361adc4565b5b9060005260206000209060040201600101604051602001619ba5919061b4d4565b6040516020818303038152906040528051906020012003619fb05760028181548110619bd457619bd361adc4565b5b906000526020600020906004020160000160009054906101000a900473ffffffffffffffffffffffffffffffffffffffff16600160003373ffffffffffffffffffffffffffffffffffffffff1673ffffffffffffffffffffffffffffffffffffffff16815260200190815260200160002060030160010160006101000a81548173ffffffffffffffffffffffffffffffffffffffff021916908373ffffffffffffffffffffffffffffffffffffffff16021790555060028181548110619c9d57619c9c61adc4565b5b9060005260206000209060040201600201600160003373ffffffffffffffffffffffffffffffffffffffff1673ffffffffffffffffffffffffffffffffffffffff1681526020019081526020016000206003016003019081619cff919061b117565b5060005b60028281548110619d1757619d1661adc4565b5b906000526020600020906004020160030180549050811015619fae5784604051602001619d44919061b43a565b6040516020818303038152906040528051906020012060028381548110619d6e57619d6d61adc4565b5b90600052602060002090600402016003018281548110619d9157619d9061adc4565b5b9060005260206000209060030201600001604051602001619db2919061b4d4565b6040516020818303038152906040528051906020012003619f9b57600160003373ffffffffffffffffffffffffffffffffffffffff1673ffffffffffffffffffffffffffffffffffffffff168152602001908152602001600020600301600401604051806060016040528060028581548110619e3157619e3061adc4565b5b90600052602060002090600402016003018481548110619e5457619e5361adc4565b5b90600052602060002090600302016000018054619e709061af0f565b80601f0160208091040260200160405190810160405280929190818152602001828054619e9c9061af0f565b8015619ee95780601f10619ebe57610100808354040283529160200191619ee9565b820191906000526020600020905b815481529060010190602001808311619ecc57829003601f168201915b5050505050815260200160028581548110619f0757619f0661adc4565b5b90600052602060002090600402016003018481548110619f2a57619f2961adc4565b5b90600052602060002090600302016001015481526020018681525090806001815401808255809150506001900390600052602060002090600302016000909190919091506000820151816000019081619f83919061b2fd565b50602082015181600101556040820151816002015550505b8080619fa69061ae22565b915050619d03565b505b8080619fbb9061ae22565b915050619b3c565b505b5b8080619fd19061ae22565b9150506198c0565b505b505050565b600360003373ffffffffffffffffffffffffffffffffffffffff1673ffffffffffffffffffffffffffffffffffffffff16815260200190815260200160002060000160009054906101000a900473ffffffffffffffffffffffffffffffffffffffff1673ffffffffffffffffffffffffffffffffffffffff163373ffffffffffffffffffffffffffffffffffffffff161461a07a57600080fd5b600060026001816001815401808255809150500390600052602060002090600402019050338160000160006101000a81548173ffffffffffffffffffffffffffffffffffffffff021916908373ffffffffffffffffffffffffffffffffffffffff1602179055508281600101908161a0f2919061b2fd565b508181600201908161a104919061b2fd565b506000600360003373ffffffffffffffffffffffffffffffffffffffff1673ffffffffffffffffffffffffffffffffffffffff1681526020019081526020016000209050338160000160006101000a81548173ffffffffffffffffffffffffffffffffffffffff021916908373ffffffffffffffffffffffffffffffffffffffff1602179055508381600101908161a19c919061b2fd565b508281600201908161a1ae919061b2fd565b506000816003018190555062278d004261a1c8919061ae6a565b816004018190555050505050565b50805461a1e29061af0f565b6000825580601f1061a1f4575061a213565b601f01602090049060005260206000209081019061a212919061a36a565b5b50565b508054600082556003029060005260206000209081019061a237919061a387565b50565b60405180610180016040528060008152602001600073ffffffffffffffffffffffffffffffffffffffff168152602001600073ffffffffffffffffffffffffffffffffffffffff168152602001600073ffffffffffffffffffffffffffffffffffffffff1681526020016060815260200160608152602001606081526020016000815260200160008152602001600081526020016000600581111561a2e25761a2e161a800565b5b81526020016000600481111561a2fb5761a2fa61a800565b5b81525090565b6040518060e00160405280600073ffffffffffffffffffffffffffffffffffffffff168152602001600073ffffffffffffffffffffffffffffffffffffffff16815260200160608152602001606081526020016060815260200160008152602001600081525090565b5b8082111561a38357600081600090555060010161a36b565b5090565b5b8082111561a3ba576000808201600061a3a1919061a1d6565b600182016000905560028201600090555060030161a388565b5090565b6000604051905090565b600080fd5b600080fd5b6000819050919050565b61a3e58161a3d2565b811461a3f057600080fd5b50565b60008135905061a4028161a3dc565b92915050565b60006020828403121561a41e5761a41d61a3c8565b5b600061a42c8482850161a3f3565b91505092915050565b600080fd5b600080fd5b6000601f19601f8301169050919050565b7f4e487b7100000000000000000000000000000000000000000000000000000000600052604160045260246000fd5b61a4888261a43f565b810181811067ffffffffffffffff8211171561a4a75761a4a661a450565b5b80604052505050565b600061a4ba61a3be565b905061a4c6828261a47f565b919050565b600067ffffffffffffffff82111561a4e65761a4e561a450565b5b61a4ef8261a43f565b9050602081019050919050565b82818337600083830152505050565b600061a51e61a5198461a4cb565b61a4b0565b90508281526020810184848401111561a53a5761a53961a43a565b5b61a54584828561a4fc565b509392505050565b600082601f83011261a5625761a56161a435565b5b813561a57284826020860161a50b565b91505092915050565b6000806040838503121561a5925761a59161a3c8565b5b600083013567ffffffffffffffff81111561a5b05761a5af61a3cd565b5b61a5bc8582860161a54d565b925050602083013567ffffffffffffffff81111561a5dd5761a5dc61a3cd565b5b61a5e98582860161a54d565b9150509250929050565b600081519050919050565b600082825260208201905092915050565b6000819050602082019050919050565b61a6288161a3d2565b82525050565b600073ffffffffffffffffffffffffffffffffffffffff82169050919050565b600061a6598261a62e565b9050919050565b61a6698161a64e565b82525050565b600081519050919050565b600082825260208201905092915050565b60005b8381101561a6a957808201518184015260208101905061a68e565b60008484015250505050565b600061a6c08261a66f565b61a6ca818561a67a565b935061a6da81856020860161a68b565b61a6e38161a43f565b840191505092915050565b600081519050919050565b600082825260208201905092915050565b6000819050602082019050919050565b6000606083016000830151848203600086015261a737828261a6b5565b915050602083015161a74c602086018261a61f565b50604083015161a75f604086018261a61f565b508091505092915050565b600061a776838361a71a565b905092915050565b6000602082019050919050565b600061a7968261a6ee565b61a7a0818561a6f9565b93508360208202850161a7b28561a70a565b8060005b8581101561a7ee578484038952815161a7cf858261a76a565b945061a7da8361a77e565b925060208a0199505060018101905061a7b6565b50829750879550505050505092915050565b7f4e487b7100000000000000000000000000000000000000000000000000000000600052602160045260246000fd5b6006811061a8405761a83f61a800565b5b50565b600081905061a8518261a82f565b919050565b600061a8618261a843565b9050919050565b61a8718161a856565b82525050565b6005811061a8885761a88761a800565b5b50565b600081905061a8998261a877565b919050565b600061a8a98261a88b565b9050919050565b61a8b98161a89e565b82525050565b60006101808301600083015161a8d8600086018261a61f565b50602083015161a8eb602086018261a660565b50604083015161a8fe604086018261a660565b50606083015161a911606086018261a660565b506080830151848203608086015261a929828261a6b5565b91505060a083015184820360a086015261a943828261a6b5565b91505060c083015184820360c086015261a95d828261a78b565b91505060e083015161a97260e086018261a61f565b5061010083015161a98761010086018261a61f565b5061012083015161a99c61012086018261a61f565b5061014083015161a9b161014086018261a868565b5061016083015161a9c661016086018261a8b0565b508091505092915050565b600061a9dd838361a8bf565b905092915050565b6000602082019050919050565b600061a9fd8261a5f3565b61aa07818561a5fe565b93508360208202850161aa198561a60f565b8060005b8581101561aa55578484038952815161aa36858261a9d1565b945061aa418361a9e5565b925060208a0199505060018101905061aa1d565b50829750879550505050505092915050565b6000602082019050818103600083015261aa81818461a9f2565b905092915050565b60006101808301600083015161aaa2600086018261a61f565b50602083015161aab5602086018261a660565b50604083015161aac8604086018261a660565b50606083015161aadb606086018261a660565b506080830151848203608086015261aaf3828261a6b5565b91505060a083015184820360a086015261ab0d828261a6b5565b91505060c083015184820360c086015261ab27828261a78b565b91505060e083015161ab3c60e086018261a61f565b5061010083015161ab5161010086018261a61f565b5061012083015161ab6661012086018261a61f565b5061014083015161ab7b61014086018261a868565b5061016083015161ab9061016086018261a8b0565b508091505092915050565b6000602082019050818103600083015261abb5818461aa89565b905092915050565b6000806040838503121561abd45761abd361a3c8565b5b600083013567ffffffffffffffff81111561abf25761abf161a3cd565b5b61abfe8582860161a54d565b925050602061ac0f8582860161a3f3565b9150509250929050565b61ac228161a3d2565b82525050565b600060208201905061ac3d600083018461ac19565b92915050565b600060e08301600083015161ac5b600086018261a660565b50602083015161ac6e602086018261a660565b506040830151848203604086015261ac86828261a6b5565b9150506060830151848203606086015261aca0828261a6b5565b9150506080830151848203608086015261acba828261a78b565b91505060a083015161accf60a086018261a61f565b5060c083015161ace260c086018261a61f565b508091505092915050565b6000602082019050818103600083015261ad07818461ac43565b905092915050565b61ad188161a64e565b82525050565b600060208201905061ad33600083018461ad0f565b92915050565b60008060006060848603121561ad525761ad5161a3c8565b5b600084013567ffffffffffffffff81111561ad705761ad6f61a3cd565b5b61ad7c8682870161a54d565b935050602084013567ffffffffffffffff81111561ad9d5761ad9c61a3cd565b5b61ada98682870161a54d565b925050604061adba8682870161a3f3565b9150509250925092565b7f4e487b7100000000000000000000000000000000000000000000000000000000600052603260045260246000fd5b7f4e487b7100000000000000000000000000000000000000000000000000000000600052601160045260246000fd5b600061ae2d8261a3d2565b91507fffffffffffffffffffffffffffffffffffffffffffffffffffffffffffffffff820361ae5f5761ae5e61adf3565b5b600182019050919050565b600061ae758261a3d2565b915061ae808361a3d2565b925082820190508082111561ae985761ae9761adf3565b5b92915050565b600061aea98261a3d2565b915061aeb48361a3d2565b925082820261aec28161a3d2565b9150828204841483151761aed95761aed861adf3565b5b5092915050565b7f4e487b7100000000000000000000000000000000000000000000000000000000600052602260045260246000fd5b6000600282049050600182168061af2757607f821691505b60208210810361af3a5761af3961aee0565b5b50919050565b60008154905061af4f8161af0f565b9050919050565b60008190508160005260206000209050919050565b60008190508160005260206000209050919050565b60006020601f8301049050919050565b600082821b905092915050565b60006008830261afcd7fffffffffffffffffffffffffffffffffffffffffffffffffffffffffffffffff8261af90565b61afd7868361af90565b95508019841693508086168417925050509392505050565b6000819050919050565b600061b01461b00f61b00a8461a3d2565b61afef565b61a3d2565b9050919050565b6000819050919050565b61b02e8361aff9565b61b04261b03a8261b01b565b84845461af9d565b825550505050565b600090565b61b05761b04a565b61b06281848461b025565b505050565b5b8181101561b0865761b07b60008261b04f565b60018101905061b068565b5050565b601f82111561b0cb5761b09c8161af56565b61b0a58461af80565b8101602085101561b0b4578190505b61b0c861b0c08561af80565b83018261b067565b50505b505050565b600082821c905092915050565b600061b0ee6000198460080261b0d0565b1980831691505092915050565b600061b107838361b0dd565b9150826002028217905092915050565b81810361b12557505061b1fd565b61b12e8261af40565b67ffffffffffffffff81111561b1475761b14661a450565b5b61b151825461af0f565b61b15c82828561b08a565b6000601f83116001811461b18b576000841561b179578287015490505b61b183858261b0fb565b86555061b1f6565b601f19841661b1998761af6b565b965061b1a48661af56565b60005b8281101561b1cc5784890154825560018201915060018501945060208101905061b1a7565b8683101561b1e9578489015461b1e5601f89168261b0dd565b8355505b6001600288020188555050505b5050505050505b565b60008154905061b20e8161af0f565b9050919050565b81810361b22357505061b2fb565b61b22c8261b1ff565b67ffffffffffffffff81111561b2455761b24461a450565b5b61b24f825461af0f565b61b25a82828561b08a565b6000601f83116001811461b289576000841561b277578287015490505b61b281858261b0fb565b86555061b2f4565b601f19841661b2978761af56565b965061b2a28661af56565b60005b8281101561b2ca5784890154825560018201915060018501945060208101905061b2a5565b8683101561b2e7578489015461b2e3601f89168261b0dd565b8355505b6001600288020188555050505b5050505050505b565b61b3068261a66f565b67ffffffffffffffff81111561b31f5761b31e61a450565b5b61b329825461af0f565b61b33482828561b08a565b600060209050601f83116001811461b367576000841561b355578287015190505b61b35f858261b0fb565b86555061b3c7565b601f19841661b3758661af56565b60005b8281101561b39d5784890151825560018201915060208501945060208101905061b378565b8683101561b3ba578489015161b3b6601f89168261b0dd565b8355505b6001600288020188555050505b505050505050565b7f4e487b7100000000000000000000000000000000000000000000000000000000600052603160045260246000fd5b600081905092915050565b600061b4148261a66f565b61b41e818561b3fe565b935061b42e81856020860161a68b565b80840191505092915050565b600061b446828461b409565b915081905092915050565b6000815461b45e8161af0f565b61b468818661b3fe565b9450600182166000811461b483576001811461b4985761b4cb565b60ff198316865281151582028601935061b4cb565b61b4a18561af56565b60005b8381101561b4c35781548189015260018201915060208101905061b4a4565b838801955050505b50505092915050565b600061b4e0828461b451565b91508190509291505056fea264697066735822122099ade372c045882085de95c1b2e624289369fb5ed523c07f220a84198fb60e4e64736f6c63430008130033",
  "immutableReferences": {},
  "source": "// SPDX-License-Identifier: MIT\r\npragma solidity ^0.8.19;\r\n\r\ncontract delivery_a {\r\n\r\n    address public owner;\r\n\r\n    constructor(){\r\n        owner=msg.sender;\r\n    }\r\n\r\n    // \r\n    struct Customer {\r\n        address  customerWallet;\r\n        string customerNick;\r\n        string customerAddress;\r\n        Basket basket;\r\n        Order goingOrder;\r\n        Order[] pastOrderList;\r\n    }\r\n    //   \r\n    struct Store_own {\r\n        address  storeWallet;\r\n        string storeName;\r\n        string storeAddress;\r\n        uint monthOrderCount;\r\n        uint monthPeriod;\r\n        Menu[] menuList;\r\n        Order[] orderList;\r\n    }\r\n\r\n\r\n    //   \r\n    struct Store_cus {\r\n        address  storeWallet;\r\n        string storeName;\r\n        string storeAddress;\r\n        Menu[] menuList;\r\n    }\r\n    // \r\n    struct Rider {\r\n        address  riderWallet;\r\n        string deliveryType;\r\n        string deliveryZone;\r\n        Order[] orders;\r\n    }\r\n    // \r\n    struct Menu {\r\n        string name;\r\n        uint price;\r\n        uint count;\r\n    }\r\n    // \r\n    struct Basket {\r\n        address customerAddr;\r\n        address storeAddr;\r\n        string customerAddress;\r\n        string storeAddress;\r\n        Menu[] menuNames;\r\n        uint foodPrice;\r\n        uint deliveryFee;\r\n    }\r\n    // \r\n    struct Order {\r\n        uint orderID;\r\n        address customerAddr;\r\n        address storeAddr;\r\n        address riderAddr;\r\n        string customerAddress;\r\n        string storeAddress;\r\n        Menu[] menuName;\r\n        uint foodPrice;\r\n        uint deliveryFee;\r\n        uint deliveryTip;\r\n        storeState storeStatus;\r\n        riderState riderStatus;\r\n    }\r\n    //    \r\n    enum storeState {decline, accept,cookFinish, isPicked,notyetChoice,checkMoney}\r\n    //    \r\n    enum riderState {notSelected, inDelivery, isPicked, deliveryComplete,checkMoney}\r\n\r\n    //  \r\n    mapping(address => Customer) customers;\r\n    //  (  )\r\n    Store_cus[] stores_customer;\r\n    //  (  )\r\n    mapping(address=>Store_own) stores_owner;\r\n    //  \r\n    mapping(address => Rider) riders;\r\n    //\r\n    Order[] deliveryWaitingList;\r\n\r\n    //\r\n    uint public orderNum;\r\n\r\n    //    modifier\r\n    modifier accessOnlyStore(){\r\n        require(msg.sender==stores_owner[msg.sender].storeWallet);\r\n        _;\r\n    }\r\n    //    modifier\r\n    modifier accessOnlyCustomer(){\r\n        require(msg.sender==customers[msg.sender].customerWallet);\r\n        _;\r\n    }\r\n    //    modifier\r\n    modifier accessOnlyRider(){\r\n        require(msg.sender==riders[msg.sender].riderWallet);\r\n        _;\r\n    }\r\n\r\n    //------------------------------------------------------------------------------------------------\r\n\r\n    //  \r\n    function storeRegist(string memory _storeName,string memory _storeAddress) public accessOnlyStore {\r\n        //stores_customer   \r\n        Store_cus storage newStore_cus = stores_customer.push();\r\n        newStore_cus.storeWallet=msg.sender;\r\n        newStore_cus.storeName=_storeName;\r\n        newStore_cus.storeAddress=_storeAddress;\r\n        //stores_owner   \r\n        Store_own storage newStore_own=stores_owner[msg.sender];\r\n        newStore_own.storeWallet= msg.sender;\r\n        newStore_own.storeName=_storeName;\r\n        newStore_own.storeAddress=_storeAddress;\r\n        newStore_own.monthOrderCount=0;\r\n        newStore_own.monthPeriod=block.timestamp+30 days;\r\n\r\n    }\r\n\r\n    //   \r\n    function storeMenuRegist(string memory _menuName,uint _price)public accessOnlyStore{\r\n        //stores_customer  Menu[]  \r\n        for(uint i=0;i<stores_customer.length;i++){\r\n            if(stores_customer[i].storeWallet==msg.sender){\r\n                stores_customer[i].menuList.push(Menu(_menuName,_price,0));\r\n            }\r\n        }\r\n        //stores_owner  Menu[]  \r\n        stores_owner[msg.sender].menuList.push(Menu(_menuName,_price,0));\r\n    }\r\n\r\n\r\n    //  \r\n    function storeAccept(uint _orderId) public accessOnlyStore{\r\n        for(uint i=0;i<stores_owner[msg.sender].orderList.length;i++){\r\n            if(stores_owner[msg.sender].orderList[i].orderID==_orderId){\r\n                // order \r\n                customers[stores_owner[msg.sender].orderList[i].customerAddr].goingOrder.storeStatus=storeState.accept;\r\n                //(stores_owner) order \r\n                stores_owner[msg.sender].orderList[i].storeStatus=storeState.accept;\r\n            }\r\n        }\r\n    }\r\n\r\n    //  \r\n    function storeDecline(uint _orderId) public accessOnlyStore{\r\n        for(uint i=0;i<stores_owner[msg.sender].orderList.length;i++){\r\n            // order \r\n            if(customers[stores_owner[msg.sender].orderList[i].customerAddr].goingOrder.orderID==_orderId){\r\n                customers[stores_owner[msg.sender].orderList[i].customerAddr].goingOrder.storeStatus=storeState.decline;\r\n            }\r\n            //(stores_owner) order \r\n            if(stores_owner[msg.sender].orderList[i].orderID==_orderId){\r\n                stores_owner[msg.sender].orderList[i].storeStatus=storeState.decline;\r\n            }\r\n        }\r\n        //  \r\n        for(uint i=0;i<deliveryWaitingList.length;i++){\r\n            if(deliveryWaitingList[i].orderID==_orderId){\r\n                delete deliveryWaitingList[i];\r\n            }\r\n        }\r\n        //  \r\n        for(uint i=0;i<stores_owner[msg.sender].orderList.length;i++){\r\n            if(stores_owner[msg.sender].orderList[i].orderID==_orderId){\r\n               delete stores_owner[msg.sender].orderList[i];\r\n            }\r\n        }\r\n    }\r\n\r\n    //  \r\n    function cookFinish(uint _orderId)public payable accessOnlyStore {\r\n        \r\n        for(uint i=0;i<stores_owner[msg.sender].orderList.length;i++){\r\n            if(stores_owner[msg.sender].orderList[i].orderID==_orderId){\r\n                //   \r\n                require(msg.value==(stores_owner[msg.sender].orderList[i].deliveryFee)*1 ether);\r\n                // payable (address(this)).transfer((stores_owner[msg.sender].orderList[i].deliveryFee)*1 ether);\r\n                //(stores_owner) order \r\n                stores_owner[msg.sender].orderList[i].storeStatus=storeState.cookFinish;\r\n                // order \r\n                customers[stores_owner[msg.sender].orderList[i].customerAddr].goingOrder.storeStatus=storeState.cookFinish;\r\n                \r\n                //   \r\n                stores_owner[msg.sender].monthOrderCount+=1;\r\n                \r\n                if(stores_owner[msg.sender].monthPeriod<block.timestamp){\r\n                    stores_owner[msg.sender].monthOrderCount = 0;\r\n                }\r\n\r\n\r\n                // (   )\r\n                if(stores_owner[msg.sender].monthOrderCount>3){\r\n                    payable (stores_owner[msg.sender].orderList[i].storeAddr).transfer((stores_owner[msg.sender].orderList[i].foodPrice)*0.98 ether);\r\n                }else{\r\n                    payable (stores_owner[msg.sender].orderList[i].storeAddr).transfer((stores_owner[msg.sender].orderList[i].foodPrice)*1 ether);\r\n                }\r\n            }\r\n        }                 \r\n    }\r\n\r\n    //  \r\n    function myStoreOrder()public view accessOnlyStore returns(Order[] memory){\r\n        return (stores_owner[msg.sender].orderList);\r\n    }\r\n\r\n    //--------------------------------------------------------------------------------------------\r\n\r\n    //  \r\n    function customerRegist(string memory _customerNick,string memory _customerAddress) public accessOnlyCustomer{\r\n        Customer storage newCustomer=customers[msg.sender];\r\n        newCustomer.customerWallet=msg.sender;\r\n        newCustomer.customerNick=_customerNick;\r\n        newCustomer.customerAddress=_customerAddress;\r\n    }\r\n\r\n    //  \r\n    function addMenuToBusket(string memory _storeName,string memory _foodName,uint _count)public accessOnlyCustomer{\r\n        \r\n        \r\n        \r\n        if(customers[msg.sender].basket.menuNames.length==0){\r\n            customers[msg.sender].basket.customerAddr=msg.sender;       \r\n            customers[msg.sender].basket.customerAddress=customers[msg.sender].customerAddress;\r\n            for(uint i=0;i<stores_customer.length;i++){\r\n                if(keccak256(abi.encodePacked(stores_customer[i].storeName)) == keccak256(abi.encodePacked(_storeName))){\r\n                    customers[msg.sender].basket.storeAddr=stores_customer[i].storeWallet;\r\n                    customers[msg.sender].basket.storeAddress = stores_customer[i].storeAddress;\r\n                    for(uint j=0;j<stores_customer[i].menuList.length;j++){\r\n                        if(keccak256(abi.encodePacked(stores_customer[i].menuList[j].name))==keccak256(abi.encodePacked(_foodName))){\r\n                            customers[msg.sender].basket.menuNames.push(Menu(stores_customer[i].menuList[j].name,stores_customer[i].menuList[j].price,_count));\r\n                        }                    \r\n                    }\r\n                }\r\n            }       \r\n            customers[msg.sender].basket.foodPrice=menuTotalPriceForBasket();\r\n            customers[msg.sender].basket.deliveryFee=0;  \r\n        }else{\r\n            for(uint i=0;i<stores_customer.length;i++){\r\n                if(customers[msg.sender].basket.storeAddr==stores_customer[i].storeWallet){\r\n                    if(keccak256(abi.encodePacked(stores_customer[i].storeName))==keccak256(abi.encodePacked(_storeName))){\r\n                        customers[msg.sender].basket.customerAddr=msg.sender;       \r\n                        customers[msg.sender].basket.customerAddress=customers[msg.sender].customerAddress;\r\n                        for(uint k=0;k<stores_customer.length;k++){\r\n                            if(keccak256(abi.encodePacked(stores_customer[k].storeName)) == keccak256(abi.encodePacked(_storeName))){\r\n                                customers[msg.sender].basket.storeAddr=stores_customer[k].storeWallet;\r\n                                customers[msg.sender].basket.storeAddress = stores_customer[k].storeAddress;\r\n                                for(uint l=0;l<stores_customer[k].menuList.length;l++){\r\n                                    if(keccak256(abi.encodePacked(stores_customer[k].menuList[l].name))==keccak256(abi.encodePacked(_foodName))){\r\n                                        customers[msg.sender].basket.menuNames.push(Menu(stores_customer[k].menuList[l].name,stores_customer[k].menuList[l].price,_count));\r\n                                    }                    \r\n                                }\r\n                            }\r\n                        }\r\n                    }\r\n                }\r\n            }\r\n        }\r\n\r\n\r\n        /*\r\n        customers[msg.sender].basket.customerAddr=msg.sender;       \r\n        customers[msg.sender].basket.customerAddress=customers[msg.sender].customerAddress;\r\n        for(uint i=0;i<stores_customer.length;i++){\r\n            if(keccak256(abi.encodePacked(stores_customer[i].storeName)) == keccak256(abi.encodePacked(_storeName))){\r\n                customers[msg.sender].basket.storeAddr=stores_customer[i].storeWallet;\r\n                customers[msg.sender].basket.storeAddress = stores_customer[i].storeAddress;\r\n                for(uint j=0;j<stores_customer[i].menuList.length;j++){\r\n                    if(keccak256(abi.encodePacked(stores_customer[i].menuList[j].name))==keccak256(abi.encodePacked(_foodName))){\r\n                        customers[msg.sender].basket.menuNames.push(Menu(stores_customer[i].menuList[j].name,stores_customer[i].menuList[j].price,_count));\r\n                    }                    \r\n                }\r\n            }\r\n        }       \r\n        customers[msg.sender].basket.foodPrice=menuTotalPriceForBasket();\r\n        customers[msg.sender].basket.deliveryFee=0;  \r\n        */\r\n    }\r\n\r\n    //   \r\n    function menuTotalPriceForBasket()public view accessOnlyCustomer returns(uint){\r\n        uint totalPrice;\r\n        uint menuLength = customers[msg.sender].basket.menuNames.length;\r\n        for (uint i = 0; i < menuLength; i++) {\r\n            totalPrice += customers[msg.sender].basket.menuNames[i].price*customers[msg.sender].basket.menuNames[i].count;\r\n        }\r\n        return totalPrice;\r\n    }\r\n\r\n    //\r\n    function ordering(uint _deliveryTip) public accessOnlyCustomer{\r\n        //  \r\n        orderNum++;\r\n        Order storage newOrder = customers[msg.sender].goingOrder;\r\n        newOrder.orderID= orderNum;\r\n        newOrder.customerAddr=msg.sender;\r\n        newOrder.storeAddr=customers[msg.sender].basket.storeAddr;\r\n        newOrder.customerAddress=customers[msg.sender].basket.customerAddress;\r\n        newOrder.storeAddress=customers[msg.sender].basket.storeAddress;\r\n        for(uint i=0;i<customers[msg.sender].basket.menuNames.length;i++){\r\n            newOrder.menuName.push(customers[msg.sender].basket.menuNames[i]);\r\n        }\r\n        newOrder.foodPrice=menuTotalPriceForBasket();\r\n        newOrder.deliveryFee=0;\r\n        newOrder.deliveryTip=_deliveryTip;\r\n        newOrder.storeStatus=storeState.notyetChoice;\r\n        newOrder.riderStatus=riderState.notSelected; \r\n        //()  \r\n        Order storage newOrder2 = stores_owner[customers[msg.sender].basket.storeAddr].orderList.push();\r\n        newOrder2.orderID= customers[msg.sender].goingOrder.orderID;\r\n        newOrder2.customerAddr=msg.sender;\r\n        newOrder2.storeAddr=customers[msg.sender].goingOrder.storeAddr;\r\n        newOrder2.customerAddress=customers[msg.sender].goingOrder.customerAddress;\r\n        newOrder2.storeAddress=customers[msg.sender].goingOrder.storeAddress;\r\n        for(uint i=0;i<customers[msg.sender].goingOrder.menuName.length;i++){\r\n            newOrder2.menuName.push(customers[msg.sender].goingOrder.menuName[i]);\r\n        }\r\n        newOrder2.foodPrice=menuTotalPriceForBasket();\r\n        newOrder2.deliveryFee=0;\r\n        newOrder2.deliveryTip=_deliveryTip;\r\n        newOrder2.storeStatus=storeState.notyetChoice;\r\n        newOrder2.riderStatus=riderState.notSelected;\r\n        //  \r\n        Order storage newOrder3 = deliveryWaitingList.push();\r\n        newOrder3.orderID= customers[msg.sender].goingOrder.orderID;\r\n        newOrder3.customerAddr=msg.sender;\r\n        newOrder3.storeAddr=customers[msg.sender].goingOrder.storeAddr;\r\n        newOrder3.customerAddress=customers[msg.sender].goingOrder.customerAddress;\r\n        newOrder3.storeAddress=customers[msg.sender].goingOrder.storeAddress;\r\n        for(uint i=0;i<customers[msg.sender].goingOrder.menuName.length;i++){\r\n            newOrder3.menuName.push(customers[msg.sender].goingOrder.menuName[i]);\r\n        }\r\n        newOrder3.foodPrice=menuTotalPriceForBasket();\r\n        newOrder3.deliveryFee=0;\r\n        newOrder3.deliveryTip=_deliveryTip;\r\n        newOrder3.storeStatus=storeState.notyetChoice;\r\n        newOrder3.riderStatus=riderState.notSelected; \r\n    }\r\n\r\n    //   2\r\n    function menuTotalPriceForOrder()public view accessOnlyCustomer returns(uint){\r\n        uint totalPrice;\r\n        uint menuLength = customers[msg.sender].goingOrder.menuName.length;\r\n        for (uint i = 0; i < menuLength; i++) {\r\n            totalPrice += customers[msg.sender].goingOrder.menuName[i].price*customers[msg.sender].goingOrder.menuName[i].count;\r\n        }\r\n        return totalPrice;\r\n    }\r\n\r\n    //  ,   \r\n    function payment()public payable accessOnlyCustomer{\r\n        //  ,    \r\n        require(customers[msg.sender].goingOrder.storeStatus==storeState.accept &&\r\n                customers[msg.sender].goingOrder.riderStatus==riderState.isPicked);\r\n        // \r\n        require(\r\n            msg.value==(customers[msg.sender].goingOrder.foodPrice+\r\n            customers[msg.sender].goingOrder.deliveryFee+\r\n            customers[msg.sender].goingOrder.deliveryTip)*1 ether\r\n            );\r\n        //(stores_owner) order \r\n        for(uint i=0;i<stores_owner[customers[msg.sender].goingOrder.storeAddr].orderList.length;i++){\r\n            if(stores_owner[customers[msg.sender].goingOrder.storeAddr].orderList[i].orderID==customers[msg.sender].goingOrder.orderID){\r\n                stores_owner[customers[msg.sender].goingOrder.storeAddr].orderList[i].riderStatus = riderState.checkMoney;\r\n            }\r\n        }\r\n     \r\n        // order \r\n        customers[msg.sender].goingOrder.storeStatus==storeState.checkMoney;\r\n        //   \r\n        for(uint i=0;i<riders[customers[msg.sender].goingOrder.riderAddr].orders.length;i++){\r\n            if(riders[customers[msg.sender].goingOrder.riderAddr].orders[i].orderID==customers[msg.sender].goingOrder.orderID){\r\n                riders[customers[msg.sender].goingOrder.riderAddr].orders[i].riderStatus = riderState.checkMoney;\r\n            }\r\n        }\r\n        //  \r\n        for(uint i=0;i<deliveryWaitingList.length;i++){\r\n            if(deliveryWaitingList[i].orderID==customers[msg.sender].goingOrder.orderID){\r\n                deliveryWaitingList[i].storeStatus==storeState.checkMoney;\r\n                deliveryWaitingList[i].riderStatus = riderState.checkMoney;\r\n            }\r\n        }\r\n    }\r\n\r\n    function myCustomerGoingOrder()public view accessOnlyCustomer returns(Order memory){\r\n        return customers[msg.sender].goingOrder;\r\n    }\r\n    function myCustomerPastOrder()public view accessOnlyCustomer returns(Order[] memory){\r\n        return customers[msg.sender].pastOrderList;\r\n    }\r\n    function myCustomerBasket()public view accessOnlyCustomer returns(Basket memory){\r\n        return customers[msg.sender].basket;\r\n    }\r\n\r\n    //---------------------------------------------------------------------------------------------\r\n\r\n    //  \r\n    function riderRegist(string memory _deliveryType,string memory _deliveryZone) public accessOnlyRider{\r\n        Rider storage newRider = riders[msg.sender];\r\n        newRider.riderWallet = msg.sender;\r\n        newRider.deliveryType = _deliveryType;\r\n        newRider.deliveryZone = _deliveryZone;\r\n    }\r\n\r\n    //  \r\n    function riderPickOrder(uint _orderId)public accessOnlyRider{\r\n        //  \r\n        for(uint i=0;i<deliveryWaitingList.length;i++){\r\n            if(deliveryWaitingList[i].orderID==_orderId){\r\n                //   \r\n                customers[deliveryWaitingList[i].customerAddr].goingOrder.riderAddr = msg.sender;\r\n                //   \r\n                for(uint j=0;j<stores_owner[deliveryWaitingList[i].storeAddr].orderList.length;j++){\r\n                    if(stores_owner[deliveryWaitingList[i].storeAddr].orderList[j].orderID==_orderId){\r\n                        stores_owner[deliveryWaitingList[i].storeAddr].orderList[j].riderAddr = msg.sender;\r\n                    }\r\n                }\r\n                //   \r\n                deliveryWaitingList[i].riderAddr = msg.sender; \r\n            }\r\n        }\r\n        for(uint i=0;i<deliveryWaitingList.length;i++){\r\n            if(deliveryWaitingList[i].orderID==_orderId){\r\n                //  \r\n                Order storage newOrder = riders[msg.sender].orders.push();\r\n                newOrder.orderID= deliveryWaitingList[i].orderID;\r\n                newOrder.customerAddr=deliveryWaitingList[i].customerAddr;\r\n                newOrder.storeAddr=deliveryWaitingList[i].storeAddr;\r\n                newOrder.riderAddr=deliveryWaitingList[i].riderAddr;\r\n                newOrder.customerAddress=deliveryWaitingList[i].customerAddress;\r\n                newOrder.storeAddress=deliveryWaitingList[i].storeAddress;\r\n                for(uint j=0;j<customers[deliveryWaitingList[i].customerAddr].goingOrder.menuName.length;j++){\r\n                    newOrder.menuName.push(customers[deliveryWaitingList[i].customerAddr].goingOrder.menuName[j]);\r\n                }\r\n                newOrder.foodPrice=deliveryWaitingList[i].foodPrice;\r\n                newOrder.deliveryFee=deliveryWaitingList[i].deliveryFee;\r\n                newOrder.deliveryTip=deliveryWaitingList[i].deliveryTip;\r\n                newOrder.storeStatus=deliveryWaitingList[i].storeStatus;\r\n                newOrder.riderStatus=riderState.isPicked;\r\n                //    \r\n                deliveryWaitingList[i].storeStatus=storeState.isPicked;\r\n                deliveryWaitingList[i].riderStatus=riderState.isPicked;\r\n\r\n                \r\n                //   \r\n                // customers[deliveryWaitingList[i].customerAddr].goingOrder.storeStatus=storeState.isPicked;\r\n                customers[deliveryWaitingList[i].customerAddr].goingOrder.riderStatus=riderState.isPicked;\r\n                //   \r\n                for(uint k=0;k<deliveryWaitingList.length;k++){\r\n                    if(stores_owner[deliveryWaitingList[i].storeAddr].orderList[k].orderID==_orderId){\r\n                        //stores_owner[deliveryWaitingList[i].storeAddr].orderList[k].storeStatus=storeState.isPicked;\r\n                        stores_owner[deliveryWaitingList[i].storeAddr].orderList[k].riderStatus=riderState.isPicked;\r\n                    }\r\n                }  \r\n            }\r\n        }\r\n    }\r\n\r\n    //  \r\n    function riderStartDelivery(uint _orderId)public accessOnlyRider{\r\n        for(uint i=0;i<riders[msg.sender].orders.length;i++){\r\n            if(riders[msg.sender].orders[i].orderID==_orderId){\r\n                //   \r\n                if(riders[msg.sender].orders[i].riderStatus==riderState.checkMoney){\r\n                    //  \r\n                    riders[msg.sender].orders[i].riderStatus=riderState.inDelivery;\r\n                    //    \r\n                    for(uint j=0;j<deliveryWaitingList.length;j++){\r\n                        if(deliveryWaitingList[j].orderID==_orderId){\r\n                            deliveryWaitingList[j].riderStatus=riderState.inDelivery;\r\n                        }\r\n                    }\r\n                    //   \r\n                    customers[riders[msg.sender].orders[i].customerAddr].goingOrder.riderStatus=riderState.inDelivery;\r\n                    \r\n                    //    \r\n                    for(uint j=0;j<stores_owner[riders[msg.sender].orders[i].storeAddr].orderList.length;j++){\r\n                        if(stores_owner[riders[msg.sender].orders[i].storeAddr].orderList[j].orderID==_orderId){\r\n                            stores_owner[riders[msg.sender].orders[i].storeAddr].orderList[j].riderStatus=riderState.inDelivery;\r\n                        }\r\n                    }\r\n                }\r\n            }\r\n        }\r\n    }\r\n\r\n    //  \r\n    function riderFinishDelivery(uint _orderId)public accessOnlyRider{\r\n        for(uint i=0;i<riders[msg.sender].orders.length;i++){\r\n            if(riders[msg.sender].orders[i].orderID==_orderId){\r\n                // \r\n                if(riders[msg.sender].orders[i].riderStatus==riderState.inDelivery){\r\n                    //     \r\n                    riders[msg.sender].orders[i].riderStatus=riderState.deliveryComplete;\r\n                    //        \r\n                    for(uint j=0;j<deliveryWaitingList.length;j++){\r\n                        if(deliveryWaitingList[j].orderID==_orderId){\r\n                            deliveryWaitingList[j].riderStatus=riderState.deliveryComplete;\r\n                        }\r\n                    }\r\n                    //   \r\n                    customers[riders[msg.sender].orders[i].customerAddr].goingOrder.riderStatus=riderState.deliveryComplete;\r\n                    \r\n                    //    \r\n                    for(uint j=0;j<stores_owner[riders[msg.sender].orders[i].storeAddr].orderList.length;j++){\r\n                        if(stores_owner[riders[msg.sender].orders[i].storeAddr].orderList[j].orderID==_orderId){\r\n                            stores_owner[riders[msg.sender].orders[i].storeAddr].orderList[j].riderStatus=riderState.deliveryComplete;\r\n                        }\r\n                    }\r\n\r\n\r\n                    /*\r\n                    // \r\n                    payable (stores_owner[riders[msg.sender].orders[i].storeAddr].storeWallet).transfer((riders[msg.sender].orders[i].foodPrice)*1 ether);\r\n                    */\r\n                    \r\n                    //  ()\r\n                    payable (riders[msg.sender].riderWallet).transfer((riders[msg.sender].orders[i].deliveryFee+riders[msg.sender].orders[i].deliveryTip)*1 ether);\r\n\r\n                    //  ()\r\n                    payable (riders[msg.sender].riderWallet).transfer((riders[msg.sender].orders[i].deliveryFee)*1 ether);\r\n                    \r\n\r\n                    \r\n                    //   \r\n                    Order storage pastOrder = customers[riders[msg.sender].orders[i].customerAddr].pastOrderList.push();\r\n                    pastOrder.orderID= customers[riders[msg.sender].orders[i].customerAddr].goingOrder.orderID;\r\n                    pastOrder.customerAddr=customers[riders[msg.sender].orders[i].customerAddr].goingOrder.customerAddr;\r\n\r\n                    pastOrder.storeAddr=customers[riders[msg.sender].orders[i].customerAddr].goingOrder.storeAddr;\r\n                    pastOrder.riderAddr=customers[riders[msg.sender].orders[i].customerAddr].goingOrder.riderAddr;\r\n                    \r\n                    pastOrder.customerAddress=customers[riders[msg.sender].orders[i].customerAddr].goingOrder.customerAddress;\r\n                    pastOrder.storeAddress=customers[riders[msg.sender].orders[i].customerAddr].goingOrder.storeAddress;\r\n                    for(uint k=0;k<customers[riders[msg.sender].orders[i].customerAddr].goingOrder.menuName.length;k++){\r\n                        pastOrder.menuName.push(customers[riders[msg.sender].orders[i].customerAddr].goingOrder.menuName[k]);\r\n                    }\r\n                    \r\n                    pastOrder.foodPrice=customers[riders[msg.sender].orders[i].customerAddr].goingOrder.foodPrice;\r\n                    pastOrder.deliveryFee=customers[riders[msg.sender].orders[i].customerAddr].goingOrder.deliveryFee;\r\n                    \r\n                    pastOrder.deliveryTip=customers[riders[msg.sender].orders[i].customerAddr].goingOrder.deliveryTip;\r\n                    pastOrder.storeStatus=customers[riders[msg.sender].orders[i].customerAddr].goingOrder.storeStatus;\r\n                    \r\n                    pastOrder.riderStatus=customers[riders[msg.sender].orders[i].customerAddr].goingOrder.riderStatus; \r\n                    \r\n                    // goingOrder\r\n                    customers[riders[msg.sender].orders[i].customerAddr].goingOrder.orderID= 0;\r\n                    customers[riders[msg.sender].orders[i].customerAddr].goingOrder.customerAddr=address(0);\r\n                    customers[riders[msg.sender].orders[i].customerAddr].goingOrder.storeAddr=address(0);\r\n                    customers[riders[msg.sender].orders[i].customerAddr].goingOrder.riderAddr=address(0);\r\n                    customers[riders[msg.sender].orders[i].customerAddr].goingOrder.customerAddress=\"\";\r\n                    customers[riders[msg.sender].orders[i].customerAddr].goingOrder.storeAddress=\"\";\r\n                    \r\n                    for(uint k=0; k < customers[riders[msg.sender].orders[i].customerAddr].goingOrder.menuName.length ; k++){\r\n                        customers[riders[msg.sender].orders[i].customerAddr].goingOrder.menuName.pop();\r\n                    }        \r\n                    \r\n                    customers[riders[msg.sender].orders[i].customerAddr].goingOrder.foodPrice=0;\r\n                    customers[riders[msg.sender].orders[i].customerAddr].goingOrder.deliveryFee=0;\r\n                    customers[riders[msg.sender].orders[i].customerAddr].goingOrder.deliveryTip=0;\r\n                    customers[riders[msg.sender].orders[i].customerAddr].goingOrder.storeStatus=storeState.notyetChoice;\r\n                    customers[riders[msg.sender].orders[i].customerAddr].goingOrder.riderStatus=riderState.notSelected; \r\n\r\n                    // // basket\r\n                    customers[riders[msg.sender].orders[i].customerAddr].basket.customerAddr=address(0);\r\n                    customers[riders[msg.sender].orders[i].customerAddr].basket.storeAddr=address(0);\r\n                    customers[riders[msg.sender].orders[i].customerAddr].basket.customerAddress=\"\";\r\n                    customers[riders[msg.sender].orders[i].customerAddr].basket.storeAddress=\"\";\r\n                    for(uint l=0;l<customers[riders[msg.sender].orders[i].customerAddr].basket.menuNames.length;l++){\r\n                        customers[riders[msg.sender].orders[i].customerAddr].basket.menuNames.pop();\r\n                    }\r\n                    customers[riders[msg.sender].orders[i].customerAddr].basket.foodPrice=0;\r\n                    customers[riders[msg.sender].orders[i].customerAddr].basket.deliveryFee=0;\r\n                    \r\n                }\r\n            }\r\n        }\r\n    }\r\n\r\n    //   \r\n    function myRiderOrder()public view accessOnlyRider returns(Order[] memory){\r\n        return riders[msg.sender].orders;\r\n    }\r\n\r\n\r\n    //---------------------------------------------------------------------------------------------\r\n\r\n    function withdraw(uint _amount)public {\r\n        require(msg.sender == owner);\r\n        payable (msg.sender).transfer(_amount * 1 ether);\r\n    }\r\n\r\n    //\r\n    function deliverylistOrder()public view returns(Order[] memory){\r\n        return deliveryWaitingList;\r\n    }\r\n\r\n}\r\n",
  "sourcePath": "C:\\Users\\ASUS\\visualstudio_project\\blockchainSchool\\teamproject\\solidity\\contracts\\main_array_ver.sol",
  "compiler": {
    "name": "solc",
    "version": "0.8.19+commit.7dd6d404.Emscripten.clang"
  },
  "schemaVersion": "3.4.14",
  "updatedAt": "2023-06-21T12:36:55.365Z",
  "devdoc": {
    "kind": "dev",
    "methods": {},
    "version": 1
  },
  "userdoc": {
    "kind": "user",
    "methods": {},
    "version": 1
  }
}