{
  "contractName": "delivery_m",
  "abi": [
    {
      "inputs": [],
      "stateMutability": "nonpayable",
      "type": "constructor"
    },
    {
      "inputs": [],
      "name": "orderNum",
      "outputs": [
        {
          "internalType": "uint256",
          "name": "",
          "type": "uint256"
        }
      ],
      "stateMutability": "view",
      "type": "function"
    },
    {
      "inputs": [],
      "name": "owner",
      "outputs": [
        {
          "internalType": "address",
          "name": "",
          "type": "address"
        }
      ],
      "stateMutability": "view",
      "type": "function"
    },
    {
      "inputs": [
        {
          "internalType": "string",
          "name": "_storeName",
          "type": "string"
        },
        {
          "internalType": "string",
          "name": "_storeAddress",
          "type": "string"
        }
      ],
      "name": "storeRegist",
      "outputs": [],
      "stateMutability": "nonpayable",
      "type": "function"
    },
    {
      "inputs": [
        {
          "internalType": "string",
          "name": "_menuName",
          "type": "string"
        },
        {
          "internalType": "uint256",
          "name": "_price",
          "type": "uint256"
        }
      ],
      "name": "storeMenuRegist",
      "outputs": [],
      "stateMutability": "nonpayable",
      "type": "function"
    },
    {
      "inputs": [
        {
          "internalType": "uint256",
          "name": "_orderId",
          "type": "uint256"
        }
      ],
      "name": "storeAccept",
      "outputs": [],
      "stateMutability": "nonpayable",
      "type": "function"
    },
    {
      "inputs": [
        {
          "internalType": "uint256",
          "name": "_orderId",
          "type": "uint256"
        }
      ],
      "name": "storeDecline",
      "outputs": [],
      "stateMutability": "nonpayable",
      "type": "function"
    },
    {
      "inputs": [
        {
          "internalType": "uint256",
          "name": "_orderId",
          "type": "uint256"
        }
      ],
      "name": "cookFinish",
      "outputs": [],
      "stateMutability": "nonpayable",
      "type": "function"
    },
    {
      "inputs": [
        {
          "internalType": "string",
          "name": "_customerAddress",
          "type": "string"
        }
      ],
      "name": "customerRegist",
      "outputs": [],
      "stateMutability": "nonpayable",
      "type": "function"
    },
    {
      "inputs": [
        {
          "internalType": "address",
          "name": "_storeAddr",
          "type": "address"
        },
        {
          "internalType": "string",
          "name": "_foodName",
          "type": "string"
        },
        {
          "internalType": "uint256",
          "name": "_count",
          "type": "uint256"
        }
      ],
      "name": "addMenuToBusket",
      "outputs": [],
      "stateMutability": "nonpayable",
      "type": "function"
    },
    {
      "inputs": [],
      "name": "menuTotalPriceForBasket",
      "outputs": [
        {
          "internalType": "uint256",
          "name": "",
          "type": "uint256"
        }
      ],
      "stateMutability": "view",
      "type": "function"
    },
    {
      "inputs": [
        {
          "internalType": "uint256",
          "name": "_deliveryTip",
          "type": "uint256"
        }
      ],
      "name": "ordering",
      "outputs": [],
      "stateMutability": "nonpayable",
      "type": "function"
    },
    {
      "inputs": [],
      "name": "payment",
      "outputs": [],
      "stateMutability": "payable",
      "type": "function"
    },
    {
      "inputs": [],
      "name": "riderRegist",
      "outputs": [],
      "stateMutability": "nonpayable",
      "type": "function"
    },
    {
      "inputs": [
        {
          "internalType": "uint256",
          "name": "_orderId",
          "type": "uint256"
        }
      ],
      "name": "riderPickOrder",
      "outputs": [],
      "stateMutability": "nonpayable",
      "type": "function"
    },
    {
      "inputs": [
        {
          "internalType": "uint256",
          "name": "_orderId",
          "type": "uint256"
        }
      ],
      "name": "riderStartDelivery",
      "outputs": [],
      "stateMutability": "nonpayable",
      "type": "function"
    },
    {
      "inputs": [
        {
          "internalType": "uint256",
          "name": "_orderId",
          "type": "uint256"
        }
      ],
      "name": "riderFinishDelivery",
      "outputs": [],
      "stateMutability": "nonpayable",
      "type": "function"
    },
    {
      "inputs": [
        {
          "internalType": "uint256",
          "name": "_amount",
          "type": "uint256"
        }
      ],
      "name": "withdraw",
      "outputs": [],
      "stateMutability": "nonpayable",
      "type": "function"
    }
  ],
  "bytecode": "0x608060405234801561001057600080fd5b50336000806101000a81548173ffffffffffffffffffffffffffffffffffffffff021916908373ffffffffffffffffffffffffffffffffffffffff160217905550615afa80620000616000396000f3fe6080604052600436106100fe5760003560e01c806378300648116100955780639d78c834116100645780639d78c834146102c0578063aea77a27146102eb578063b3233ff514610314578063cffe01811461033f578063de85c45c14610368576100fe565b8063783006481461021a578063853db03e146102435780638da5cb5b1461026c578063996f43d314610297576100fe565b806342f6487a116100d157806342f6487a146101a7578063556af2b8146101b15780635f74fc0c146101da5780636360486d146101f1576100fe565b806303f6fb9c14610103578063225de0941461012c5780632bc4acea146101555780632e1a7d4d1461017e575b600080fd5b34801561010f57600080fd5b5061012a60048036038101906101259190614f88565b610391565b005b34801561013857600080fd5b50610153600480360381019061014e9190614f88565b611edf565b005b34801561016157600080fd5b5061017c60048036038101906101779190614f88565b6122cb565b005b34801561018a57600080fd5b506101a560048036038101906101a09190614f88565b612431565b005b6101af6124e6565b005b3480156101bd57600080fd5b506101d860048036038101906101d391906150fb565b612aa6565b005b3480156101e657600080fd5b506101ef612b42565b005b3480156101fd57600080fd5b5061021860048036038101906102139190614f88565b612bcb565b005b34801561022657600080fd5b50610241600480360381019061023c9190615144565b612d30565b005b34801561024f57600080fd5b5061026a60048036038101906102659190614f88565b612f02565b005b34801561027857600080fd5b50610281613b24565b60405161028e91906151e1565b60405180910390f35b3480156102a357600080fd5b506102be60048036038101906102b99190615228565b613b48565b005b3480156102cc57600080fd5b506102d561405e565b6040516102e291906152a6565b60405180910390f35b3480156102f757600080fd5b50610312600480360381019061030d9190614f88565b614064565b005b34801561032057600080fd5b50610329614a92565b60405161033691906152a6565b60405180910390f35b34801561034b57600080fd5b5061036660048036038101906103619190614f88565b614bf2565b005b34801561037457600080fd5b5061038f600480360381019061038a91906152c1565b614da6565b005b600160048111156103a5576103a4615339565b5b600460003373ffffffffffffffffffffffffffffffffffffffff1673ffffffffffffffffffffffffffffffffffffffff1681526020019081526020016000206001016000838152602001908152602001600020600a0160019054906101000a900460ff16600481111561041b5761041a615339565b5b1461042557600080fd5b6003600460003373ffffffffffffffffffffffffffffffffffffffff1673ffffffffffffffffffffffffffffffffffffffff1681526020019081526020016000206001016000838152602001908152602001600020600a0160016101000a81548160ff0219169083600481111561049f5761049e615339565b5b021790555060005b6005805490508110156105425781600582815481106104c9576104c8615368565b5b90600052602060002090600b0201600001540361052f576003600582815481106104f6576104f5615368565b5b90600052602060002090600b0201600a0160016101000a81548160ff0219169083600481111561052957610528615339565b5b02179055505b808061053a906153c6565b9150506104a7565b50600060016000600460003373ffffffffffffffffffffffffffffffffffffffff1673ffffffffffffffffffffffffffffffffffffffff168152602001908152602001600020600101600085815260200190815260200160002060010160009054906101000a900473ffffffffffffffffffffffffffffffffffffffff1673ffffffffffffffffffffffffffffffffffffffff1673ffffffffffffffffffffffffffffffffffffffff1681526020019081526020016000206014016000838152602001908152602001600020905060016000600460003373ffffffffffffffffffffffffffffffffffffffff1673ffffffffffffffffffffffffffffffffffffffff168152602001908152602001600020600101600085815260200190815260200160002060010160009054906101000a900473ffffffffffffffffffffffffffffffffffffffff1673ffffffffffffffffffffffffffffffffffffffff1673ffffffffffffffffffffffffffffffffffffffff16815260200190815260200160002060090160000154816000018190555060016000600460003373ffffffffffffffffffffffffffffffffffffffff1673ffffffffffffffffffffffffffffffffffffffff168152602001908152602001600020600101600085815260200190815260200160002060010160009054906101000a900473ffffffffffffffffffffffffffffffffffffffff1673ffffffffffffffffffffffffffffffffffffffff1673ffffffffffffffffffffffffffffffffffffffff16815260200190815260200160002060090160010160009054906101000a900473ffffffffffffffffffffffffffffffffffffffff168160010160006101000a81548173ffffffffffffffffffffffffffffffffffffffff021916908373ffffffffffffffffffffffffffffffffffffffff16021790555060016000600460003373ffffffffffffffffffffffffffffffffffffffff1673ffffffffffffffffffffffffffffffffffffffff168152602001908152602001600020600101600085815260200190815260200160002060010160009054906101000a900473ffffffffffffffffffffffffffffffffffffffff1673ffffffffffffffffffffffffffffffffffffffff1673ffffffffffffffffffffffffffffffffffffffff16815260200190815260200160002060090160020160009054906101000a900473ffffffffffffffffffffffffffffffffffffffff168160020160006101000a81548173ffffffffffffffffffffffffffffffffffffffff021916908373ffffffffffffffffffffffffffffffffffffffff16021790555060016000600460003373ffffffffffffffffffffffffffffffffffffffff1673ffffffffffffffffffffffffffffffffffffffff168152602001908152602001600020600101600085815260200190815260200160002060010160009054906101000a900473ffffffffffffffffffffffffffffffffffffffff1673ffffffffffffffffffffffffffffffffffffffff1673ffffffffffffffffffffffffffffffffffffffff1681526020019081526020016000206009016004018160040190816109db9190615645565b5060016000600460003373ffffffffffffffffffffffffffffffffffffffff1673ffffffffffffffffffffffffffffffffffffffff168152602001908152602001600020600101600085815260200190815260200160002060010160009054906101000a900473ffffffffffffffffffffffffffffffffffffffff1673ffffffffffffffffffffffffffffffffffffffff1673ffffffffffffffffffffffffffffffffffffffff168152602001908152602001600020600901600501816005019081610aa79190615645565b5060005b60016000600460003373ffffffffffffffffffffffffffffffffffffffff1673ffffffffffffffffffffffffffffffffffffffff168152602001908152602001600020600101600086815260200190815260200160002060010160009054906101000a900473ffffffffffffffffffffffffffffffffffffffff1673ffffffffffffffffffffffffffffffffffffffff1673ffffffffffffffffffffffffffffffffffffffff16815260200190815260200160002060020160040180549050811015610d885760016000600460003373ffffffffffffffffffffffffffffffffffffffff1673ffffffffffffffffffffffffffffffffffffffff168152602001908152602001600020600101600086815260200190815260200160002060010160009054906101000a900473ffffffffffffffffffffffffffffffffffffffff1673ffffffffffffffffffffffffffffffffffffffff1673ffffffffffffffffffffffffffffffffffffffff1681526020019081526020016000206002016004018181548110610c3e57610c3d615368565b5b90600052602060002090600302018260060160016000600460003373ffffffffffffffffffffffffffffffffffffffff1673ffffffffffffffffffffffffffffffffffffffff168152602001908152602001600020600101600088815260200190815260200160002060010160009054906101000a900473ffffffffffffffffffffffffffffffffffffffff1673ffffffffffffffffffffffffffffffffffffffff1673ffffffffffffffffffffffffffffffffffffffff1681526020019081526020016000206002016004018381548110610d1d57610d1c615368565b5b9060005260206000209060030201600001604051610d3b91906157bb565b908152602001604051809103902060008201816000019081610d5d91906157e8565b5060018201548160010155600282015481600201559050508080610d80906153c6565b915050610aab565b5060016000600460003373ffffffffffffffffffffffffffffffffffffffff1673ffffffffffffffffffffffffffffffffffffffff168152602001908152602001600020600101600085815260200190815260200160002060010160009054906101000a900473ffffffffffffffffffffffffffffffffffffffff1673ffffffffffffffffffffffffffffffffffffffff1673ffffffffffffffffffffffffffffffffffffffff16815260200190815260200160002060090160070154816007018190555060016000600460003373ffffffffffffffffffffffffffffffffffffffff1673ffffffffffffffffffffffffffffffffffffffff168152602001908152602001600020600101600085815260200190815260200160002060010160009054906101000a900473ffffffffffffffffffffffffffffffffffffffff1673ffffffffffffffffffffffffffffffffffffffff1673ffffffffffffffffffffffffffffffffffffffff16815260200190815260200160002060090160080154816008018190555060016000600460003373ffffffffffffffffffffffffffffffffffffffff1673ffffffffffffffffffffffffffffffffffffffff168152602001908152602001600020600101600085815260200190815260200160002060010160009054906101000a900473ffffffffffffffffffffffffffffffffffffffff1673ffffffffffffffffffffffffffffffffffffffff1673ffffffffffffffffffffffffffffffffffffffff16815260200190815260200160002060090160090154816009018190555060016000600460003373ffffffffffffffffffffffffffffffffffffffff1673ffffffffffffffffffffffffffffffffffffffff168152602001908152602001600020600101600085815260200190815260200160002060010160009054906101000a900473ffffffffffffffffffffffffffffffffffffffff1673ffffffffffffffffffffffffffffffffffffffff1673ffffffffffffffffffffffffffffffffffffffff168152602001908152602001600020600901600a0160009054906101000a900460ff1681600a0160006101000a81548160ff021916908360058111156110c4576110c3615339565b5b021790555060016000600460003373ffffffffffffffffffffffffffffffffffffffff1673ffffffffffffffffffffffffffffffffffffffff168152602001908152602001600020600101600085815260200190815260200160002060010160009054906101000a900473ffffffffffffffffffffffffffffffffffffffff1673ffffffffffffffffffffffffffffffffffffffff1673ffffffffffffffffffffffffffffffffffffffff168152602001908152602001600020600901600a0160019054906101000a900460ff1681600a0160016101000a81548160ff021916908360048111156111b8576111b7615339565b5b02179055506000600160003373ffffffffffffffffffffffffffffffffffffffff1673ffffffffffffffffffffffffffffffffffffffff168152602001908152602001600020600901600001819055506000600160003373ffffffffffffffffffffffffffffffffffffffff1673ffffffffffffffffffffffffffffffffffffffff16815260200190815260200160002060090160010160006101000a81548173ffffffffffffffffffffffffffffffffffffffff021916908373ffffffffffffffffffffffffffffffffffffffff1602179055506000600160003373ffffffffffffffffffffffffffffffffffffffff1673ffffffffffffffffffffffffffffffffffffffff16815260200190815260200160002060090160020160006101000a81548173ffffffffffffffffffffffffffffffffffffffff021916908373ffffffffffffffffffffffffffffffffffffffff16021790555060405180602001604052806000815250600160003373ffffffffffffffffffffffffffffffffffffffff1673ffffffffffffffffffffffffffffffffffffffff168152602001908152602001600020600901600401908161137391906158db565b5060405180602001604052806000815250600160003373ffffffffffffffffffffffffffffffffffffffff1673ffffffffffffffffffffffffffffffffffffffff16815260200190815260200160002060090160050190816113d591906158db565b5060005b60016000600460003373ffffffffffffffffffffffffffffffffffffffff1673ffffffffffffffffffffffffffffffffffffffff168152602001908152602001600020600101600086815260200190815260200160002060010160009054906101000a900473ffffffffffffffffffffffffffffffffffffffff1673ffffffffffffffffffffffffffffffffffffffff1673ffffffffffffffffffffffffffffffffffffffff1681526020019081526020016000206002016004018054905081101561161457600160003373ffffffffffffffffffffffffffffffffffffffff1673ffffffffffffffffffffffffffffffffffffffff16815260200190815260200160002060090160060160016000600460003373ffffffffffffffffffffffffffffffffffffffff1673ffffffffffffffffffffffffffffffffffffffff168152602001908152602001600020600101600087815260200190815260200160002060010160009054906101000a900473ffffffffffffffffffffffffffffffffffffffff1673ffffffffffffffffffffffffffffffffffffffff1673ffffffffffffffffffffffffffffffffffffffff1681526020019081526020016000206002016004016000815481106115b2576115b1615368565b5b90600052602060002090600302016000016040516115d091906157bb565b9081526020016040518091039020600080820160006115ef9190614ee1565b600182016000905560028201600090555050808061160c906153c6565b9150506113d9565b506000600160003373ffffffffffffffffffffffffffffffffffffffff1673ffffffffffffffffffffffffffffffffffffffff168152602001908152602001600020600901600701819055506000600160003373ffffffffffffffffffffffffffffffffffffffff1673ffffffffffffffffffffffffffffffffffffffff168152602001908152602001600020600901600801819055506000600160003373ffffffffffffffffffffffffffffffffffffffff1673ffffffffffffffffffffffffffffffffffffffff168152602001908152602001600020600901600901819055506004600160003373ffffffffffffffffffffffffffffffffffffffff1673ffffffffffffffffffffffffffffffffffffffff168152602001908152602001600020600901600a0160006101000a81548160ff0219169083600581111561175f5761175e615339565b5b02179055506000600160003373ffffffffffffffffffffffffffffffffffffffff1673ffffffffffffffffffffffffffffffffffffffff168152602001908152602001600020600901600a0160016101000a81548160ff021916908360048111156117cd576117cc615339565b5b0217905550600060016000600460003373ffffffffffffffffffffffffffffffffffffffff1673ffffffffffffffffffffffffffffffffffffffff168152602001908152602001600020600101600086815260200190815260200160002060010160009054906101000a900473ffffffffffffffffffffffffffffffffffffffff1673ffffffffffffffffffffffffffffffffffffffff1673ffffffffffffffffffffffffffffffffffffffff16815260200190815260200160002060020160000160006101000a81548173ffffffffffffffffffffffffffffffffffffffff021916908373ffffffffffffffffffffffffffffffffffffffff160217905550600060016000600460003373ffffffffffffffffffffffffffffffffffffffff1673ffffffffffffffffffffffffffffffffffffffff168152602001908152602001600020600101600086815260200190815260200160002060010160009054906101000a900473ffffffffffffffffffffffffffffffffffffffff1673ffffffffffffffffffffffffffffffffffffffff1673ffffffffffffffffffffffffffffffffffffffff16815260200190815260200160002060020160010160006101000a81548173ffffffffffffffffffffffffffffffffffffffff021916908373ffffffffffffffffffffffffffffffffffffffff1602179055506040518060200160405280600081525060016000600460003373ffffffffffffffffffffffffffffffffffffffff1673ffffffffffffffffffffffffffffffffffffffff168152602001908152602001600020600101600086815260200190815260200160002060010160009054906101000a900473ffffffffffffffffffffffffffffffffffffffff1673ffffffffffffffffffffffffffffffffffffffff1673ffffffffffffffffffffffffffffffffffffffff1681526020019081526020016000206002016002019081611a9f91906158db565b506040518060200160405280600081525060016000600460003373ffffffffffffffffffffffffffffffffffffffff1673ffffffffffffffffffffffffffffffffffffffff168152602001908152602001600020600101600086815260200190815260200160002060010160009054906101000a900473ffffffffffffffffffffffffffffffffffffffff1673ffffffffffffffffffffffffffffffffffffffff1673ffffffffffffffffffffffffffffffffffffffff1681526020019081526020016000206002016003019081611b7791906158db565b5060005b60016000600460003373ffffffffffffffffffffffffffffffffffffffff1673ffffffffffffffffffffffffffffffffffffffff168152602001908152602001600020600101600086815260200190815260200160002060010160009054906101000a900473ffffffffffffffffffffffffffffffffffffffff1673ffffffffffffffffffffffffffffffffffffffff1673ffffffffffffffffffffffffffffffffffffffff16815260200190815260200160002060020160040180549050811015611d585760016000600460003373ffffffffffffffffffffffffffffffffffffffff1673ffffffffffffffffffffffffffffffffffffffff168152602001908152602001600020600101600086815260200190815260200160002060010160009054906101000a900473ffffffffffffffffffffffffffffffffffffffff1673ffffffffffffffffffffffffffffffffffffffff1673ffffffffffffffffffffffffffffffffffffffff168152602001908152602001600020600201600401805480611d0c57611d0b6159ad565b5b600190038181906000526020600020906003020160008082016000611d319190614ee1565b60018201600090556002820160009055505090558080611d50906153c6565b915050611b7b565b50600060016000600460003373ffffffffffffffffffffffffffffffffffffffff1673ffffffffffffffffffffffffffffffffffffffff168152602001908152602001600020600101600086815260200190815260200160002060010160009054906101000a900473ffffffffffffffffffffffffffffffffffffffff1673ffffffffffffffffffffffffffffffffffffffff1673ffffffffffffffffffffffffffffffffffffffff16815260200190815260200160002060020160050181905550600060016000600460003373ffffffffffffffffffffffffffffffffffffffff1673ffffffffffffffffffffffffffffffffffffffff168152602001908152602001600020600101600086815260200190815260200160002060010160009054906101000a900473ffffffffffffffffffffffffffffffffffffffff1673ffffffffffffffffffffffffffffffffffffffff1673ffffffffffffffffffffffffffffffffffffffff168152602001908152602001600020600201600601819055505050565b600060016000600360003373ffffffffffffffffffffffffffffffffffffffff1673ffffffffffffffffffffffffffffffffffffffff168152602001908152602001600020600401600085815260200190815260200160002060010160009054906101000a900473ffffffffffffffffffffffffffffffffffffffff1673ffffffffffffffffffffffffffffffffffffffff1673ffffffffffffffffffffffffffffffffffffffff168152602001908152602001600020600901600a0160006101000a81548160ff02191690836005811115611fbe57611fbd615339565b5b02179055506000600360003373ffffffffffffffffffffffffffffffffffffffff1673ffffffffffffffffffffffffffffffffffffffff1681526020019081526020016000206004016000838152602001908152602001600020600a0160006101000a81548160ff0219169083600581111561203d5761203c615339565b5b021790555060005b60058054905081101561219457816005828154811061206757612066615368565b5b90600052602060002090600b02016000015403612181576005818154811061209257612091615368565b5b90600052602060002090600b02016000808201600090556001820160006101000a81549073ffffffffffffffffffffffffffffffffffffffff02191690556002820160006101000a81549073ffffffffffffffffffffffffffffffffffffffff02191690556003820160006101000a81549073ffffffffffffffffffffffffffffffffffffffff021916905560048201600061212e9190614ee1565b60058201600061213e9190614ee1565b600782016000905560088201600090556009820160009055600a820160006101000a81549060ff0219169055600a820160016101000a81549060ff021916905550505b808061218c906153c6565b915050612045565b50600360003373ffffffffffffffffffffffffffffffffffffffff1673ffffffffffffffffffffffffffffffffffffffff16815260200190815260200160002060040160008281526020019081526020016000206000808201600090556001820160006101000a81549073ffffffffffffffffffffffffffffffffffffffff02191690556002820160006101000a81549073ffffffffffffffffffffffffffffffffffffffff02191690556003820160006101000a81549073ffffffffffffffffffffffffffffffffffffffff02191690556004820160006122769190614ee1565b6005820160006122869190614ee1565b600782016000905560088201600090556009820160009055600a820160006101000a81549060ff0219169055600a820160016101000a81549060ff0219169055505050565b600260016000600360003373ffffffffffffffffffffffffffffffffffffffff1673ffffffffffffffffffffffffffffffffffffffff168152602001908152602001600020600401600085815260200190815260200160002060010160009054906101000a900473ffffffffffffffffffffffffffffffffffffffff1673ffffffffffffffffffffffffffffffffffffffff1673ffffffffffffffffffffffffffffffffffffffff168152602001908152602001600020600901600a0160006101000a81548160ff021916908360058111156123aa576123a9615339565b5b02179055506002600360003373ffffffffffffffffffffffffffffffffffffffff1673ffffffffffffffffffffffffffffffffffffffff1681526020019081526020016000206004016000838152602001908152602001600020600a0160006101000a81548160ff0219169083600581111561242957612428615339565b5b021790555050565b60008054906101000a900473ffffffffffffffffffffffffffffffffffffffff1673ffffffffffffffffffffffffffffffffffffffff163373ffffffffffffffffffffffffffffffffffffffff161461248957600080fd5b3373ffffffffffffffffffffffffffffffffffffffff166108fc670de0b6b3a7640000836124b791906159dc565b9081150290604051600060405180830381858888f193505050501580156124e2573d6000803e3d6000fd5b5050565b600160058111156124fa576124f9615339565b5b600160003373ffffffffffffffffffffffffffffffffffffffff1673ffffffffffffffffffffffffffffffffffffffff168152602001908152602001600020600901600a0160009054906101000a900460ff16600581111561255f5761255e615339565b5b1480156125e257506002600481111561257b5761257a615339565b5b600160003373ffffffffffffffffffffffffffffffffffffffff1673ffffffffffffffffffffffffffffffffffffffff168152602001908152602001600020600901600a0160019054906101000a900460ff1660048111156125e0576125df615339565b5b145b6125eb57600080fd5b670de0b6b3a7640000600160003373ffffffffffffffffffffffffffffffffffffffff1673ffffffffffffffffffffffffffffffffffffffff16815260200190815260200160002060090160090154600160003373ffffffffffffffffffffffffffffffffffffffff1673ffffffffffffffffffffffffffffffffffffffff16815260200190815260200160002060090160080154600160003373ffffffffffffffffffffffffffffffffffffffff1673ffffffffffffffffffffffffffffffffffffffff168152602001908152602001600020600901600701546126d09190615a1e565b6126da9190615a1e565b6126e491906159dc565b34146126ef57600080fd5b600560036000600160003373ffffffffffffffffffffffffffffffffffffffff1673ffffffffffffffffffffffffffffffffffffffff16815260200190815260200160002060090160020160009054906101000a900473ffffffffffffffffffffffffffffffffffffffff1673ffffffffffffffffffffffffffffffffffffffff1673ffffffffffffffffffffffffffffffffffffffff1681526020019081526020016000206004016000600160003373ffffffffffffffffffffffffffffffffffffffff1673ffffffffffffffffffffffffffffffffffffffff168152602001908152602001600020600901600001548152602001908152602001600020600a0160006101000a81548160ff0219169083600581111561281357612812615339565b5b021790555060005b600580549050811015612901573373ffffffffffffffffffffffffffffffffffffffff166005828154811061285357612852615368565b5b90600052602060002090600b020160010160009054906101000a900473ffffffffffffffffffffffffffffffffffffffff1673ffffffffffffffffffffffffffffffffffffffff16036128ee5760058082815481106128b5576128b4615368565b5b90600052602060002090600b0201600a0160006101000a81548160ff021916908360058111156128e8576128e7615339565b5b02179055505b80806128f9906153c6565b91505061281b565b5060058081111561291557612914615339565b5b600160003373ffffffffffffffffffffffffffffffffffffffff1673ffffffffffffffffffffffffffffffffffffffff168152602001908152602001600020600901600a0160009054906101000a900460ff16600581111561297a57612979615339565b5b50506004806000600160003373ffffffffffffffffffffffffffffffffffffffff1673ffffffffffffffffffffffffffffffffffffffff16815260200190815260200160002060090160030160009054906101000a900473ffffffffffffffffffffffffffffffffffffffff1673ffffffffffffffffffffffffffffffffffffffff1673ffffffffffffffffffffffffffffffffffffffff1681526020019081526020016000206001016000600160003373ffffffffffffffffffffffffffffffffffffffff1673ffffffffffffffffffffffffffffffffffffffff168152602001908152602001600020600901600001548152602001908152602001600020600a0160016101000a81548160ff02191690836004811115612a9f57612a9e615339565b5b0217905550565b6000600160003373ffffffffffffffffffffffffffffffffffffffff1673ffffffffffffffffffffffffffffffffffffffff1681526020019081526020016000209050338160000160006101000a81548173ffffffffffffffffffffffffffffffffffffffff021916908373ffffffffffffffffffffffffffffffffffffffff16021790555081816001019081612b3d91906158db565b505050565b6000600460003373ffffffffffffffffffffffffffffffffffffffff1673ffffffffffffffffffffffffffffffffffffffff1681526020019081526020016000209050338160000160006101000a81548173ffffffffffffffffffffffffffffffffffffffff021916908373ffffffffffffffffffffffffffffffffffffffff16021790555050565b6001806000600360003373ffffffffffffffffffffffffffffffffffffffff1673ffffffffffffffffffffffffffffffffffffffff168152602001908152602001600020600401600085815260200190815260200160002060010160009054906101000a900473ffffffffffffffffffffffffffffffffffffffff1673ffffffffffffffffffffffffffffffffffffffff1673ffffffffffffffffffffffffffffffffffffffff168152602001908152602001600020600901600a0160006101000a81548160ff02191690836005811115612ca957612ca8615339565b5b02179055506001600360003373ffffffffffffffffffffffffffffffffffffffff1673ffffffffffffffffffffffffffffffffffffffff1681526020019081526020016000206004016000838152602001908152602001600020600a0160006101000a81548160ff02191690836005811115612d2857612d27615339565b5b021790555050565b60005b600280549050811015612e56573373ffffffffffffffffffffffffffffffffffffffff1660028281548110612d6b57612d6a615368565b5b906000526020600020906004020160000160009054906101000a900473ffffffffffffffffffffffffffffffffffffffff1673ffffffffffffffffffffffffffffffffffffffff1603612e43576040518060600160405280848152602001838152602001600081525060028281548110612de857612de7615368565b5b906000526020600020906004020160030184604051612e079190615aad565b90815260200160405180910390206000820151816000019081612e2a91906158db565b5060208201518160010155604082015181600201559050505b8080612e4e906153c6565b915050612d33565b5060405180606001604052808381526020018281526020016000815250600360003373ffffffffffffffffffffffffffffffffffffffff1673ffffffffffffffffffffffffffffffffffffffff16815260200190815260200160002060030183604051612ec39190615aad565b90815260200160405180910390206000820151816000019081612ee691906158db565b5060208201518160010155604082015181600201559050505050565b60066000815480929190612f15906153c6565b91905055506000600160003373ffffffffffffffffffffffffffffffffffffffff1673ffffffffffffffffffffffffffffffffffffffff16815260200190815260200160002060090190506006548160000181905550338160010160006101000a81548173ffffffffffffffffffffffffffffffffffffffff021916908373ffffffffffffffffffffffffffffffffffffffff160217905550600160003373ffffffffffffffffffffffffffffffffffffffff1673ffffffffffffffffffffffffffffffffffffffff16815260200190815260200160002060020160010160009054906101000a900473ffffffffffffffffffffffffffffffffffffffff168160020160006101000a81548173ffffffffffffffffffffffffffffffffffffffff021916908373ffffffffffffffffffffffffffffffffffffffff160217905550600160003373ffffffffffffffffffffffffffffffffffffffff1673ffffffffffffffffffffffffffffffffffffffff1681526020019081526020016000206002016002018160040190816130ab9190615645565b50600160003373ffffffffffffffffffffffffffffffffffffffff1673ffffffffffffffffffffffffffffffffffffffff1681526020019081526020016000206002016003018160050190816131019190615645565b5060005b600160003373ffffffffffffffffffffffffffffffffffffffff1673ffffffffffffffffffffffffffffffffffffffff1681526020019081526020016000206002016004018054905081101561328057600160003373ffffffffffffffffffffffffffffffffffffffff1673ffffffffffffffffffffffffffffffffffffffff16815260200190815260200160002060020160040181815481106131ac576131ab615368565b5b906000526020600020906003020182600601600160003373ffffffffffffffffffffffffffffffffffffffff1673ffffffffffffffffffffffffffffffffffffffff168152602001908152602001600020600201600401838154811061321557613214615368565b5b906000526020600020906003020160000160405161323391906157bb565b90815260200160405180910390206000820181600001908161325591906157e8565b5060018201548160010155600282015481600201559050508080613278906153c6565b915050613105565b50613289614a92565b816007018190555060008160080181905550818160090181905550600481600a0160006101000a81548160ff021916908360058111156132cc576132cb615339565b5b0217905550600081600a0160016101000a81548160ff021916908360048111156132f9576132f8615339565b5b0217905550600060036000600160003373ffffffffffffffffffffffffffffffffffffffff1673ffffffffffffffffffffffffffffffffffffffff16815260200190815260200160002060020160010160009054906101000a900473ffffffffffffffffffffffffffffffffffffffff1673ffffffffffffffffffffffffffffffffffffffff1673ffffffffffffffffffffffffffffffffffffffff16815260200190815260200160002060040160008360000154815260200190815260200160002090506006548160000181905550338160010160006101000a81548173ffffffffffffffffffffffffffffffffffffffff021916908373ffffffffffffffffffffffffffffffffffffffff160217905550600160003373ffffffffffffffffffffffffffffffffffffffff1673ffffffffffffffffffffffffffffffffffffffff16815260200190815260200160002060020160010160009054906101000a900473ffffffffffffffffffffffffffffffffffffffff168160020160006101000a81548173ffffffffffffffffffffffffffffffffffffffff021916908373ffffffffffffffffffffffffffffffffffffffff160217905550600160003373ffffffffffffffffffffffffffffffffffffffff1673ffffffffffffffffffffffffffffffffffffffff1681526020019081526020016000206002016002018160040190816135099190615645565b50600160003373ffffffffffffffffffffffffffffffffffffffff1673ffffffffffffffffffffffffffffffffffffffff16815260200190815260200160002060020160030181600501908161355f9190615645565b5060005b600160003373ffffffffffffffffffffffffffffffffffffffff1673ffffffffffffffffffffffffffffffffffffffff168152602001908152602001600020600201600401805490508110156136de57600160003373ffffffffffffffffffffffffffffffffffffffff1673ffffffffffffffffffffffffffffffffffffffff168152602001908152602001600020600201600401818154811061360a57613609615368565b5b906000526020600020906003020182600601600160003373ffffffffffffffffffffffffffffffffffffffff1673ffffffffffffffffffffffffffffffffffffffff168152602001908152602001600020600201600401838154811061367357613672615368565b5b906000526020600020906003020160000160405161369191906157bb565b9081526020016040518091039020600082018160000190816136b391906157e8565b50600182015481600101556002820154816002015590505080806136d6906153c6565b915050613563565b506136e7614a92565b816007018190555060008160080181905550828160090181905550600481600a0160006101000a81548160ff0219169083600581111561372a57613729615339565b5b0217905550600081600a0160016101000a81548160ff0219169083600481111561375757613756615339565b5b0217905550600060056001816001815401808255809150500390600052602060002090600b020190506006548160000181905550338160010160006101000a81548173ffffffffffffffffffffffffffffffffffffffff021916908373ffffffffffffffffffffffffffffffffffffffff160217905550600160003373ffffffffffffffffffffffffffffffffffffffff1673ffffffffffffffffffffffffffffffffffffffff16815260200190815260200160002060020160010160009054906101000a900473ffffffffffffffffffffffffffffffffffffffff168160020160006101000a81548173ffffffffffffffffffffffffffffffffffffffff021916908373ffffffffffffffffffffffffffffffffffffffff160217905550600160003373ffffffffffffffffffffffffffffffffffffffff1673ffffffffffffffffffffffffffffffffffffffff1681526020019081526020016000206002016002018160040190816138cb9190615645565b50600160003373ffffffffffffffffffffffffffffffffffffffff1673ffffffffffffffffffffffffffffffffffffffff1681526020019081526020016000206002016003018160050190816139219190615645565b5060005b600160003373ffffffffffffffffffffffffffffffffffffffff1673ffffffffffffffffffffffffffffffffffffffff16815260200190815260200160002060020160040180549050811015613aa057600160003373ffffffffffffffffffffffffffffffffffffffff1673ffffffffffffffffffffffffffffffffffffffff16815260200190815260200160002060020160040181815481106139cc576139cb615368565b5b906000526020600020906003020184600601600160003373ffffffffffffffffffffffffffffffffffffffff1673ffffffffffffffffffffffffffffffffffffffff1681526020019081526020016000206002016004018381548110613a3557613a34615368565b5b9060005260206000209060030201600001604051613a5391906157bb565b908152602001604051809103902060008201816000019081613a7591906157e8565b5060018201548160010155600282015481600201559050508080613a98906153c6565b915050613925565b50613aa9614a92565b816007018190555060008160080181905550838160090181905550600481600a0160006101000a81548160ff02191690836005811115613aec57613aeb615339565b5b0217905550600081600a0160016101000a81548160ff02191690836004811115613b1957613b18615339565b5b021790555050505050565b60008054906101000a900473ffffffffffffffffffffffffffffffffffffffff1681565b33600160003373ffffffffffffffffffffffffffffffffffffffff1673ffffffffffffffffffffffffffffffffffffffff16815260200190815260200160002060020160000160006101000a81548173ffffffffffffffffffffffffffffffffffffffff021916908373ffffffffffffffffffffffffffffffffffffffff16021790555082600160003373ffffffffffffffffffffffffffffffffffffffff1673ffffffffffffffffffffffffffffffffffffffff16815260200190815260200160002060020160010160006101000a81548173ffffffffffffffffffffffffffffffffffffffff021916908373ffffffffffffffffffffffffffffffffffffffff160217905550600160003373ffffffffffffffffffffffffffffffffffffffff1673ffffffffffffffffffffffffffffffffffffffff168152602001908152602001600020600101600160003373ffffffffffffffffffffffffffffffffffffffff1673ffffffffffffffffffffffffffffffffffffffff1681526020019081526020016000206002016002019081613ce39190615645565b5060005b600280549050811015613fbc578373ffffffffffffffffffffffffffffffffffffffff1660028281548110613d1f57613d1e615368565b5b906000526020600020906004020160000160009054906101000a900473ffffffffffffffffffffffffffffffffffffffff1673ffffffffffffffffffffffffffffffffffffffff1603613fa95760028181548110613d8057613d7f615368565b5b9060005260206000209060040201600201600160003373ffffffffffffffffffffffffffffffffffffffff1673ffffffffffffffffffffffffffffffffffffffff1681526020019081526020016000206002016003019081613de29190615645565b50600160003373ffffffffffffffffffffffffffffffffffffffff1673ffffffffffffffffffffffffffffffffffffffff168152602001908152602001600020600201600401604051806060016040528060028481548110613e4757613e46615368565b5b906000526020600020906004020160030186604051613e669190615aad565b90815260200160405180910390206000018054613e829061543d565b80601f0160208091040260200160405190810160405280929190818152602001828054613eae9061543d565b8015613efb5780601f10613ed057610100808354040283529160200191613efb565b820191906000526020600020905b815481529060010190602001808311613ede57829003601f168201915b5050505050815260200160028481548110613f1957613f18615368565b5b906000526020600020906004020160030186604051613f389190615aad565b90815260200160405180910390206001015481526020018481525090806001815401808255809150506001900390600052602060002090600302016000909190919091506000820151816000019081613f9191906158db565b50602082015181600101556040820151816002015550505b8080613fb4906153c6565b915050613ce7565b50613fc5614a92565b600160003373ffffffffffffffffffffffffffffffffffffffff1673ffffffffffffffffffffffffffffffffffffffff168152602001908152602001600020600201600501819055506000600160003373ffffffffffffffffffffffffffffffffffffffff1673ffffffffffffffffffffffffffffffffffffffff16815260200190815260200160002060020160060181905550505050565b60065481565b60005b6005805490508110156142bb57816005828154811061408957614088615368565b5b90600052602060002090600b020160000154036142a8573360016000600584815481106140b9576140b8615368565b5b90600052602060002090600b020160010160009054906101000a900473ffffffffffffffffffffffffffffffffffffffff1673ffffffffffffffffffffffffffffffffffffffff1673ffffffffffffffffffffffffffffffffffffffff16815260200190815260200160002060090160030160006101000a81548173ffffffffffffffffffffffffffffffffffffffff021916908373ffffffffffffffffffffffffffffffffffffffff16021790555033600360006005848154811061418257614181615368565b5b90600052602060002090600b020160020160009054906101000a900473ffffffffffffffffffffffffffffffffffffffff1673ffffffffffffffffffffffffffffffffffffffff1673ffffffffffffffffffffffffffffffffffffffff168152602001908152602001600020600401600084815260200190815260200160002060030160006101000a81548173ffffffffffffffffffffffffffffffffffffffff021916908373ffffffffffffffffffffffffffffffffffffffff160217905550336005828154811061425857614257615368565b5b90600052602060002090600b020160030160006101000a81548173ffffffffffffffffffffffffffffffffffffffff021916908373ffffffffffffffffffffffffffffffffffffffff1602179055505b80806142b3906153c6565b915050614067565b5060005b600580549050811015614a8e573373ffffffffffffffffffffffffffffffffffffffff16600582815481106142f7576142f6615368565b5b90600052602060002090600b020160030160009054906101000a900473ffffffffffffffffffffffffffffffffffffffff1673ffffffffffffffffffffffffffffffffffffffff1603614a7b576000600460003373ffffffffffffffffffffffffffffffffffffffff1673ffffffffffffffffffffffffffffffffffffffff16815260200190815260200160002060010160008481526020019081526020016000209050828160000181905550600582815481106143b8576143b7615368565b5b90600052602060002090600b020160010160009054906101000a900473ffffffffffffffffffffffffffffffffffffffff168160010160006101000a81548173ffffffffffffffffffffffffffffffffffffffff021916908373ffffffffffffffffffffffffffffffffffffffff160217905550600582815481106144405761443f615368565b5b90600052602060002090600b020160020160009054906101000a900473ffffffffffffffffffffffffffffffffffffffff168160020160006101000a81548173ffffffffffffffffffffffffffffffffffffffff021916908373ffffffffffffffffffffffffffffffffffffffff160217905550600582815481106144c8576144c7615368565b5b90600052602060002090600b02016004018160040190816144e99190615645565b50600582815481106144fe576144fd615368565b5b90600052602060002090600b020160050181600501908161451f9190615645565b5060005b600160006005858154811061453b5761453a615368565b5b90600052602060002090600b020160010160009054906101000a900473ffffffffffffffffffffffffffffffffffffffff1673ffffffffffffffffffffffffffffffffffffffff1673ffffffffffffffffffffffffffffffffffffffff1681526020019081526020016000206002016004018054905081101561476d5760016000600585815481106145d0576145cf615368565b5b90600052602060002090600b020160010160009054906101000a900473ffffffffffffffffffffffffffffffffffffffff1673ffffffffffffffffffffffffffffffffffffffff1673ffffffffffffffffffffffffffffffffffffffff168152602001908152602001600020600201600401838154811061465457614653615368565b5b906000526020600020906003020182600601600160006005878154811061467e5761467d615368565b5b90600052602060002090600b020160010160009054906101000a900473ffffffffffffffffffffffffffffffffffffffff1673ffffffffffffffffffffffffffffffffffffffff1673ffffffffffffffffffffffffffffffffffffffff168152602001908152602001600020600201600401858154811061470257614701615368565b5b906000526020600020906003020160000160405161472091906157bb565b90815260200160405180910390206000820181600001908161474291906157e8565b5060018201548160010155600282015481600201559050508080614765906153c6565b915050614523565b506005828154811061478257614781615368565b5b90600052602060002090600b0201600701548160070181905550600582815481106147b0576147af615368565b5b90600052602060002090600b0201600801548160080181905550600582815481106147de576147dd615368565b5b90600052602060002090600b02016009015481600901819055506005828154811061480c5761480b615368565b5b90600052602060002090600b0201600a0160009054906101000a900460ff1681600a0160006101000a81548160ff0219169083600581111561485157614850615339565b5b02179055506005828154811061486a57614869615368565b5b90600052602060002090600b0201600a0160019054906101000a900460ff1681600a0160016101000a81548160ff021916908360048111156148af576148ae615339565b5b02179055506002600583815481106148ca576148c9615368565b5b90600052602060002090600b0201600a0160016101000a81548160ff021916908360048111156148fd576148fc615339565b5b02179055506002600160006005858154811061491c5761491b615368565b5b90600052602060002090600b020160010160009054906101000a900473ffffffffffffffffffffffffffffffffffffffff1673ffffffffffffffffffffffffffffffffffffffff1673ffffffffffffffffffffffffffffffffffffffff168152602001908152602001600020600901600a0160016101000a81548160ff021916908360048111156149b0576149af615339565b5b0217905550600260036000600585815481106149cf576149ce615368565b5b90600052602060002090600b020160020160009054906101000a900473ffffffffffffffffffffffffffffffffffffffff1673ffffffffffffffffffffffffffffffffffffffff1673ffffffffffffffffffffffffffffffffffffffff1681526020019081526020016000206004016000858152602001908152602001600020600a0160016101000a81548160ff02191690836004811115614a7457614a73615339565b5b0217905550505b8080614a86906153c6565b9150506142bf565b5050565b6000806000600160003373ffffffffffffffffffffffffffffffffffffffff1673ffffffffffffffffffffffffffffffffffffffff16815260200190815260200160002060020160040180549050905060005b81811015614be957600160003373ffffffffffffffffffffffffffffffffffffffff1673ffffffffffffffffffffffffffffffffffffffff1681526020019081526020016000206002016004018181548110614b4457614b43615368565b5b906000526020600020906003020160020154600160003373ffffffffffffffffffffffffffffffffffffffff1673ffffffffffffffffffffffffffffffffffffffff1681526020019081526020016000206002016004018281548110614bad57614bac615368565b5b906000526020600020906003020160010154614bc991906159dc565b83614bd49190615a1e565b92508080614be1906153c6565b915050614ae5565b50819250505090565b600480811115614c0557614c04615339565b5b600460003373ffffffffffffffffffffffffffffffffffffffff1673ffffffffffffffffffffffffffffffffffffffff1681526020019081526020016000206001016000838152602001908152602001600020600a0160019054906101000a900460ff166004811115614c7b57614c7a615339565b5b14614c8557600080fd5b6001600460003373ffffffffffffffffffffffffffffffffffffffff1673ffffffffffffffffffffffffffffffffffffffff1681526020019081526020016000206001016000838152602001908152602001600020600a0160016101000a81548160ff02191690836004811115614cff57614cfe615339565b5b021790555060005b600580549050811015614da2578160058281548110614d2957614d28615368565b5b90600052602060002090600b02016000015403614d8f57600160058281548110614d5657614d55615368565b5b90600052602060002090600b0201600a0160016101000a81548160ff02191690836004811115614d8957614d88615339565b5b02179055505b8080614d9a906153c6565b915050614d07565b5050565b600060026001816001815401808255809150500390600052602060002090600402019050338160000160006101000a81548173ffffffffffffffffffffffffffffffffffffffff021916908373ffffffffffffffffffffffffffffffffffffffff16021790555082816001019081614e1e91906158db565b5081816002019081614e3091906158db565b506000600360003373ffffffffffffffffffffffffffffffffffffffff1673ffffffffffffffffffffffffffffffffffffffff1681526020019081526020016000209050338160000160006101000a81548173ffffffffffffffffffffffffffffffffffffffff021916908373ffffffffffffffffffffffffffffffffffffffff16021790555083816001019081614ec891906158db565b5082816002019081614eda91906158db565b5050505050565b508054614eed9061543d565b6000825580601f10614eff5750614f1e565b601f016020900490600052602060002090810190614f1d9190614f21565b5b50565b5b80821115614f3a576000816000905550600101614f22565b5090565b6000604051905090565b600080fd5b600080fd5b6000819050919050565b614f6581614f52565b8114614f7057600080fd5b50565b600081359050614f8281614f5c565b92915050565b600060208284031215614f9e57614f9d614f48565b5b6000614fac84828501614f73565b91505092915050565b600080fd5b600080fd5b6000601f19601f8301169050919050565b7f4e487b7100000000000000000000000000000000000000000000000000000000600052604160045260246000fd5b61500882614fbf565b810181811067ffffffffffffffff8211171561502757615026614fd0565b5b80604052505050565b600061503a614f3e565b90506150468282614fff565b919050565b600067ffffffffffffffff82111561506657615065614fd0565b5b61506f82614fbf565b9050602081019050919050565b82818337600083830152505050565b600061509e6150998461504b565b615030565b9050828152602081018484840111156150ba576150b9614fba565b5b6150c584828561507c565b509392505050565b600082601f8301126150e2576150e1614fb5565b5b81356150f284826020860161508b565b91505092915050565b60006020828403121561511157615110614f48565b5b600082013567ffffffffffffffff81111561512f5761512e614f4d565b5b61513b848285016150cd565b91505092915050565b6000806040838503121561515b5761515a614f48565b5b600083013567ffffffffffffffff81111561517957615178614f4d565b5b615185858286016150cd565b925050602061519685828601614f73565b9150509250929050565b600073ffffffffffffffffffffffffffffffffffffffff82169050919050565b60006151cb826151a0565b9050919050565b6151db816151c0565b82525050565b60006020820190506151f660008301846151d2565b92915050565b615205816151c0565b811461521057600080fd5b50565b600081359050615222816151fc565b92915050565b60008060006060848603121561524157615240614f48565b5b600061524f86828701615213565b935050602084013567ffffffffffffffff8111156152705761526f614f4d565b5b61527c868287016150cd565b925050604061528d86828701614f73565b9150509250925092565b6152a081614f52565b82525050565b60006020820190506152bb6000830184615297565b92915050565b600080604083850312156152d8576152d7614f48565b5b600083013567ffffffffffffffff8111156152f6576152f5614f4d565b5b615302858286016150cd565b925050602083013567ffffffffffffffff81111561532357615322614f4d565b5b61532f858286016150cd565b9150509250929050565b7f4e487b7100000000000000000000000000000000000000000000000000000000600052602160045260246000fd5b7f4e487b7100000000000000000000000000000000000000000000000000000000600052603260045260246000fd5b7f4e487b7100000000000000000000000000000000000000000000000000000000600052601160045260246000fd5b60006153d182614f52565b91507fffffffffffffffffffffffffffffffffffffffffffffffffffffffffffffffff820361540357615402615397565b5b600182019050919050565b7f4e487b7100000000000000000000000000000000000000000000000000000000600052602260045260246000fd5b6000600282049050600182168061545557607f821691505b6020821081036154685761546761540e565b5b50919050565b60008154905061547d8161543d565b9050919050565b60008190508160005260206000209050919050565b60008190508160005260206000209050919050565b60006020601f8301049050919050565b600082821b905092915050565b6000600883026154fb7fffffffffffffffffffffffffffffffffffffffffffffffffffffffffffffffff826154be565b61550586836154be565b95508019841693508086168417925050509392505050565b6000819050919050565b600061554261553d61553884614f52565b61551d565b614f52565b9050919050565b6000819050919050565b61555c83615527565b61557061556882615549565b8484546154cb565b825550505050565b600090565b615585615578565b615590818484615553565b505050565b5b818110156155b4576155a960008261557d565b600181019050615596565b5050565b601f8211156155f9576155ca81615484565b6155d3846154ae565b810160208510156155e2578190505b6155f66155ee856154ae565b830182615595565b50505b505050565b600082821c905092915050565b600061561c600019846008026155fe565b1980831691505092915050565b6000615635838361560b565b9150826002028217905092915050565b81810361565357505061572b565b61565c8261546e565b67ffffffffffffffff81111561567557615674614fd0565b5b61567f825461543d565b61568a8282856155b8565b6000601f8311600181146156b957600084156156a7578287015490505b6156b18582615629565b865550615724565b601f1984166156c787615499565b96506156d286615484565b60005b828110156156fa578489015482556001820191506001850194506020810190506156d5565b868310156157175784890154615713601f89168261560b565b8355505b6001600288020188555050505b5050505050505b565b600081905092915050565b600081546157458161543d565b61574f818661572d565b9450600182166000811461576a576001811461577f576157b2565b60ff19831686528115158202860193506157b2565b61578885615484565b60005b838110156157aa5781548189015260018201915060208101905061578b565b838801955050505b50505092915050565b60006157c78284615738565b915081905092915050565b6000815490506157e18161543d565b9050919050565b8181036157f65750506158ce565b6157ff826157d2565b67ffffffffffffffff81111561581857615817614fd0565b5b615822825461543d565b61582d8282856155b8565b6000601f83116001811461585c576000841561584a578287015490505b6158548582615629565b8655506158c7565b601f19841661586a87615484565b965061587586615484565b60005b8281101561589d57848901548255600182019150600185019450602081019050615878565b868310156158ba57848901546158b6601f89168261560b565b8355505b6001600288020188555050505b5050505050505b565b600081519050919050565b6158e4826158d0565b67ffffffffffffffff8111156158fd576158fc614fd0565b5b615907825461543d565b6159128282856155b8565b600060209050601f8311600181146159455760008415615933578287015190505b61593d8582615629565b8655506159a5565b601f19841661595386615484565b60005b8281101561597b57848901518255600182019150602085019450602081019050615956565b868310156159985784890151615994601f89168261560b565b8355505b6001600288020188555050505b505050505050565b7f4e487b7100000000000000000000000000000000000000000000000000000000600052603160045260246000fd5b60006159e782614f52565b91506159f283614f52565b9250828202615a0081614f52565b91508282048414831517615a1757615a16615397565b5b5092915050565b6000615a2982614f52565b9150615a3483614f52565b9250828201905080821115615a4c57615a4b615397565b5b92915050565b60005b83811015615a70578082015181840152602081019050615a55565b60008484015250505050565b6000615a87826158d0565b615a91818561572d565b9350615aa1818560208601615a52565b80840191505092915050565b6000615ab98284615a7c565b91508190509291505056fea26469706673582212200477fcf9bf1bbfd1b6258f9be3d47f3d7e74974bd0f6c46b7dd5c8190d93ad6364736f6c63430008130033",
  "immutableReferences": {},
  "source": "// SPDX-License-Identifier: MIT\r\npragma solidity ^0.8.18;\r\n\r\ncontract delivery_m {\r\n\r\n    address public owner;\r\n\r\n    constructor(){\r\n        owner=msg.sender;\r\n    }\r\n\r\n    // \r\n    struct Customer {\r\n        address  customerWallet;\r\n        string customerAddress;\r\n        Basket basket;\r\n        Order goingOrder;\r\n        mapping(uint=>Order) pastOrderList;\r\n    }\r\n    //   \r\n    struct Store_own {\r\n        address  storeWallet;\r\n        string storeName;\r\n        string storeAddress;\r\n        mapping(string=>Menu)menuList;\r\n        mapping(uint=>Order)orderList;\r\n    }\r\n\r\n\r\n    //   \r\n    struct Store_cus {\r\n        address  storeWallet;\r\n        string storeName;\r\n        string storeAddress;\r\n        mapping(string=>Menu) menuList;\r\n    }\r\n    // \r\n    struct Rider {\r\n        address  riderWallet;\r\n        mapping(uint=>Order) orders;\r\n    }\r\n    // \r\n    struct Menu {\r\n        string name;\r\n        uint price;\r\n        uint count;\r\n    }\r\n    // \r\n    struct Basket {\r\n        address customerAddr;\r\n        address storeAddr;\r\n        string customerAddress;\r\n        string storeAddress;\r\n        Menu[] menuNames;\r\n        uint foodPrice;\r\n        uint deliveryFee;\r\n    }\r\n    // \r\n    struct Order {\r\n        uint orderID;\r\n        address customerAddr;\r\n        address storeAddr;\r\n        address riderAddr;\r\n        string customerAddress;\r\n        string storeAddress;\r\n        mapping(string=>Menu) menuName;\r\n        uint foodPrice;\r\n        uint deliveryFee;\r\n        uint deliveryTip;\r\n        storeState storeStatus;\r\n        riderState riderStatus;\r\n    }\r\n    //    \r\n    enum storeState {decline, accept,cookFinish, isPicked,notyetChoice,checkMoney}\r\n    //    \r\n    enum riderState {notSelected, inDelivery, isPicked, deliveryComplete,checkMoney}\r\n\r\n    //  \r\n    mapping(address => Customer) customers;\r\n    //  (  )\r\n    Store_cus[] stores_customer;\r\n    //  (  )\r\n    mapping(address=>Store_own) stores_owner;\r\n    //  \r\n    mapping(address => Rider) riders;\r\n    //\r\n    Order[] deliveryWaitingList;\r\n\r\n    //\r\n    uint public orderNum;\r\n\r\n    //------------------------------------------------------------------------------------------------\r\n\r\n    //  \r\n    function storeRegist(string memory _storeName,string memory _storeAddress) public {\r\n        //stores_customer   \r\n        Store_cus storage newStore_cus = stores_customer.push();\r\n        newStore_cus.storeWallet=msg.sender;\r\n        newStore_cus.storeName=_storeName;\r\n        newStore_cus.storeAddress=_storeAddress;\r\n\r\n        //stores_owner   \r\n        Store_own storage newStore_own=stores_owner[msg.sender];\r\n        newStore_own.storeWallet= msg.sender;\r\n        newStore_own.storeName=_storeName;\r\n        newStore_own.storeAddress=_storeAddress;\r\n\r\n    }\r\n    /*\r\n    function get1(uint _n)public view returns(string memory){\r\n        return stores_customer[_n].storeName;\r\n    }\r\n    function get2(address _a)public view returns(string memory){\r\n        return stores_owner[_a].storeName;\r\n    }\r\n    */\r\n\r\n\r\n    //   \r\n    function storeMenuRegist(string memory _menuName,uint _price)public{\r\n        //stores_customer  Menu[]  \r\n        for(uint i=0;i<stores_customer.length;i++){\r\n            if(stores_customer[i].storeWallet==msg.sender){\r\n                stores_customer[i].menuList[_menuName]=Menu(_menuName,_price,0);\r\n            }\r\n        }\r\n        //stores_owner  Menu[]  \r\n        stores_owner[msg.sender].menuList[_menuName]=Menu(_menuName,_price,0);\r\n    }\r\n    /*\r\n    function get3(uint _n,string memory _menuName)public view returns(Menu memory){\r\n        return stores_customer[_n].menuList[_menuName];\r\n    }\r\n    function get4(address _a,string memory _menuName)public view returns(Menu memory){\r\n        return stores_owner[_a].menuList[_menuName];\r\n    }\r\n    */\r\n\r\n    //  \r\n    function storeAccept(uint _orderId) public {\r\n        // order \r\n        customers[stores_owner[msg.sender].orderList[_orderId].customerAddr].goingOrder.storeStatus=storeState.accept;\r\n        //(stores_owner) order \r\n        stores_owner[msg.sender].orderList[_orderId].storeStatus=storeState.accept;\r\n    }\r\n\r\n    //  \r\n    function storeDecline(uint _orderId) public {\r\n        // order \r\n        customers[stores_owner[msg.sender].orderList[_orderId].customerAddr].goingOrder.storeStatus=storeState.decline;\r\n\r\n        //(stores_owner) order \r\n        stores_owner[msg.sender].orderList[_orderId].storeStatus=storeState.decline;\r\n\r\n        //  \r\n        for(uint i=0;i<deliveryWaitingList.length;i++){\r\n            if(deliveryWaitingList[i].orderID==_orderId){\r\n                delete deliveryWaitingList[i];\r\n            }\r\n        }\r\n        //  \r\n        delete stores_owner[msg.sender].orderList[_orderId];\r\n        \r\n    }\r\n\r\n    //  \r\n    function cookFinish(uint _orderId)public {\r\n        //(stores_owner) order \r\n        customers[stores_owner[msg.sender].orderList[_orderId].customerAddr].goingOrder.storeStatus=storeState.cookFinish;\r\n\r\n        // order \r\n        stores_owner[msg.sender].orderList[_orderId].storeStatus=storeState.cookFinish;\r\n\r\n    }\r\n\r\n\r\n    //--------------------------------------------------------------------------------------------\r\n\r\n\r\n\r\n    //  \r\n    function customerRegist(string memory _customerAddress) public {\r\n        Customer storage newCustomer=customers[msg.sender];\r\n        newCustomer.customerWallet=msg.sender;\r\n        newCustomer.customerAddress=_customerAddress;\r\n\r\n    }\r\n    /*\r\n    function getCustomer(address _a)public view returns (string memory){\r\n        return customers[_a].customerAddress;\r\n    }\r\n    */\r\n\r\n    //  \r\n    function addMenuToBusket(address _storeAddr,string memory _foodName,uint _count)public {\r\n        customers[msg.sender].basket.customerAddr=msg.sender;\r\n        customers[msg.sender].basket.storeAddr=_storeAddr;\r\n        customers[msg.sender].basket.customerAddress=customers[msg.sender].customerAddress;\r\n        for(uint i=0;i<stores_customer.length;i++){\r\n            if(stores_customer[i].storeWallet == _storeAddr){\r\n                customers[msg.sender].basket.storeAddress = stores_customer[i].storeAddress;\r\n                customers[msg.sender].basket.menuNames.push(Menu(stores_customer[i].menuList[_foodName].name,stores_customer[i].menuList[_foodName].price,_count));\r\n            }\r\n        }       \r\n        customers[msg.sender].basket.foodPrice=menuTotalPriceForBasket();\r\n        customers[msg.sender].basket.deliveryFee=0;\r\n    }\r\n\r\n    //   \r\n    function menuTotalPriceForBasket()public view returns(uint){\r\n        uint totalPrice;\r\n        uint menuLength = customers[msg.sender].basket.menuNames.length;\r\n        for (uint i = 0; i < menuLength; i++) {\r\n            totalPrice += customers[msg.sender].basket.menuNames[i].price*customers[msg.sender].basket.menuNames[i].count;\r\n        }\r\n        return totalPrice;\r\n    }\r\n\r\n    // function getBasketMenu(uint _n)public view returns(Menu memory){\r\n    //     return customers[msg.sender].basket.menuNames[_n];\r\n    // }\r\n\r\n    //\r\n    function ordering(uint _deliveryTip) public {\r\n        //  \r\n        orderNum++;\r\n        Order storage newOrder = customers[msg.sender].goingOrder;\r\n        newOrder.orderID= orderNum;\r\n        newOrder.customerAddr=msg.sender;\r\n        newOrder.storeAddr=customers[msg.sender].basket.storeAddr;\r\n        newOrder.customerAddress=customers[msg.sender].basket.customerAddress;\r\n        newOrder.storeAddress=customers[msg.sender].basket.storeAddress;\r\n        for(uint i=0;i<customers[msg.sender].basket.menuNames.length;i++){\r\n            newOrder.menuName[customers[msg.sender].basket.menuNames[i].name]=customers[msg.sender].basket.menuNames[i];\r\n        }\r\n        newOrder.foodPrice=menuTotalPriceForBasket();\r\n        newOrder.deliveryFee=0;\r\n        newOrder.deliveryTip=_deliveryTip;\r\n        newOrder.storeStatus=storeState.notyetChoice;\r\n        newOrder.riderStatus=riderState.notSelected; \r\n        //()  \r\n        Order storage newOrder2 = stores_owner[customers[msg.sender].basket.storeAddr].orderList[newOrder.orderID];\r\n        newOrder2.orderID= orderNum;\r\n        newOrder2.customerAddr=msg.sender;\r\n        newOrder2.storeAddr=customers[msg.sender].basket.storeAddr;\r\n        newOrder2.customerAddress=customers[msg.sender].basket.customerAddress;\r\n        newOrder2.storeAddress=customers[msg.sender].basket.storeAddress;\r\n        for(uint i=0;i<customers[msg.sender].basket.menuNames.length;i++){\r\n            newOrder2.menuName[customers[msg.sender].basket.menuNames[i].name]=customers[msg.sender].basket.menuNames[i];\r\n        }\r\n        newOrder2.foodPrice=menuTotalPriceForBasket();\r\n        newOrder2.deliveryFee=0;\r\n        newOrder2.deliveryTip=_deliveryTip;\r\n        newOrder2.storeStatus=storeState.notyetChoice;\r\n        newOrder2.riderStatus=riderState.notSelected;\r\n        //  \r\n        Order storage newOrder3 = deliveryWaitingList.push();\r\n        newOrder3.orderID= orderNum;\r\n        newOrder3.customerAddr=msg.sender;\r\n        newOrder3.storeAddr=customers[msg.sender].basket.storeAddr;\r\n        newOrder3.customerAddress=customers[msg.sender].basket.customerAddress;\r\n        newOrder3.storeAddress=customers[msg.sender].basket.storeAddress;\r\n        for(uint i=0;i<customers[msg.sender].basket.menuNames.length;i++){\r\n            newOrder.menuName[customers[msg.sender].basket.menuNames[i].name]=customers[msg.sender].basket.menuNames[i];\r\n        }\r\n        newOrder3.foodPrice=menuTotalPriceForBasket();\r\n        newOrder3.deliveryFee=0;\r\n        newOrder3.deliveryTip=_deliveryTip;\r\n        newOrder3.storeStatus=storeState.notyetChoice;\r\n        newOrder3.riderStatus=riderState.notSelected; \r\n    }\r\n\r\n\r\n    // function getdelivery(uint _n)public view returns(uint,address){\r\n    //     return (deliveryWaitingList[_n].orderID,deliveryWaitingList[_n].riderAddr);\r\n    // }\r\n    // function getOrderingCusOrder()public view returns (uint,uint ){\r\n    //     return (customers[msg.sender].goingOrder.orderID,customers[msg.sender].goingOrder.foodPrice);\r\n    // }\r\n    // function getOrderingStoreOrder(uint _n)public view returns (uint,uint ){\r\n    //     return (stores_owner[msg.sender].orderList[_n].orderID,stores_owner[msg.sender].orderList[_n].foodPrice);\r\n    // }\r\n    // function getOrderingDelOrder(uint _n)public view returns (uint,uint ){\r\n    //     return (deliveryWaitingList[_n].orderID,deliveryWaitingList[_n].foodPrice);\r\n    // }\r\n\r\n    //  ,   \r\n    function payment()public payable {\r\n        //  ,    \r\n        require(customers[msg.sender].goingOrder.storeStatus==storeState.accept &&\r\n                customers[msg.sender].goingOrder.riderStatus==riderState.isPicked);\r\n        // \r\n        require(\r\n            msg.value==(customers[msg.sender].goingOrder.foodPrice+\r\n            customers[msg.sender].goingOrder.deliveryFee+\r\n            customers[msg.sender].goingOrder.deliveryTip)*1 ether\r\n            );\r\n        //(stores_owner) order \r\n        stores_owner[customers[msg.sender].goingOrder.storeAddr].orderList[customers[msg.sender].goingOrder.orderID].storeStatus=storeState.checkMoney;\r\n        // \r\n        for(uint i=0;i<deliveryWaitingList.length;i++){\r\n            if(deliveryWaitingList[i].customerAddr==msg.sender){\r\n                deliveryWaitingList[i].storeStatus=storeState.checkMoney;     \r\n            }\r\n        }        \r\n        // order \r\n        customers[msg.sender].goingOrder.storeStatus==storeState.checkMoney;\r\n        //   \r\n        riders[customers[msg.sender].goingOrder.riderAddr].orders[customers[msg.sender].goingOrder.orderID].riderStatus = riderState.checkMoney;\r\n/*\r\nstruct Basket {\r\n        address customerAddr;\r\n        address storeAddr;\r\n        string customerAddress;\r\n        string storeAddress;\r\n        Menu[] menuNames;\r\n        uint foodPrice;\r\n        uint deliveryFee;\r\n    }\r\n*/\r\n        // // basket\r\n        // customers[msg.sender].basket.customerAddr=address(0);\r\n        // customers[msg.sender].basket.storeAddr=address(0);\r\n        // customers[msg.sender].basket.customerAddress=\"\";\r\n        // customers[msg.sender].basket.storeAddress=\"\";\r\n        // for(uint i=0;i<customers[msg.sender].basket.menuNames.length;i++){\r\n        //     customers[msg.sender].basket.menuNames.pop();\r\n        //     customers[msg.sender].basket.menuNames.pop();\r\n        // }\r\n        // customers[msg.sender].basket.foodPrice=0;\r\n        // customers[msg.sender].basket.deliveryFee=0;\r\n    }\r\n\r\n\r\n\r\n    //---------------------------------------------------------------------------------------------\r\n    /*\r\n    function customerRegist(string memory _customerAddress) public {\r\n        Customer storage newCustomer=customers[msg.sender];\r\n        newCustomer.customerWallet=msg.sender;\r\n        newCustomer.customerAddress=_customerAddress;\r\n\r\n    }\r\n    struct Rider {\r\n        address  riderWallet;\r\n        mapping(address=>Order) orders;\r\n    }\r\n    mapping(address => Rider) riders;\r\n    */\r\n    //  \r\n    function riderRegist() public{       \r\n        Rider storage newRider = riders[msg.sender];\r\n        newRider.riderWallet = msg.sender;\r\n\r\n    }\r\n\r\n    \r\n\r\n    //  \r\n    function riderPickOrder(uint _orderId)public {\r\n        //  \r\n        \r\n        for(uint i=0;i<deliveryWaitingList.length;i++){\r\n            if(deliveryWaitingList[i].orderID==_orderId){\r\n\r\n                //   \r\n                customers[deliveryWaitingList[i].customerAddr].goingOrder.riderAddr = msg.sender;\r\n                //   \r\n                stores_owner[deliveryWaitingList[i].storeAddr].orderList[_orderId].riderAddr = msg.sender;\r\n                //   \r\n                deliveryWaitingList[i].riderAddr = msg.sender;\r\n\r\n                // //  ''\r\n                // deliveryWaitingList[i].riderStatus=riderState.selected;\r\n                // // order \r\n                // customers[deliveryWaitingList[i].customerAddr].goingOrder.riderStatus = riderState.selected;\r\n                // //(stores_owner) order \r\n                // stores_owner[deliveryWaitingList[i].storeAddr].orderList[_orderId].riderStatus= riderState.selected;\r\n            }\r\n        }\r\n        //  ''\r\n        for(uint i=0;i<deliveryWaitingList.length;i++){\r\n            if(deliveryWaitingList[i].riderAddr==msg.sender){\r\n                Order storage newOrder = riders[msg.sender].orders[_orderId];\r\n                newOrder.orderID= _orderId;\r\n                newOrder.customerAddr=deliveryWaitingList[i].customerAddr;\r\n                newOrder.storeAddr=deliveryWaitingList[i].storeAddr;\r\n                newOrder.customerAddress=deliveryWaitingList[i].customerAddress;\r\n                newOrder.storeAddress=deliveryWaitingList[i].storeAddress;\r\n                for(uint j=0;j<customers[deliveryWaitingList[i].customerAddr].basket.menuNames.length;j++){\r\n                    newOrder.menuName[customers[deliveryWaitingList[i].customerAddr].basket.menuNames[i].name]=customers[deliveryWaitingList[i].customerAddr].basket.menuNames[i];\r\n                }\r\n                newOrder.foodPrice=deliveryWaitingList[i].foodPrice;\r\n                newOrder.deliveryFee=deliveryWaitingList[i].deliveryFee;\r\n                newOrder.deliveryTip=deliveryWaitingList[i].deliveryTip;\r\n                newOrder.storeStatus=deliveryWaitingList[i].storeStatus;\r\n                newOrder.riderStatus=deliveryWaitingList[i].riderStatus;\r\n                //    \r\n                \r\n                deliveryWaitingList[i].riderStatus=riderState.isPicked;\r\n                \r\n                //   \r\n                //customers[deliveryWaitingList[i].customerAddr].goingOrder.storeStatus=storeState.isPicked;\r\n                customers[deliveryWaitingList[i].customerAddr].goingOrder.riderStatus=riderState.isPicked;\r\n                //   \r\n                //stores_owner[deliveryWaitingList[i].storeAddr].orderList[_orderId].storeStatus=storeState.isPicked;\r\n                stores_owner[deliveryWaitingList[i].storeAddr].orderList[_orderId].riderStatus=riderState.isPicked;\r\n                  \r\n            }\r\n        } \r\n    }\r\n\r\n    //  \r\n    function riderStartDelivery(uint _orderId)public {\r\n        //   \r\n        require(riders[msg.sender].orders[_orderId].riderStatus==riderState.checkMoney);\r\n        //  \r\n        riders[msg.sender].orders[_orderId].riderStatus=riderState.inDelivery;\r\n        //    \r\n        for(uint i=0;i<deliveryWaitingList.length;i++){\r\n            if(deliveryWaitingList[i].orderID==_orderId){\r\n                deliveryWaitingList[i].riderStatus=riderState.inDelivery;\r\n            }\r\n        }\r\n        \r\n    }\r\n    //  \r\n    function riderFinishDelivery(uint _orderId)public {\r\n        require(riders[msg.sender].orders[_orderId].riderStatus==riderState.inDelivery);\r\n        riders[msg.sender].orders[_orderId].riderStatus=riderState.deliveryComplete;\r\n\r\n        //    \r\n        for(uint i=0;i<deliveryWaitingList.length;i++){\r\n            if(deliveryWaitingList[i].orderID==_orderId){\r\n                deliveryWaitingList[i].riderStatus=riderState.deliveryComplete;\r\n            }\r\n        }\r\n        //   \r\n        \r\n        Order storage pastOrder = customers[riders[msg.sender].orders[_orderId].customerAddr].pastOrderList[_orderId];\r\n        \r\n        pastOrder.orderID= customers[riders[msg.sender].orders[_orderId].customerAddr].goingOrder.orderID;\r\n        pastOrder.customerAddr=customers[riders[msg.sender].orders[_orderId].customerAddr].goingOrder.customerAddr;\r\n        pastOrder.storeAddr=customers[riders[msg.sender].orders[_orderId].customerAddr].goingOrder.storeAddr;\r\n        pastOrder.customerAddress=customers[riders[msg.sender].orders[_orderId].customerAddr].goingOrder.customerAddress;\r\n        pastOrder.storeAddress=customers[riders[msg.sender].orders[_orderId].customerAddr].goingOrder.storeAddress;\r\n        for(uint i=0;i<customers[riders[msg.sender].orders[_orderId].customerAddr].basket.menuNames.length;i++){\r\n            pastOrder.menuName[customers[riders[msg.sender].orders[_orderId].customerAddr].basket.menuNames[i].name]=customers[riders[msg.sender].orders[_orderId].customerAddr].basket.menuNames[i];\r\n        }\r\n        \r\n        pastOrder.foodPrice=customers[riders[msg.sender].orders[_orderId].customerAddr].goingOrder.foodPrice;\r\n        pastOrder.deliveryFee=customers[riders[msg.sender].orders[_orderId].customerAddr].goingOrder.deliveryFee;\r\n        pastOrder.deliveryTip=customers[riders[msg.sender].orders[_orderId].customerAddr].goingOrder.deliveryTip;\r\n        pastOrder.storeStatus=customers[riders[msg.sender].orders[_orderId].customerAddr].goingOrder.storeStatus;\r\n        pastOrder.riderStatus=customers[riders[msg.sender].orders[_orderId].customerAddr].goingOrder.riderStatus; \r\n        \r\n        // goingOrder\r\n        \r\n\r\n        customers[msg.sender].goingOrder.orderID= 0;\r\n        customers[msg.sender].goingOrder.customerAddr=address(0);\r\n        customers[msg.sender].goingOrder.storeAddr=address(0);\r\n        customers[msg.sender].goingOrder.customerAddress=\"\";\r\n        customers[msg.sender].goingOrder.storeAddress=\"\";\r\n        for(uint i=0;i<customers[riders[msg.sender].orders[_orderId].customerAddr].basket.menuNames.length;i++){\r\n            delete customers[msg.sender].goingOrder.menuName[customers[riders[msg.sender].orders[_orderId].customerAddr].basket.menuNames[0].name];\r\n        }        \r\n        customers[msg.sender].goingOrder.foodPrice=0;\r\n        customers[msg.sender].goingOrder.deliveryFee=0;\r\n        customers[msg.sender].goingOrder.deliveryTip=0;\r\n        customers[msg.sender].goingOrder.storeStatus=storeState.notyetChoice;\r\n        customers[msg.sender].goingOrder.riderStatus=riderState.notSelected; \r\n        \r\n\r\n        // basket\r\n        customers[riders[msg.sender].orders[_orderId].customerAddr].basket.customerAddr=address(0);\r\n        customers[riders[msg.sender].orders[_orderId].customerAddr].basket.storeAddr=address(0);\r\n        customers[riders[msg.sender].orders[_orderId].customerAddr].basket.customerAddress=\"\";\r\n        customers[riders[msg.sender].orders[_orderId].customerAddr].basket.storeAddress=\"\";\r\n        for(uint i=0;i<customers[riders[msg.sender].orders[_orderId].customerAddr].basket.menuNames.length;i++){\r\n            customers[riders[msg.sender].orders[_orderId].customerAddr].basket.menuNames.pop();\r\n        }\r\n        customers[riders[msg.sender].orders[_orderId].customerAddr].basket.foodPrice=0;\r\n        customers[riders[msg.sender].orders[_orderId].customerAddr].basket.deliveryFee=0;\r\n\r\n    }\r\n\r\n    // function getRiderMyOrder(uint _orderId)public view returns(address){\r\n    //         return riders[msg.sender].orders[_orderId].customerAddr;\r\n    //     }   \r\n    /*\r\n    function getStoreState()public view returns(storeState){\r\n        return customers[msg.sender].goingOrder.storeStatus;\r\n    }\r\n    function getRiderState()public view returns(riderState){\r\n        return customers[msg.sender].goingOrder.riderStatus;\r\n    }\r\n    function getFoodPrice()public view returns(uint){\r\n        return customers[msg.sender].goingOrder.foodPrice;\r\n    }\r\n    function getDeliveryFee()public view returns(uint){\r\n        return customers[msg.sender].goingOrder.deliveryFee;\r\n    }\r\n    function getDeliveryTip()public view returns(uint){\r\n        return customers[msg.sender].goingOrder.deliveryTip;\r\n    }\r\n    */\r\n\r\n    //---------------------------------------------------------------------------------------------\r\n\r\n    function withdraw(uint _amount)public {\r\n        require(msg.sender == owner);\r\n        payable (msg.sender).transfer(_amount * 1 ether);\r\n    }\r\n\r\n}\r\n",
  "sourcePath": "C:\\Users\\ASUS\\visualstudio_project\\blockchainSchool\\teamproject\\solidity\\contracts\\main_mapping_ver.sol",
  "compiler": {
    "name": "solc",
    "version": "0.8.19+commit.7dd6d404.Emscripten.clang"
  },
  "schemaVersion": "3.4.14",
  "updatedAt": "2023-06-21T12:36:55.406Z",
  "devdoc": {
    "kind": "dev",
    "methods": {},
    "version": 1
  },
  "userdoc": {
    "kind": "user",
    "methods": {},
    "version": 1
  }
}